:100000000C94D7070C94A9210C94D6210C94FF07CB
:100010000C94FF070C94FF070C94FF070C94FF0748
:100020000C94FF070C94FF070C94FF070C94FF0738
:100030000C94FF070C94FF070C94FF070C94FF0728
:100040000C9403220C94FF070C94BE240C94F0240F
:100050000C94FF070C94FF070C94FF070C94FF0708
:100060000C945C200C94FF07084AD73B3BCE016EF2
:1000700084BCBFFDC12F3D6C74319ABD56833DDAFF
:100080003D00C77F11BED9E4BB4C3E916BAAAABE0E
:10009000000000803F05A84CCDB2D44EB93836A937
:1000A000020C50B9918688083CA6AAAA2ABE000074
:1000B00000803F004649464F206F766572666C6F40
:1000C0007721002900444D5020496E697469616CA4
:1000D000697A6174696F6E206661696C6564202855
:1000E000636F64652000444D50207265616479211E
:1000F0002057616974696E6720666F722066697245
:10010000737420696E746572727570742E2E2E0071
:10011000456E61626C696E6720696E746572727596
:10012000707420646574656374696F6E2028417211
:100130006475696E6F2065787465726E616C206994
:100140006E746572727570742030292E2E2E0045E3
:100150006E61626C696E6720444D502E2E2E0049F0
:100160006E697469616C697A696E6720444D502EBE
:100170002E2E004D50553630353020636F6E6E6533
:100180006374696F6E206661696C6564004D5055DB
:100190003630353020636F6E6E656374696F6E2024
:1001A0007375636365737366756C00546573746906
:1001B0006E672064657669636520636F6E6E656344
:1001C00074696F6E732E2E2E00496E697469616CAE
:1001D000697A696E67204932432064657669636590
:1001E000732E2E2E0001B202FFFF0190040923A1FD
:1001F00035016A02060001600800000000000000EE
:100200000000600440000000016202000000600481
:1002100000400000037B034CCD6C03AB03365676E5
:1002200000680402CB47A202180400058BC1010C30
:100230000400000000037F060CC92C9797970389E0
:1002400003264666006C0220000240040000000005
:100250000244040000000002480400000000024CB8
:1002600004000000000250040000000002540400DA
:1002700000000002580400000000025C04000000BE
:100280000002BC040000000001EC04000040000378
:100290007F060CC92C9797970402030D355D04095E
:1002A00004872D353D00A3010000000001078601F1
:1002B000FE074105F120283038077E01300746014E
:1002C0009A074704F1283038076C04F128303802C7
:1002D00016020001FB00003E000B00360001000288
:1002E0000003000000650054FFEF0000FA80000BDF
:1002F0001282000100020000000000000000000067
:100300000000000000280000FFFF4581FFFFFA7297
:1003100000000000000003E80000000100017FFF72
:10032000FFFE8001001B0000000000000000000034
:1003300000000000003E03304000000002CAE30954
:100340003E8000002000000000000000400000008F
:100350006000000041FF000000000B2A000016555D
:1003600000002182FD872650FD800000001F000054
:1003700000058000000000000001000000020000F5
:1003800000030000400000000000046F000265321E
:1003900000005EC0400000000000000000000000FF
:1003A00000000000FB8C6F5DFD5D08D9007C733B95
:1003B000006C12CC3200139D3200D0D632000800FF
:1003C000400001F4FFE68079020000000000D0D672
:1003D00000002710FB0000004000000000000000AB
:1003E000000000000000000100000000000001000B
:1003F000010000000000FA36FFBC308E0005FBF063
:10040000FFD95BC8FFD09ABE000010A9FFF41EB24E
:1004100000CEBBF700000001000000040002000253
:100420000200000CFFC280000001800000CF8000AD
:100430004000000000000001000000000000060075
:100440000000001400000000000000000000000098
:10045000000000000000000000000000000000009C
:10046000000000000000000000000000000000008C
:100470000000000000000000033F68B6793528BC8A
:10048000C67ED16C80000000400000000000B26A0F
:1004900000000000000000000000000000003FF02D
:1004A000000000300000000000000000000000001C
:1004B000000000000000000000000000000000003C
:1004C000000000000000254D002F706D000005AEFB
:1004D000000C02D00000000000650054FFEF000097
:1004E00000000000000001000044000000000C00BB
:1004F0000000010000000000006500000054000042
:10050000FFEF0000000000000000000000000000FD
:10051000000000004000000000000000000000009B
:10052000000000004000000000000000000000008B
:1005300000000000000000010000000200000000B8
:1005400000000000000000000000000000000000AB
:10055000000000000000000000000000000000009B
:1005600000000000001B0000000000000000000070
:10057000000000000000000000000000000000007B
:10058000000000000000000000000000000000006B
:1005900040000000001B0000000000000000000000
:1005A000000000000000000000000000000000004B
:1005B000000000000000000000000000000000003B
:1005C000000000000000000000000000000000002B
:1005D00000000000D8DCBAA2F1DEB2B8B4A8819164
:1005E000F74A907F916AF3F9DBA8F9B0BAA080F2DC
:1005F000CE81F3C2F1C1F2C3F3CCA2B280F1C6D86E
:1006000080BAA7DFDFDFF2A7C3CBC5B6F087A2941D
:100610002448703C95406834589B78A2F183922D11
:10062000557DD8B1B4B8A1D09180F270F370F27C4E
:1006300080A8F101B09887D943D886C988BAA1F2B9
:100640000EB89780F1A9DFDFDFAADFDFDFF2AAC5EE
:10065000CDC7A90CC92C97979797F1A9892646660B
:10066000B0B4BA80ACDEF2CAF1B28C02A9B698007E
:10067000890E161EB8A9B4992C547CB08AA8963657
:100680005676F1B9AFB4B083C0B8A89711B18F98BE
:10069000B9AFF0240844106418F1A329557DAF8345
:1006A000B593AFF0002850F1A3869F61A6DADEDF94
:1006B000D9FAA38696DB31A6D9F8DFBAA68FC2C5D0
:1006C000C7B28CC1B8A2DFDFDFA3DFDFDFD8D8F18C
:1006D000B8A8B286B4980D355DB8AA98B0872D3504
:1006E0003DB2B6BAAF8C96198F9FA70E161EB49A5C
:1006F000B8AA872C547CB9A3DEDFDFA3B180F2C493
:10070000CDC9F1B8A9B499830D355D89B9A32D552B
:100710007DB593A30E161EA92C547CB8B4B0F197E6
:1007200083A81184A50998A383F0DA2408441064EF
:1007300018D8F1A529557DA58595021A2E3A565A45
:100740004048F9F3A3D9F8F09883240844106418BA
:100750009782A8F111F098A2240844106418DAF3E3
:10076000DED883A59401D9A302F1A2C3C5C7D8F1ED
:100770008492A24DDA2AD84869D92AD86855DA3243
:10078000D85071D932D8705DDA3AD85879D93AD878
:100790007893A34DDA2AD84869D92AD86855DA322D
:1007A000D85071D932D8705DDA3AD85879D93AD858
:1007B00078A88A9AF02850789EF38818F19F1D989F
:1007C000A8D908D8C89F129EF315A8DA1210D8F13C
:1007D000AFC8978734B5B994A421F3D922D8F22DA4
:1007E000F3D92AD8F235F3D932D881A4606061D91F
:1007F00061D86C6869D969D8747071D971D8B1A39E
:1008000084193D5DA3831A3E5E931030811011B8A8
:10081000B0AF8F94F2DA3ED8B49AA88729DAF8D824
:10082000879A35DAF8D8879A3DDAF8D8B1B9A4981A
:1008300085022E56A581000C14A397B08AF12DD9FC
:1008400028D84DD948D86DD968D8B1840DDA0ED8DA
:10085000A32983DA2C0ED8A3844983DA2C4C0ED832
:10086000B8B0A88A9AF520AADADFD8A840AAD0DAC8
:10087000DED8A860AADAD0DFD8F19786A8319B0627
:100880009907AB9728889BF00C201440B8B0B4A807
:100890008C9CF0042851791D301438B282ABD0986A
:1008A0002C505078789BF11AB0F08A9CA829517985
:1008B0008B2951798A2470598B2058718A44693860
:1008C0008B3940688A6448318B304960A58820099B
:1008D00071584468113964493019F1AC002C547CCA
:1008E000F08CA804285078F1889726A85998AC8CE9
:1008F00002264666F0899CA82951792470594469DA
:1009000038644831A98809205970AB11384069A86A
:10091000193148608CA83C415C207C00F187981913
:1009200086A86E767EA999882D557D9EB9A38A22C8
:100930008A6E8A568A5E9FB183062646660E2E4EC2
:100940006E9DB8AD002C547CF2B18CB499B9A32D36
:10095000557D8191AC38AD3AB58391AC2DD928D86D
:100960004DD948D86DD968D88C9DAE29D904AED858
:1009700051D904AED879D904D881F39DAD008DAE9C
:100980001981ADD901D8F2AEDA26D88E912983A784
:10099000D9ADADADADF32AD8D8F1B0AC89913E5EFA
:1009A00076F3AC2E2EF1B18C5A9CAC2C2828289CC6
:1009B000AC3018A8988128343C9724A728343C9C54
:1009C00024F2B089AC912C4C6C8A9B2DD9D8D8518B
:1009D000D9D8D879D9D8D8F19E88A331DAD8D89186
:1009E0002DD928D84DD948D86DD968D8B183933539
:1009F0003D8025DAD8D88569DAD8D8B49381A32880
:100A0000343CF3AB8BF8A391B609B4D9ABDEFAB0A2
:100A1000879CB9A3DDF1A3A3A3A395F1A3A3A39DF1
:100A2000F1A3A3A3A3F2A3B49080F2A3A3A3A3A3CF
:100A3000A3A3A3A3A3B2A3A3A3A3A3A3B087B5997E
:100A4000F1A3A3A398F1A3A3A3A397A3A3A3A3F3A1
:100A50009BA3A3DCB9A7F1262626D8D8FF00000067
:100A600000003E5B4F5B3E3E6B4F6B3E1C3E7C3E50
:100A70001C183C7E3C181C577D571C1C5E7F5E1C5E
:100A800000183C1800FFE7C3E7FF0018241800FF18
:100A9000E7DBE7FF30483A060E2629792926407F12
:100AA000050507407F05253F5A3CE73C5A7F3E1C21
:100AB0001C08081C1C3E7F14227F22145F5F005F0D
:100AC0005F06097F017F006689956A6060606060EB
:100AD00094A2FFA29408047E040810207E2010082F
:100AE000082A1C08081C2A08081E101010100C1ECA
:100AF0000C1E0C30383E3830060E3E0E060000004C
:100B0000000000005F00000007000700147F147F52
:100B100014242A7F2A12231308646236495620506F
:100B20000008070300001C2241000041221C002A8B
:100B30001C7F1C2A08083E08080080703000080846
:100B4000080808000060600020100804023E5149B7
:100B5000453E00427F400072494949462141494D86
:100B6000331814127F1027454545393C4A4949310D
:100B700041211109073649494936464949291E008C
:100B80000014000000403400000008142241141436
:100B9000141414004122140802015909063E415D53
:100BA000594E7C1211127C7F494949363E414141E0
:100BB000227F4141413E7F494949417F090909015D
:100BC0003E414151737F0808087F00417F4100206A
:100BD00040413F017F081422417F404040407F0256
:100BE0001C027F7F0408107F3E4141413E7F09097E
:100BF00009063E4151215E7F091929462649494986
:100C00003203017F01033F4040403F1F2040201F2F
:100C10003F4038403F6314081463030478040361C1
:100C200059494D43007F41414102040810200041D1
:100C300041417F040201020440404040400003075C
:100C4000080020545478407F2844443838444444B1
:100C500028384444287F385454541800087E090228
:100C600018A4A49C787F0804047800447D400020E8
:100C700040403D007F1028440000417F40007C043C
:100C80007804787C080404783844444438FC1824F8
:100C9000241818242418FC7C0804040848545454CC
:100CA0002404043F44243C4040207C1C2040201C61
:100CB0003C4030403C44281028444C9090907C4468
:100CC00064544C44000836410000007700000041A5
:100CD00036080002010204023C2623263C1EA1A184
:100CE00061123A4040207A3854545559215555796B
:100CF000412254547842215554784020545579402B
:100D00000C1E52721239555555593954545459398B
:100D1000555454580000457C410002457D42000175
:100D2000457C407D1211127DF0282528F07C545519
:100D300045002054547C547C0A097F493249494972
:100D4000323A4444443A324A4848303A4141217A9E
:100D50003A42402078009DA0A07D3D4242423D3D68
:100D60004040403D3C24FF2424487E4943662B2FCD
:100D7000FC2F2BFF0929F620C0887E09032054543C
:100D800079410000447D413048484A323840402291
:100D90007A007A0A0A727D0D19317D2629292F28B9
:100DA000262929292630484D4020380808080808F7
:100DB000080808382F10C8ACBA2F102834FA0000E1
:100DC0007B000008142A142222142A1408AA0055B1
:100DD00000AAAA55AA55AA000000FF00101010FF93
:100DE00000141414FF001010FF00FF1010F010F09A
:100DF000141414FC001414F700FF0000FF00FF148B
:100E000014F404FC141417101F10101F101F1414D6
:100E1000141F00101010F0000000001F1010101020
:100E20001F10101010F010000000FF101010101014
:100E300010101010FF10000000FF140000FF00FF52
:100E400000001F10170000FC04F4141417101714EE
:100E500014F404F40000FF00F71414141414141410
:100E6000F700F7141414171410101F101F14141483
:100E7000F4141010F010F000001F101F0000001FED
:100E800014000000FC140000F010F01010FF10FF20
:100E9000141414FF141010101F00000000F010FFB5
:100EA000FFFFFFFFF0F0F0F0F0FFFFFF0000000099
:100EB00000FFFF0F0F0F0F0F3844443844FC4A4A1D
:100EC0004A347E02020606027E027E0263554941D2
:100ED000633844443C04407E201E2006027E020209
:100EE00099A5E7A5991C2A492A1C4C7201724C301D
:100EF0004A4D4D303048784830BC625A463D3E49F4
:100F00004949007E0101017E2A2A2A2A2A44445F97
:100F1000444440514A444040444A51400000FF018B
:100F200003E080FF000008086B6B08361236243699
:100F3000060F090F060000181800000010100030FE
:100F400040FF0101001F01011E00191D1712003C86
:100F50003C3C3C00000000000000000800020100D2
:100F60000003040700000000000000000102040864
:100F70001020408001020408102001020408102003
:100F8000040404040404040402020202020203032F
:100F90000303030300000000250028002B000000CD
:100FA0000000240027002A006E0E7A1F202511243D
:100FB0001FBECFEFD8E0DEBFCDBF11E0A0E0B1E0B3
:100FC000E2E0F9E502C005900D92AE36B107D9F71F
:100FD00023E0AEE6B1E001C01D92AB3AB207E1F703
:100FE0001FE0CEEADFE004C02297FE010E94292A1A
:100FF000C83AD107C9F70E9464250C947F2C0C9441
:10100000000081E080936E0108958F929F92AF92CD
:10101000BF92CF92EF920F931F93CF93DF93CDB7F1
:10102000DEB7C059D1090FB6F894DEBF0FBECDBFF1
:101030005C010E94171B6EE170E080E090E00E946E
:101040007C2260E0C5010E941E1B21E041E060E1BE
:10105000C5010E943A1C66E0C5010E94451C20E0C3
:1010600040E060E0C5010E943A1CC5010E949F1B40
:10107000182FC5010E94C61B882EC5010E94ED1BBA
:10108000982E4FE760E0C5010E94D71A60E0C501C5
:101090000E94021B48E660E0C5010E94D71AC50104
:1010A0000E94101B64E170E080E090E00E947C22CE
:1010B000EE24E39400E020E049E857E064ED72E0BC
:1010C000C5010E94991D882309F408C240EC50E034
:1010D00064E172E0C5010E94641E882309F400C225
:1010E00063E0C5010E94251B62E1C5010E94E31A6D
:1010F00064E0C5010E948D1A61E0C5010E94931A47
:1011000063E0C5010E949E1A63E0C5010E94A91A0E
:1011100063E0C5010E94671E60E0C5010E946D1E6C
:1011200060E0C5010E94981B612FC5010E94BB1B96
:10113000682DC5010E94E21B692DC5010E94091C92
:10114000812C912CF401EB51FE4FE491A1E8B0E029
:10115000AC0FBD1FA80DB11DEC9381E0880D9FEF72
:10116000891A990AE3E0E81568F7CD57DF4F4881FF
:10117000C358D04050E09A012E5F3F4F90E02817AF
:10118000390704F7C12CEE24E394CE57DF4F0881D2
:10119000C258D040CF57DF4F2881C158D04061E8B6
:1011A00070E06C0F7D1F6D5F7F4FC5010E94B51C05
:1011B00060E0F401EB51FE4FE491A1E8B0E0AC0F28
:1011C000BD1FA60FB11DEC936F5FFFEF8F1A9F0A33
:1011D000643078F3CD57DF4F4881C358D04050E09A
:1011E0009A012E5F3F4F862F90E0281739070CF7A2
:1011F000C12CEE24E394CE57DF4F0881C258D04073
:10120000CF57DF4F2881C158D04061E870E06C0FA4
:101210007D1F6D5F7F4FC5010E94B51CC5010E94F7
:10122000091BC5010E94441B482FBE016F5F7F4F01
:10123000C5010E94601B62E0C5010E94BF1A6CE9F3
:10124000C5010E94CB1A60E5C5010E94C51A60E085
:10125000C5010E94D11AC5010E94091B61E0C501A8
:101260000E94FB1A61E0C5010E942C1CC5010E946E
:10127000331C60E0F401EB51FE4FE491A1E8B0E0D3
:10128000AC0FBD1FA60FB11DEC936F5F8FEF881AD7
:10129000980A643078F3CD57DF4F4881C358D04067
:1012A00050E09A012E5F3F4F862F90E028173907B4
:1012B0000CF7C12CEE24E394CE57DF4F0881C258BF
:1012C000D040CF57DF4F2881C158D04061E870E04F
:1012D0006C0F7D1F6D5F7F4FC5010E94B51C60E0E4
:1012E000F401EB51FE4FE491A1E8B0E0AC0FBD1F5B
:1012F000A60FB11DEC936F5F9FEF891A990A6430B6
:1013000078F3CD57DF4F4881C358D04050E09A0161
:101310002E5F3F4F862F90E0281739070CF7C12C1E
:10132000EE24E394CE57DF4F0881C258D040CF5708
:10133000DF4F2881C158D04061E870E06C0F7D1FFD
:101340006D5F7F4FC5010E94B51C60E0F401EB5159
:10135000FE4FE491A1E8B0E0AC0FBD1FA60FB11D98
:10136000EC936F5FEFEF8E1A9E0A643078F3CD57DF
:10137000DF4F4881C358D04050E09A012E5F3F4F65
:10138000862F90E0281739070CF7C12CEE24E39440
:10139000CE57DF4F0881C258D040CF57DF4F28814A
:1013A000C158D04061E870E06C0F7D1F6D5F7F4FCA
:1013B000C5010E94B51CC5010E94441B83309105E4
:1013C000D0F3482FBE016F5F7F4FC5010E94601BA5
:1013D00060E0F401EB51FE4FE491A1E8B0E0AC0F06
:1013E000BD1FA60FB11DEC936F5FFFEF8F1A9F0A11
:1013F000643078F3CD57DF4F4881C358D04050E078
:101400009A012E5F3F4F862F90E0281739070CF77F
:10141000CE57DF4F0881C258D040CF57DF4F2881C9
:10142000C158D04061E870E06C0F7D1F6D5F7F4F49
:10143000C5010E944B1CC5010E94441B83309105CD
:10144000D0F3482FBE016F5F7F4FC5010E94601B24
:10145000F401EB51FE4F60E08491A1E8B0E0AC0FE5
:10146000BD1FA60FB11D8C936F5F643010F43196D1
:10147000F3CFCD57DF4F4881C358D04050E09A0199
:101480002E5F3F4F862F90E02817390784F761E8D9
:1014900070E06C0F7D1F6D5F7F4FC12CEE24E394D5
:1014A000CE57DF4F0881C258D040CF57DF4F288139
:1014B000C158D040C5010E94B51C60E0C5010E9422
:1014C0002C1C8AE290E0F50193838283C5010E947F
:1014D000091BC5010E94E91A80E003C081E001C038
:1014E00082E0C057DF4F0FB6F894DEBF0FBECDBF0E
:1014F000DF91CF911F910F91EF90CF90BF90AF9060
:101500009F908F900895CF93DF93DB01FA0130977E
:1015100019F4EC01E881F981808190E0982F882707
:101520002181822B11969C938E93848190E0982F39
:1015300088272581822B13969C938E931297808502
:1015400090E0982F88272185822B15969C938E9367
:101550001497848590E0982F88272585822B1796ED
:101560009C938E93169780E0DF91CF910895FF9220
:101570000F931F93CF93DF93CDB7DEB728970FB6A6
:10158000F894DEBF0FBECDBF8B01BE016F5F7F4FF2
:101590000E94830AF82E81114CC069817A818827C4
:1015A00077FD8095982F0E94062820E030E040E8E3
:1015B00058E30E940829F801608371838283938332
:1015C0006B817C81882777FD8095982F0E94062863
:1015D00020E030E040E858E30E940829F8016483E5
:1015E0007583868397836D817E81882777FD8095BB
:1015F000982F0E94062820E030E040E858E30E943F
:101600000829F80160877187828793876F817885C1
:10161000882777FD8095982F0E94062820E030E0EB
:1016200040E858E30E940829F80164877587868797
:1016300097878F2D28960FB6F894DEBF0FBECDBFCB
:10164000DF91CF911F910F91FF9008954F925F927C
:101650006F927F928F929F92AF92BF92CF92DF92C2
:10166000EF92FF920F931F93CF93DF93CDB7DEB727
:1016700028970FB6F894DEBF0FBECDBF8B01DA01FD
:101680001496CD90DD90ED90FC9017971C964D90A0
:101690005D906D907C901F978D909D90AD90BC90CB
:1016A000139718968D919D910D90BC91A02D8983D3
:1016B0009A83AB83BC83A3019201C701B6010E9448
:1016C00008296D837E838F83988729813A814B8196
:1016D0005C81C501B4010E9408299B01AC016D81A8
:1016E0007E818F8198850E94A1269B01AC010E947A
:1016F000A226F8016083718382839383A7019601F8
:10170000C501B4010E9408296D837E838F83988769
:10171000A301920169817A818B819C810E940829B1
:101720009B01AC016D817E818F8198850E94A226EC
:101730009B01AC010E94A226D80114966D937D9363
:101740008D939C931797A5019401C501B4010E9444
:1017500008294B015C01A7019601C701B6010E944F
:1017600008299B01AC01C501B4010E94A1266B01AF
:101770007C0129813A814B815C81CA01B9010E94B7
:1017800008299B01AC01C701B6010E94A1266B018B
:101790007C01A3019201C301B2010E9408299B01AF
:1017A000AC01C701B6010E94A226F80160877187CB
:1017B0008287938780E028960FB6F894DEBF0FBE2D
:1017C000CDBFDF91CF911F910F91FF90EF90DF90F0
:1017D000CF90BF90AF909F908F907F906F905F90D1
:1017E0004F9008952F923F924F925F926F927F9207
:1017F0008F929F92AF92BF92CF92DF92EF92FF9221
:101800000F931F93CF93DF9300D000D000D0CDB7BC
:10181000DEB71B018A013E832D83FA01C080D1808F
:10182000E280F380A7019601C701B6010E94A226BB
:1018300069837A838B839C83F80184809580A6805A
:10184000B780A5019401C501B4010E94A2262B0115
:101850003C01A701960169817A818B819C810E945C
:1018600008296B017C01A5019401C301B2010E940A
:1018700008299B01AC01C701B6010E94A22620E005
:1018800030E040E85FE30E94A1266B017C01F80193
:101890002085318542855385C301B2010E94082904
:1018A0002B013C01F80124853585468557856981E2
:1018B0007A818B819C810E9408299B01AC01C30124
:1018C000B2010E94A126A70196010E941527F101ED
:1018D0006083718382839383ED81FE81648175814E
:1018E00086819781C084D184E284F3849B01AC011A
:1018F0000E9408294B015C01A7019601C701B601AE
:101900000E9408299B01AC01C501B4010E94A226D6
:101910000E9475299B01AC01ED81FE81608171817E
:10192000828193810E946B270E944027F10164838A
:10193000758386839783ED81FE81608171818281C9
:101940009381C084D184E284F3849B01AC010E9422
:1019500008294B015C01A7019601C701B6010E944D
:1019600008299B01AC01C501B4010E94A2260E9476
:1019700075299B01AC01ED81FE81648175818681B1
:1019800097810E946B270E944027F1016087718731
:101990008287938780E026960FB6F894DEBF0FBE4D
:1019A000CDBFDF91CF911F910F91FF90EF90DF900E
:1019B000CF90BF90AF909F908F907F906F905F90EF
:1019C0004F903F902F900895AF92BF92CF92DF92A9
:1019D000EF92FF920F931F93CF93DF938091F701C4
:1019E000882309F470C18091F1019091F201209156
:1019F000F3013091F40140916E01411103C082174F
:101A00009307C8F310926E0186E292E00E94E91AF1
:101A10008093F60186E292E00E94441B9093F201CB
:101A20008093F1012091F60124FD03C081159440BB
:101A3000A1F486E292E00E94091B64EB70E08AE068
:101A400093E0DF91CF911F910F91FF90EF90DF9086
:101A5000CF90BF90AF900C94DA2521FF34C1409114
:101A6000F3015091F4018091F1019091F2018417FA
:101A7000950748F486E292E00E94441B9093F2019D
:101A80008093F101ECCF61EB71E086E292E00E947D
:101A9000601B86E292E00E94091B8091F101909107
:101AA000F2012091F3013091F401821B930B90938A
:101AB000F2018093F10141EB51E061EA71E086E2CD
:101AC00092E00E94B70A41EA51E063E871E086E2E1
:101AD00092E00E94260B23E831E041EA51E067E7FB
:101AE00071E086E292E00E94F20B20E030E044E3F5
:101AF00053E460917B0170917C0180917D01909114
:101B00007E010E9408292BED3FE049E450E40E9449
:101B10006B276B017C0160937B0170937C01809348
:101B20007D0190937E0120E030E044E353E4609136
:101B30007F017091800180918101909182010E94CA
:101B400008292BED3FE049E450E40E946B272BE786
:101B500034E14EEA5FE30E94082960937F017093AD
:101B600080018093810190938201C701B6010E9498
:101B7000D3271F921F9221E02F9328E62F93A12CA9
:101B8000B12C65011CE8E12EF12C00E010E024E707
:101B90003FEF4FEF5FEF0E945926882777FD809532
:101BA000982F0E9406282CED3FE049E450E40E9463
:101BB000082920E030E044E353E40E946B276B01E6
:101BC0007C010E94682720E030E044EB52E40E9450
:101BD00008299B01AC0160E070E080E293E40E9480
:101BE000A1260E94D327EB017093760160937501C3
:101BF000C701B6010E946B2920E030E044EB52E4BB
:101C00000E9408299B01AC0160E070E080EF92E443
:101C10000E94A1260E94D3277093740160937301E0
:101C200060917101709172010F900F900F900F9061
:101C30006C177D0709F447C040916F015091700106
:101C4000E091F801F091F901A0EFCA2ED12C8601A4
:101C5000041B150BC0E4D1E09E01261B370B068048
:101C6000F781E02DEE24EA94FE2C88EF91E00995AF
:101C700040917301509174016091750170917601EA
:101C8000E091F801F091F9018601041B150B9E010A
:101C9000261B370B0680F781E02DE12CC8EFFC2EC8
:101CA00088EF91E00995809175019091760190936C
:101CB00072018093710180917301909174019093EE
:101CC000700180936F01DF91CF911F910F91FF9071
:101CD000EF90DF90CF90BF90AF90089586E292E0B2
:101CE0000E94891A2FEF49E06AE088EF91E00E9494
:101CF000D70F80E090E0A0E8BFE38093A10190932C
:101D0000A201A093A301B093A4011092A501109287
:101D1000A6011092A7011092A8011092A901109299
:101D2000AA011092AB011092AC011092AD01109279
:101D3000AE011092AF011092B00110929C0110926E
:101D40009B0110929E0110929D011092A001109291
:101D50009F01109296011092950110929801109295
:101D6000970110929A01109299011092900110928D
:101D70008F01109292011092910110929401109291
:101D800093011092830110928401109285011092A8
:101D90008601109287011092880110928901109299
:101DA0008A0110928B0110928C0110928D01109279
:101DB0008E01089588EF91E00E9492108DE392E0E9
:101DC0000E94401F88E18093B80026E040E052EC7A
:101DD00061E070E08AE093E00E945C2469EC71E0CD
:101DE0008AE093E00E94DA2586E292E00E94301BAE
:101DF0006BEA71E08AE093E00E94DA2586E292E0E5
:101E00000E94901B882319F06DE871E002C063E71F
:101E100071E08AE093E00E94DA2560ED77E080E0EF
:101E200090E00E947C226FE571E08AE093E00E94DE
:101E3000DA2586E292E00E9405088093F5016CEDB8
:101E400070E086E292E00E941A1C6CE470E086E288
:101E500092E00E94201C6BEA7FEF86E292E00E94F3
:101E6000261C6CEF76E086E292E00E94141C8091C2
:101E7000F501811130C06FE471E08AE093E00E94C7
:101E8000DA2561E086E292E00E942C1C60E171E0BC
:101E90008AE093E00E94DA2543E050E061E078E0D8
:101EA00080E00E94892186E292E00E94E91A8093F4
:101EB000F60166EE70E08AE093E00E94DA2581E0A8
:101EC0008093F70180912802909129029093F40168
:101ED0008093F30114C065EC70E08AE093E00E9407
:101EE000B1254AE050E06091F5018AE093E00E945C
:101EF000522663EC70E08AE093E00E94DA2561E00C
:101F00008DE00E94082361E088EF91E00E94721545
:101F10006FEF7FEF88EF91E00C948E0FEF92FF92BE
:101F20000F931F93DC01ED91FC9111971A960D917F
:101F30001C911B9718962D913C9119970684F78553
:101F4000E02D7B0140E050E060E070E009951F91DA
:101F50000F91FF90EF90089520913B02222399F07A
:101F60003FB7F89420913B02213059F42DB32093D0
:101F700039024DB320913A02209524232DBB3FBF57
:101F800002C0309339028CBD9DBD089580913B0203
:101F9000882361F09FB7F89420913B028091390229
:101FA000213019F48DBB9FBF08958FBF0895EF9224
:101FB000FF920F931F93CF93DF931F92CDB7DEB79E
:101FC0007C01062F142F40E451E060EF70E029837C
:101FD0000E94391780E191E0F7019183808304A387
:101FE00015A3298126A381E0808F11A617A20F9047
:101FF000DF91CF911F910F91FF90EF900895FC0119
:10200000808D811122C088E090E030E8A28DB38DF0
:1020100022A5432F462321F04C91422B4C9304C020
:102020004C91209524232C93A48DB58D2C9143A500
:10203000242B2C93A48DB58D4C9123A5209524237E
:102040002C933695019711F708958CB5918D9CBD11
:102050006EBD0DB407FEFDCF8CBD0895CF93DF9309
:10206000EC01EE8DFF8D90818DA580958923808375
:10207000EAA1FBA190818CA5809589238083CE0164
:102080000E94FF0FEAA1FBA180819CA5892B808380
:10209000DF91CF9108950F931F93CF93DF931F92FA
:1020A000CDB7DEB78C01FC01808D882331F080E54F
:1020B00091E069830E94AC0F6981662311F061E2AF
:1020C00001C060E2C8010E942E10F801808D8823B3
:1020D00039F00F90DF91CF911F910F910C94C60FA3
:1020E0000F90DF91CF911F910F910895CF93DF93C0
:1020F000EC01EE8DFF8D80819DA5892B8083EAA167
:10210000FBA190818CA5809589238083CE010E94BC
:10211000FF0FEAA1FBA180819CA5892B8083DF9121
:10212000CF910895CF93DF93EC018EA118163CF464
:1021300061E00E94082360E08EA10E94412361E0DB
:102140008DA10E94082361E08CA10E9408238CA12C
:10215000992787FD9095FC01E058F04FE491F0E05D
:10216000EE0FFF1FEC56F04F259134913BA32AA3AD
:10217000FC01E459F04F84918CA78DA1992787FD2C
:102180009095FC01E058F04FE491F0E0EE0FFF1F56
:10219000EC56F04F259134913F8F2E8FFC01E4597E
:1021A000F04F84918DA7888D882389F00E94731E3B
:1021B0008CB58C7F8CBD8DB581608DBD8CB58F7DD0
:1021C0008CBD8CB5837F8CBD8CB5898F44C061E09C
:1021D00089A50E94082361E08FA10E94082360E086
:1021E00088A50E94082389A5992787FD9095FC0161
:1021F000E058F04FE491F0E0EE0FFF1FEC56F04F87
:10220000A591B491BD8FAC8FFC01E459F04F84913E
:102210008BA78FA1992787FD9095FC01E058F04F7F
:10222000E491F0E0EE0FFF1FEC56F04F2591349152
:102230003B8F2A8FFC01E459F04F84918AA78C913F
:102240009BA5909589238C93EA8DFB8D90818AA51F
:102250008095892380838EA11816ECF461E00E949A
:10226000412365E070E080E090E00E947C2260E025
:102270008EA10E94412364E170E080E090E00E9422
:102280007C2261E08EA10E94412366E970E080E03B
:1022900090E00E947C22888D882321F080E591E0E7
:1022A0000E94AC0F6FEECE010E942E1063E0CE01B3
:1022B0000E94761060E8CE010E94761062E0CE01A6
:1022C0000E9476106FECCE010E942E1060E0CE01CD
:1022D0000E94761061ECCE010E94761060E3CE0180
:1022E0000E9476106DEECE010E942E1064E6CE01A3
:1022F0000E94761063E0CE010E94761062E1CE016A
:102300000E94761061E8CE010E94761068EECE0140
:102310000E942E1065E8CE010E94761060E0CE018A
:102320000E94761068E7CE010E9476106BECCE0119
:102330000E942E1069E3CE010E9476106CE2CE015D
:102340000E94761060E0CE010E94761064E3CE0118
:102350000E94761062E0CE010E94761067EFCE01F7
:102360000E942E1060E2CE010E9476106AEECE012D
:102370000E942E1060E0CE010E94761060E0CE0137
:102380000E94761060ECCE010E942E1063E2CE0116
:102390000E94761061ECCE010E942E1060E1CE0109
:1023A0000E94761065ECCE010E942E106EE3CE01E5
:1023B0000E94761068E2CE010E94761067ECCE0192
:1023C0000E942E1066E8CE010E94761066E3CE01D0
:1023D0000E942E1068E4CE010E9476106AE3CE01BE
:1023E0000E942E1065E5CE010E94761061EBCE01B1
:1023F0000E942E1060E0CE010E94761068E1CE01AE
:102400000E94761066EBCE010E942E1068E0CE018D
:102410000E94761062E8CE010E94761067E2CE013B
:102420000E94761062EFCE010E942E1060E0CE0175
:102430000E94761066E2CE010E942E1061E0CE016D
:102440000E94761060EECE010E942E106FE0CE0149
:102450000E94761061E3CE010E9476106BE2CE01FD
:102460000E9476106CE0CE010E9476106EE0CE01E4
:102470000E94761068E0CE010E9476106EE4CE01D4
:102480000E94761061EFCE010E94761067E3CE01C4
:102490000E94761067E0CE010E94761060E1CE01C6
:1024A0000E94761063E0CE010E9476106EE0CE01AD
:1024B0000E94761069E0CE010E94761060E0CE01A5
:1024C0000E94761061EECE010E942E1060E0CE01D7
:1024D0000E9476106EE0CE010E94761064E1CE017B
:1024E0000E94761063E0CE010E94761061E1CE0179
:1024F0000E94761067E0CE010E94761061E3CE0163
:102500000E94761061ECCE010E94761068E4CE0144
:102510000E94761068E0CE010E9476106FE0CE0136
:102520000E9476106CE0CE010E94761061E3CE012D
:102530000E94761066E3CE010E9476106FE0CE0115
:102540000E94761061E1CE010E942E10888D8111CB
:102550000E94C60F68E770E080E090E00E947C2255
:10256000888D882321F080E591E00E94AC0F69E21C
:10257000CE010E942E10888D882321F0DF91CF910B
:102580000C94C60FDF91CF910895CF92DF92FF9206
:102590000F931F93CF93DF9300D000D01F92CDB73E
:1025A000DEB76C01F62E6AE22B833A834D835C839F
:1025B00079830E942E107981672FC6010E947610C0
:1025C0006F2DC6010E9476103A81632FC6010E94CA
:1025D00076102B81622FC6010E9476106BE2C60135
:1025E0000E942E105C81652FC6010E9476104D81DD
:1025F000642FC6010E947610612FC6010E947610DA
:10260000602FC6010E9476106CE2C6010F900F90F9
:102610000F900F900F90DF91CF911F910F91FF902E
:10262000DF90CF900C942E10AF92BF92CF92DF929A
:10263000EF92FF920F931F93CF93DF9300D0CDB70C
:10264000DEB75C017B01D22EC32E77FD63C0DC01B7
:1026500018968D919C911997681779070CF05AC0BC
:1026600057FD58C01A968D919C911B974817590792
:102670000CF050C058968C91882341F080E591E091
:1026800049835A830E94AC0F5A8149818A010F5FA6
:102690001F4F97012F5F3F4FB701C5010E94C51221
:1026A000D5015E96ED91FC915F9780819D969C91FE
:1026B0009D97892B80839296ED91FC9193979081C1
:1026C0009C968C918095892380836C2DC5010E94F6
:1026D000FF0F6D2DC5010E94FF0FD5019296ED9160
:1026E000FC91939780819C969C919C97892B8083E9
:1026F00058968C91882371F00F900F90DF91CF91B5
:102700001F910F91FF90EF90DF90CF90BF90AF900F
:102710000C94C60F0F900F90DF91CF911F910F91E6
:10272000FF90EF90DF90CF90BF90AF9008958F9281
:102730009F92AF92BF92CF92DF92EF92FF920F9350
:102740001F93CF93DF9300D0CDB7DEB74C016B0161
:102750007901B02EA12EDC0118968D919C911997CC
:10276000681779070CF06AC01A968D919C911B9797
:10277000481759070CF062C09A012E0D3F1D8217B1
:1027800093071CF47C01E41AF50AF401808D882378
:1027900041F080E591E049835A830E94AC0F5A8151
:1027A00049818A010E0D1F1D015011099601B601C4
:1027B000C4010E94C512D4015E96ED91FC915F9711
:1027C00080819D969C919D97892B80839296ED9117
:1027D000FC91939790819C968C918095892380831E
:1027E000E114F10461F06A2DC4010E94FF0F6B2D0A
:1027F000C4010E94FF0FB1E0EB1AF108F1CFD40140
:102800009296ED91FC91939780819C969C919C97D8
:10281000892B808358968C91882381F00F900F909C
:10282000DF91CF911F910F91FF90EF90DF90CF90AC
:10283000BF90AF909F908F900C94C60F0F900F9009
:10284000DF91CF911F910F91FF90EF90DF90CF908C
:10285000BF90AF909F908F9008958F929F92AF926C
:10286000BF92CF92DF92EF92FF920F931F93CF937D
:10287000DF9300D0CDB7DEB74C017B016901B02EEC
:10288000A12EDC0118968D919C91199768177907F4
:102890000CF06AC01A962D913C911B974217530772
:1028A0000CF062C09B012C0D3D1D821793071CF498
:1028B0006C01C61AD70AF401808D882341F080E5A7
:1028C00091E049835A830E94AC0F5A814981970154
:1028D0002C0D3D1D215031098A01B701C4010E9410
:1028E000C512D4015E96ED91FC915F9780819D9613
:1028F0009C919D97892B80839296ED91FC91939763
:1029000090819C968C91809589238083C114D104F9
:1029100061F06A2DC4010E94FF0F6B2DC4010E945B
:10292000FF0FB1E0CB1AD108F1CFD4019296ED910F
:10293000FC91939780819C969C919C97892B808396
:1029400058968C91882381F00F900F90DF91CF9152
:102950001F910F91FF90EF90DF90CF90BF90AF90BD
:102960009F908F900C94C60F0F900F90DF91CF9196
:102970001F910F91FF90EF90DF90CF90BF90AF909D
:102980009F908F9008956F927F928F929F92AF92B7
:10299000BF92CF92DF92EF92FF920F931F93CF934C
:1029A000DF9300D0CDB7DEB73C016B015901480180
:1029B000DC0118962D913C911997621773070CF062
:1029C00080C01A968D919C911B97481759070CF05F
:1029D00078C06A0D7B1D261737071CF45901AC1807
:1029E000BD089A01280D391D821793071CF44C016C
:1029F000841A950AF301808D882341F080E591E0E7
:102A000049835A830E94AC0F5A8149818A01080D7B
:102A1000191D0150110996012A0D3B1D2150310944
:102A2000B601C3010E94C512D3015E96ED91FC91DF
:102A30005F9780819D969C919D97892B808392962C
:102A4000ED91FC91939790819C968C918095892330
:102A5000808318141904A4F465011C141D0464F483
:102A60006F2DC3010E94FF0F6E2DC3010E94FF0F47
:102A7000B1E0CB1AD108F1CFE1E08E1A9108E9CF8D
:102A8000D3019296ED91FC91939780819C969C91B5
:102A90009C97892B808358968C91882391F00F9076
:102AA0000F90DF91CF911F910F91FF90EF90DF90EA
:102AB000CF90BF90AF909F908F907F906F900C942D
:102AC000C60F0F900F90DF91CF911F910F91FF9044
:102AD000EF90DF90CF90BF90AF909F908F907F90BE
:102AE0006F9008951F93CF93DF93EC01162F888D7D
:102AF000882321F080E591E00E94AC0F66E3CE01CF
:102B00000E942E10612F63706D8B623041F0633034
:102B100089F0613011F068E403C068E20CC068E835
:102B2000CE010E94761080EF90E09987888780E43C
:102B300091E00AC068EECE010E94761080E491E038
:102B40009987888780EF90E09B878A87888D882384
:102B500029F0DF91CF911F910C94C60FDF91CF9197
:102B60001F9108952F923F924F925F926F927F92A2
:102B70008F929F92AF92BF92CF92DF92EF92FF928D
:102B80000F931F93CF93DF9300D000D0CDB7DEB764
:102B90004C017C836B836A015901C8018701AC0138
:102BA0004C195D0957FF03C0519541955109950195
:102BB0006B817C81261B370B37FF03C03195219534
:102BC000310922242394312C2417350714F0212CA9
:102BD000312C2114310459F03A2D2B2D5C01832F17
:102BE000922F3B812C81DC82CB82C32ED22EAB81F3
:102BF000BC81AA16BB065CF43C2D2D2D6C01832FE5
:102C0000922F3B812C81BC82AB82A32EB22E250158
:102C1000EB81FC814E1A5F0A3C016C187D0877FE3F
:102C200003C0719461947108720157FE03C0FFEFF5
:102C3000EF1AFF0AF594E794C816D9062CF421E0A0
:102C400030E03A83298324C06FEF7FEF7A83698372
:102C50001FC0D401ED91FC910480F581E02D980115
:102C600021143104D9F04B815C81B601C40109956E
:102C7000E618F708F7FE06C0E981FA81CE0EDF1EDE
:102C8000E40CF51C2B813C812F5F3F4F3C832B8351
:102C90006B817C81A616B706E4F604C0A6016B81A1
:102CA0007C81E4CF0F900F900F900F90DF91CF9128
:102CB0001F910F91FF90EF90DF90CF90BF90AF905A
:102CC0009F908F907F906F905F904F903F902F904C
:102CD00008956F927F928F929F92AF92BF92CF9200
:102CE000DF92EF92FF920F931F93CF93DF93EC014C
:102CF0005B016A0139014801E881F9810284F385A9
:102D0000E02D87010995E881F981A601480D591D3B
:102D1000415051090284F385E02D9301B501CE01A4
:102D20000995E881F9810084F185E02D9401A601DF
:102D3000B501CE010995E881F981B501660D771DD0
:102D4000615071090084F185E02D9401A601CE0146
:102D50000995DF91CF911F910F91FF90EF90DF9038
:102D6000CF90BF90AF909F908F907F906F9008957D
:102D7000EF92FF920F931F93DC01ED91FC91240FD2
:102D8000351F215031090680F781E02D7801890136
:102D90009B0109951F910F91FF90EF900895EF927D
:102DA000FF920F931F93DC01ED91FC91260F371FCB
:102DB000215031090680F781E02D78018A010995BB
:102DC0001F910F91FF90EF9008956F927F928F92D5
:102DD0009F92AF92BF92CF92DF92EF92FF920F93AA
:102DE0001F93CF93DF935C014A0169013801EB0126
:102DF000C60ED71ECC15DD0574F4D501ED91FC91FE
:102E00000084F185E02D87019301A401BE01C50175
:102E100009952196EFCFDF91CF911F910F91FF90F0
:102E2000EF90DF90CF90BF90AF909F908F907F906A
:102E30006F900895EF92FF920F931F93DC01ED9135
:102E4000FC9111971A960D911C911B9718962D9134
:102E50003C9119970684F785E02D7B0140E050E016
:102E600060E070E009951F910F91FF90EF90089539
:102E70000895FC011382128288E291E0918380839D
:102E8000758364835783468371876087538742873E
:102E9000158A158614861786168621E0248B8FEFF7
:102EA0009FEF938B828B918B808B268B08952F9233
:102EB0003F924F925F926F927F928F929F92AF92CA
:102EC000BF92CF92DF92EF92FF920F931F93CF9317
:102ED000DF93CDB7DEB72C970FB6F894DEBF0FBEE9
:102EE000CDBF9C878B873A0118870F83FA86E986C6
:102EF000CD82DC0118968D919C91199768177907FE
:102F00000CF094C01A968D919C911B974817590705
:102F10000CF08CC08C2C912CCB01B6E0CB9E800D9C
:102F2000911D1124181619060CF080C0C40153E03D
:102F3000880F991F5A95E1F7860D971D18161906E7
:102F40000CF074C0F5E02F9F200111245B016B0190
:102F50001C829201235A354F2901461A570A3C8197
:102F6000353031F0F201EA0DFB1D44914B8301C075
:102F70001B827A82698213011E828B8180FF13C0BB
:102F8000AB85BC85ED91FC91BD81B13031F40480FD
:102F9000F581E02D2F81388519C00684F785E02D55
:102FA000EF80F8841EC0E985FA852F813885E21705
:102FB000F307F9F0AB85BC85ED91FC91BD81B13093
:102FC00059F40480F581E02D29853A85A101B501E8
:102FD0008B859C8509950DC00684F785E02DE984D5
:102FE000FA848401940149815A81B6018B859C85BC
:102FF0000995EB81E695EB83FE81FF5FFE832981D6
:103000003A81280D391D3A8329833FEF231A330A69
:10301000F83009F0B2CF4C814F5F4C83C80CD91CFB
:103020008FEFA81AB80A463009F099CF2C960FB640
:10303000F894DEBF0FBECDBFDF91CF911F910F91EE
:10304000FF90EF90DF90CF90BF90AF909F908F90C8
:103050007F906F905F904F903F902F900895CF9208
:10306000EF92FF920F931F93CF93DF93EC01262FE4
:103070006A3049F42C898E859F8538E0239F800D26
:10308000911D112432C06D30A1F1EA88FB880889B6
:1030900019894E855F856C857D85CC880E94571780
:1030A0002C89422F50E08C859D8536E0239F800D32
:1030B000911D11249D878C872E892223D1F06AEFE0
:1030C00064039001659F300D112468857985260F72
:1030D000371F281739076CF463E0440F551F6A95B2
:1030E000E1F78E859F85840F951F9F878E871D86AC
:1030F0001C8681E090E0DF91CF911F910F91FF90AE
:10310000EF90CF900895EF92FF920F931F93CF937C
:10311000DF9300D0CDB7DEB7062F142F682F8DE3D5
:1031200092E029833A830E945A1F602F8DE392E038
:103130000E94011F2981022FE22E3A81F32E8E2D4B
:10314000801B811740F4F70161917F018DE392E0CC
:103150000E94011FF4CF8DE392E00E94771F91E05F
:10316000811190E0892F0F900F90DF91CF911F91E7
:103170000F91FF90EF900895CF93DF931F92CDB7FB
:10318000DEB749839E012F5F3F4F41E00E948318C5
:103190000F90DF91CF910895DF92EF92FF920F93FE
:1031A0001F93CF93DF93C62F042F7901682F8DE3F0
:1031B00092E00E945A1F6C2F8DE392E00E94011F43
:1031C00010E0000F111FD12CCD2DD0E0C017D1077A
:1031D0008CF4CC0FDD1FCE0DDF1D69818DE392E0F5
:1031E0000E94011F68818DE392E00E94011FD39429
:1031F000D394EACF8DE392E00E94771F91E0811192
:1032000090E0892FDF91CF911F910F91FF90EF9068
:10321000DF900895CF93DF9300D0CDB7DEB75A8308
:1032200049839E012F5F3F4F41E00E94CC180F90D1
:103230000F90DF91CF9108953F924F925F926F92DE
:103240007F928F929F92AF92BF92CF92DF92EF9236
:10325000FF920F931F93CF93DF9300D000D000D045
:10326000CDB7DEB7682E562E742E3A8329830E947E
:103270004D226B017C01312C412C872D90E09C83E9
:103280008B834801A12CB12C3714B0F5662D8DE34A
:1032900092E00E945A1F652D8DE392E00E94011F6B
:1032A0008DE392E00E94771F662D8DE392E00E94ED
:1032B0005A1F4B815C81431951094132510514F069
:1032C00040E250E0662D8DE392E00E94571F8DE3AF
:1032D00092E00E94A91E892B59F10115110579F17F
:1032E0000E944D226C197D098E099F096815790588
:1032F0008A059B0520F11CC00115110589F10E946A
:103300004D226C197D098E099F0920E030E060177D
:1033100071078207930720F1872D90E0242D332732
:1033200027FD309528173907DCF444244A9418C047
:10333000872D90E2971508F480E2380EA5CFE98139
:10334000FA81E40DF11D47FCFA95FE83ED838DE3D0
:1033500092E00E94B11EED81FE8180834394B7CF3D
:10336000842D26960FB6F894DEBF0FBECDBFDF9139
:10337000CF911F910F91FF90EF90DF90CF90BF9072
:10338000AF909F908F907F906F905F904F903F9005
:1033900008950F931F9389019A0141E00E941C191F
:1033A0001F910F910895CF92DF92EF92FF920F93AA
:1033B0001F93CF93DF931F92CDB7DEB7C42ED22ECB
:1033C0009701AE014F5F5F4F0E94C9198823F1F04A
:1033D0004C2D50E04D1951094F5F5F4F61E070E097
:1033E00002C0660F771FDA94E2F761507109042E6C
:1033F00001C0660F0A94EAF72981262330E002C053
:10340000359527954A95E2F7F80120830F90DF91D3
:10341000CF911F910F91FF90EF90DF90CF90089583
:10342000EF92FF920F931F93CF93DF931F92CDB72D
:10343000DEB7182F062FF42EE22E20910A013091CC
:103440000B01AE014F5F5F4F0E94C919898121E0D6
:1034500030E00F2C01C0220F0A94EAF7EE2019F099
:10346000482F422B03C0422F409548234983602FA9
:10347000812F0E94BC180F90DF91CF911F910F9167
:10348000FF90EF900895DF92EF92FF920F931F93BA
:10349000CF93DF931F92CDB7DEB7F82EE62ED42E52
:1034A000122F20910A0130910B01AE014F5F5F4F47
:1034B0000E94C919882319F14D2D50E0411B510973
:1034C0004F5F5F4FE1E0F0E002C0EE0FFF1F1A9583
:1034D000E2F73197042E01C0EE0F0A94EAF701C01B
:1034E000000F4A95EAF74E2F409589814823E02343
:1034F0004E2B49836E2D8F2D0E94BC1801C080E099
:103500000F90DF91CF911F910F91FF90EF90DF907F
:10351000089528E6FC0120830895462F69E1FC0107
:1035200080810C94BC180F93062F23E045E06AE1DC
:10353000FC0180810E94431A0F9108950F93062F7A
:1035400023E042E06AE1FC0180810E94431A0F916E
:1035500008950F93062F22E044E06BE1FC01808187
:103560000E94431A0F9108950F93062F22E044E022
:103570006CE1FC0180810E94431A0F910895462F4F
:103580006FE1FC0180810C94BC18462F60E2FC01C5
:1035900080810C94BC18462F61E2FC0180810C9460
:1035A000BC18462F62E2FC0180810C94BC18643088
:1035B00048F4262F220F260F2B5D622FFC018081FD
:1035C0000C94BC180895462F68E3FC0180810C948C
:1035D000BC18CF93DF93EC0120910A0130910B01CD
:1035E000AC014F5F5F4F6AE388810E94C9198981EE
:1035F000DF91CF910895262F46E06AE6FC01808195
:103600000C94101A262F45E06AE6FC0180810C9488
:10361000101A21E042E06AE6FC0180810C94101A45
:1036200021E041E06AE6FC0180810C94101A21E05F
:1036300047E06BE6FC0180810C94101A262F46E0CF
:103640006BE6FC0180810C94101A0F93062F23E087
:1036500042E06BE6FC0180810E94431A0F910895BD
:10366000CF93DF93EC0161E00E94251B60E0CE0167
:103670000E94A91A60E0CE010E94B41A60E0CE0157
:10368000DF91CF910C941E1B0F931F93CF93DF9369
:10369000EC0100910A0110910B019C012F5F3F4F3B
:1036A00042E062E788810E941C19898190E0982F8E
:1036B00088272A81822BDF91CF911F910F91089546
:1036C0000F931F939B01442351F000910A01109125
:1036D0000B0164E7FC0180810E941C1902C0FB0100
:1036E00010821F910F910895EF92FF920F931F93F5
:1036F000CF93DF93EC01E0900A01F0900B018C0175
:103700000F5F1F4F26E046E065E788810E94D319CE
:103710008981DF91CF911F910F91FF90EF900895D4
:103720000E94741B91E0843309F090E0892F089582
:10373000262F40E060E0FC0180810C94101AEF928B
:10374000FF920F931F93CF93DF93EC01E0900A0158
:10375000F0900B018C010F5F1F4F26E046E060E008
:1037600088810E94D3198981DF91CF911F910F9198
:10377000FF90EF9008950F93062F26E046E060E05B
:10378000FC0180810E94431A0F910895EF92FF92ED
:103790000F931F93CF93DF93EC01E0900A01F09019
:1037A0000B018C010F5F1F4F26E046E061E088812E
:1037B0000E94D3198981DF91CF911F910F91FF90C2
:1037C000EF9008950F93062F26E046E061E0FC019C
:1037D00080810E94431A0F910895EF92FF920F93F8
:1037E0001F93CF93DF93EC01E0900A01F0900B015F
:1037F0008C010F5F1F4F26E046E062E088810E9447
:10380000D3198981DF91CF911F910F91FF90EF9094
:1038100008950F93062F26E046E062E0FC018081C8
:103820000E94431A0F910895AB016AE0FC01808168
:103830000C940A19AB0163E1FC0180810C940A1914
:10384000AB0165E1FC0180810C940A19AB0167E1D1
:10385000FC0180810C940A19262F47E06AE6FC01DE
:1038600080810C94101A21E043E06AE6FC0180811B
:103870000C94101A6F712111606241116064462F1F
:103880006DE6FC0180810C94BC18462F6EE6FC01AD
:1038900080810C94BC185F926F927F928F929F925E
:1038A000AF92BF92CF92DF92EF92FF920F931F934E
:1038B000CF93DF937C015B016A01622E702E20E0C2
:1038C00040E0662D0E943A1C602FC7010E94451CF3
:1038D000C0E0D0E0812C99249394CC15DD05A8F5A7
:1038E000CE014096C816D90618F45C2C5C1A02C0AA
:1038F000A0E15A2E252D30E0C401871991098217C5
:10390000930714F4572C519400910A0110910B0164
:1039100095012C0F3D1F452D6FE6F70180810E9418
:103920001C19C50DD11D750CCC15DD05B0F6711037
:1039300001C0639420E040E0662DC7010E943A1C5C
:10394000672DC7010E94451CC8CFDF91CF911F9101
:103950000F91FF90EF90DF90CF90BF90AF909F902E
:103960008F907F906F905F9008952F923F924F922B
:103970005F926F927F928F929F92AF92BF92CF92FF
:10398000DF92EF92FF920F931F93CF93DF9300D0BC
:1039900000D01F92CDB7DEB79D838C837B836A8373
:1039A0004A01322ED02EE98220E040E0632D0E94B1
:1039B0003A1C602F8C819D810E94451CE980EE207D
:1039C00029F080E190E00E943C2A5C01CC2039F093
:1039D00080E190E00E943C2A582E292E02C0512CF2
:1039E000212CE12CF12CE814F90408F07AC0C7016D
:1039F00040968816990618F4482C4E1802C010E11B
:103A0000412E242D30E080E091E08D19910982173C
:103A1000930714F44D2C4194EA81FB81EE0DFF1DB8
:103A2000CC2059F0852DA52DB22D9A2F981B9415D9
:103A300030F494919D933196F8CF5E2E2F2E252D44
:103A4000322D442D6FE6AC81BD818C910E9483188C
:103A5000642C712CB981BB2369F1A114B10451F11B
:103A600020E040E0632D8C819D810E943A1C6D2DE9
:103A70008C819D810E94451C00910A0110910B01CF
:103A80009501442D6FE6EC81FD8180810E941C1917
:103A9000A301B501852D922D0E94322C892B51F066
:103AA000C5010E94D42ACC2049F1852D922D0E9477
:103AB000D42A24C0E60CF71CD40CE814F90408F04E
:103AC00092CFD11001C0339420E040E0632D8C816F
:103AD0009D810E943A1C6D2D8C819D810E94451C08
:103AE00082CFF981FF2319F0C5010E94D42ACC208E
:103AF00039F0852D922D0E94D42A02C080E001C0A9
:103B000081E00F900F900F900F900F90DF91CF9169
:103B10001F910F91FF90EF90DF90CF90BF90AF90EB
:103B20009F908F907F906F905F904F903F902F90DD
:103B30000895CF92EF920F93CC24C3940E94B51CAA
:103B40000F91EF90CF9008952F923F924F925F92F6
:103B50006F927F928F929F92AF92BF92CF92DF929D
:103B6000EF92FF920F931F93CF93DF9300D01F929A
:103B7000CDB7DEB74C017B836A833A01D22E222374
:103B800039F088E090E00E943C2A182FF92E02C0FC
:103B900010E0F12C212C312C2614370408F051C0F0
:103BA000EA81FB81E20DF31DC10103965C01DD207A
:103BB000C1F04491F10131968A819B81E80FF91F90
:103BC0000491F1013296E80FF91F5490511044C04E
:103BD000F4E02F0E311CEA81FB81EA0DFB1D84917C
:103BE0000DC0408101815280EA81FB81E80FF91FFD
:103BF00051100DC084E0280E311C80818130D1F439
:103C000042E368E3F40180810E94BC18C5CF1E2FF7
:103C1000FF2E452C512CC12CEE24E394242FA2011D
:103C2000612F7F2DC4010E94B51C12012A0C3B1C80
:103C30008111B2CFDD2061F0812F9F2D0E94D42A07
:103C400007C0DD2039F0812F9F2D0E94D42A02C0A9
:103C500080E024C081E022C0252C312CF2E0F51553
:103C600048F4B101812F9F2D49830E94632B182FA7
:103C7000F92E4981812F9F2DA0E0B0E02A813B8160
:103C80002A0D3B1DA215B30520F6F901EA0FFB1F13
:103C90005491FC015193CF011196F4CF0F900F90E6
:103CA0000F90DF91CF911F910F91FF90EF90DF90D8
:103CB000CF90BF90AF909F908F907F906F905F90CC
:103CC0004F903F902F90089521E00C94A41D462F13
:103CD00060E7FC0180810C94BC18462F61E7FC0171
:103CE00080810C94BC18CF93CFB7F89480913C029C
:103CF000811127C0EAE8FFE08491E6E7FFE09491B4
:103D0000E82FF0E0EE0FFF1FE256F04FA591B491BF
:103D10008C91892321F461E08AE00E94412361E0D3
:103D20008AE00E9408238CB580618CBD8CB58064CC
:103D30008CBD61E08DE00E94082361E08BE00E9471
:103D4000082380913C028F5F80933C02CFBFCF91CC
:103D5000089580916D0290E020916E02821B91097E
:103D6000089520916E0280916D02281750F4E22F81
:103D7000F0E0E159FD4F808190E02F5F20936E02CB
:103D800008958FEF9FEF0895E0916E0280916D028C
:103D9000E81730F4F0E0E159FD4F808190E008959C
:103DA0008FEF9FEF08950895CF92DF92EF92FF92E9
:103DB0000F931F93CF93DF937C01CB018A01209156
:103DC0004902222389F0EB016B01C40ED51ECC15EC
:103DD000DD0569F06991D701ED91FC910190F081C9
:103DE000E02DC7010995F3CF642F0E943320C8014D
:103DF000DF91CF911F910F91FF90EF90DF90CF90C7
:103E00000895CF93DF931F92CDB7DEB769832091DA
:103E100049022223D1F020914A02203240F021E0D1
:103E200030E0FC013383228380E090E015C0809174
:103E30004B02E82FF0E0E45BFD4F998190838F5FA8
:103E400080934B0280934A0205C061E0CE01019647
:103E50000E94332081E090E00F90DF91CF91089590
:103E6000FC011382128248EE53E060E070E044836C
:103E700055836683778380E491E0918380830895FE
:103E800010926E0210926D0210924B0210924A0232
:103E90000C947E1F862F413208F040E26FE672E0FC
:103EA0000E949C1F10926E0280936D02089521E083
:103EB0000C944A1F81E08093490260936C02109237
:103EC0004B0210924A0208950F93062F21E0409171
:103ED0004A026CE472E080916C020E94E01F109232
:103EE0004B0210924A02109249020F91089561E02C
:103EF0000C94641F8DE392E00C94301F1092FC022E
:103F000081E08093FA021092F90261E082E10E945E
:103F1000412361E083E10E944123E9EBF0E08081ED
:103F20008E7F808380818D7F808388E48093B8003A
:103F300085E48093BC000895413208F03FC0909121
:103F4000FC029111FCCF91E09093FC022093FA02C5
:103F50002FEF20938F021092D402240F2093D302CC
:103F60009093FB029091FB02880F892B8093FB02B8
:103F70008091F902813041F41092F9028091FB02A4
:103F80008093BB0085EC01C085EE8093BC008091DE
:103F9000FC028130E1F38091D402841710F4409147
:103FA000D40225ED32E0FB01D9018A2F821B841750
:103FB00018F48D918193F9CF842F089580E00895AE
:103FC0000F93413208F046C09091FC029111FCCF52
:103FD00092E09093FC020093FA029FEF90938F027D
:103FE0001092D4024093D302FB0165ED72E0DB0135
:103FF0009A2F961B941718F491919D93F9CF1092D4
:10400000FB029091FB02880F892B8093FB02809129
:10401000F902813041F41092F9028091FB02809301
:10402000BB0085EC01C085EE8093BC00222321F00B
:104030008091FC028230E1F380918F028F3F61F02A
:1040400080918F02803251F080918F02803341F451
:1040500083E007C081E005C080E003C082E001C0CA
:1040600084E00F910895613298F42091FC0224308D
:1040700089F46093B102FC0183EB92E0DC012A2F0A
:10408000281B261718F421912D93F9CF80E008956D
:1040900081E0089582E0089585ED8093BC008091D1
:1040A000BC0084FDFCCF1092FC02089585EC809347
:1040B000BC001092FC0208951F920F920FB60F924F
:1040C00011242F933F934F935F936F937F938F931D
:1040D0009F93AF93BF93EF93FF938091B900887F35
:1040E000803609F49CC068F5883209F45BC090F40E
:1040F000803109F454C038F4882309F4F5C08830BD
:1041000009F44DC0F5C0883109F44CC0803209F47F
:104110005DC0EEC0803409F468C048F4803309F40F
:1041200055C0883309F0E4C080938F02A8C0803561
:1041300009F44FC0883509F45DC0883409F0D8C04F
:10414000D5C0883909F4C6C0A8F4883709F467C017
:1041500038F4883609F463C0803709F460C0C8C0F9
:10416000883809F4B7C0803909F45FC0803809F095
:10417000BFC05BC0803B09F485C038F4803A09F4C5
:1041800066C0883A09F47EC0B3C0803C09F4A6C07A
:10419000883C09F4A3C0883B09F489C0A9C0809178
:1041A000FB0210C09091D4028091D302981770F551
:1041B000E091D40281E08E0F8093D402F0E0EB52C4
:1041C000FD4F80818093BB0085EC85C080938F027A
:1041D0008DC0E091D40281E08E0F8093D402809153
:1041E000BB00F0E0EB52FD4F80839091D4028091B0
:1041F000D3026DC0E091D40281E08E0F8093D4028F
:104200008091BB00F0E0EB52FD4F80838091FA0279
:1042100081116CC081E08093F90284EA60C083E080
:104220008093FC0210929002CFCF80919002803256
:1042300008F050C0E091900281E08E0F80939002D0
:104240008091BB00F0E0EF56FD4F8083BDCF8091A1
:104250009002803230F4E0919002F0E0EF56FD4F92
:1042600010820E944C206091900270E0E091F50273
:10427000F091F60281E992E00995109290020E9475
:10428000562036C084E08093FC021092B202109255
:10429000B102E091F702F091F80209958091B10224
:1042A000811105C081E08093B1021092B302E091C8
:1042B000B20281E08E0F8093B202F0E0ED54FD4F28
:1042C00080818093BB009091B2028091B1029817D7
:1042D00008F47ACF85E88093BC000AC085EC80930F
:1042E000BC001092FC0204C010928F020E944C206D
:1042F000FF91EF91BF91AF919F918F917F916F91BE
:104300005F914F913F912F910F900FBE0F901F9093
:1043100018958230E8F4E82FF0E0EE0FFF1FE3502D
:10432000FD4F71836083813041F0809169008C7F03
:10433000842B80936900E89A089580916900440F66
:10434000551F440F551F837F842B80936900E99A82
:1043500008951F920F920FB60F9211242F933F933F
:104360004F935F936F937F938F939F93AF93BF937D
:10437000EF93FF938091FD029091FE02892B29F02B
:10438000E091FD02F091FE020995FF91EF91BF913E
:10439000AF919F918F917F916F915F914F913F91DD
:1043A0002F910F900FBE0F901F9018951F920F9294
:1043B0000FB60F9211242F933F934F935F936F93F8
:1043C0007F938F939F93AF93BF93EF93FF938091CE
:1043D000FF0290910003892B29F0E091FF02F091F8
:1043E00000030995FF91EF91BF91AF919F918F913C
:1043F0007F916F915F914F913F912F910F900FBEE1
:104400000F901F9018951F920F920FB60F921124C4
:104410002F933F938F939F93AF93BF93809102030A
:1044200090910303A0910403B0910503309101031F
:1044300023E0230F2D3720F40196A11DB11D05C0E7
:1044400026E8230F0296A11DB11D2093010380933E
:10445000020390930303A0930403B0930503809198
:10446000060390910703A0910803B09109030196F8
:10447000A11DB11D8093060390930703A093080329
:10448000B0930903BF91AF919F918F913F912F916D
:104490000F900FBE0F901F9018952FB7F894609152
:1044A00002037091030380910403909105032FBFD1
:1044B00008953FB7F8948091060390910703A09167
:1044C0000803B091090326B5A89B05C02F3F19F03A
:1044D0000196A11DB11D3FBF6627782F892F9A2F06
:1044E000620F711D811D911D42E0660F771F881FAD
:1044F000991F4A95D1F70895CF92DF92EF92FF92DC
:10450000CF93DF936B017C010E945922EB01C11410
:10451000D104E104F10489F00E94A0260E945922EE
:104520006C1B7D0B683E734090F381E0C81AD10884
:10453000E108F108C851DC4FEACFDF91CF91FF903D
:10454000EF90DF90CF900895789484B5826084BD19
:1045500084B5816084BD85B5826085BD85B5816087
:1045600085BDEEE6F0E0808181608083E1E8F0E0E7
:104570001082808182608083808181608083E0E816
:10458000F0E0808181608083E1EBF0E080818460F5
:104590008083E0EBF0E0808181608083EAE7F0E0F7
:1045A000808184608083808182608083808181605B
:1045B00080838081806880831092C1000895833059
:1045C00081F028F4813099F08230A1F0089587308D
:1045D000A9F08830B9F08430D1F4809180008F7DCB
:1045E00003C0809180008F7780938000089584B508
:1045F0008F7702C084B58F7D84BD08958091B0000F
:104600008F7703C08091B0008F7D8093B0000895B4
:10461000CF93DF9390E0FC01E459F04F2491FC012B
:10462000E058F04F8491882349F190E0880F991F5A
:10463000FC01E256F04FA591B4918C56904FFC01CD
:10464000C591D4919FB7611108C0F8948C912095C1
:1046500082238C93888182230AC0623051F4F894BB
:104660008C91322F309583238C938881822B888381
:1046700004C0F8948C91822B8C939FBFDF91CF91D3
:1046800008950F931F93CF93DF931F92CDB7DEB79B
:10469000282F30E0F901E85AF04F8491F901E459EC
:1046A000F04F1491F901E058F04F04910023C9F044
:1046B000882321F069830E94DF226981E02FF0E0E6
:1046C000EE0FFF1FEC56F04FA591B4919FB7F894F1
:1046D0008C91611103C01095812301C0812B8C93B3
:1046E0009FBF0F90DF91CF911F910F9108950E946E
:1046F0002D2CFC01818D228D90E0805C9F4F821BD0
:1047000091098F7399270895FC01918D828D9817D7
:1047100031F0828DE80FF11D858D90E008958FEFC7
:104720009FEF0895FC01918D828D981761F0828D25
:10473000DF01A80FB11D5D968C91928D9F5F9F73D5
:10474000928F90E008958FEF9FEF089586E195E2B4
:10475000892B49F080E090E0892B29F00E941625F2
:1047600081110C9400000895FC01848DDF01A80FD5
:10477000B11DA35ABF4F2C91848D90E001968F7389
:104780009927848FA689B7892C93A089B1898C91A8
:1047900080648C93938D848D981306C00288F3896E
:1047A000E02D80818F7D80830895CF93DF93EC018E
:1047B000888D8823C9F0EA89FB89808185FD05C041
:1047C000A889B9898C9186FD0FC00FB607FCF5CF7B
:1047D000808185FFF2CFA889B9898C9185FFEDCFC3
:1047E000CE010E94B423E7CFDF91CF910895CF92FD
:1047F000DF92FF920F931F93CF93DF931F92CDB75A
:10480000DEB76C0181E0D60158968C9358975B9681
:104810009C915B975C968C915C97981307C050961F
:10482000ED91FC915197808185FD2EC0F601038D9D
:1048300010E00F5F1F4F0F731127F02EF601848DCC
:10484000F81211C00FB607FCF9CFD6015096ED91C2
:10485000FC915197808185FFF1CFC60169830E9449
:10486000B4236981EBCF838DE80FF11DE35AFF4F2D
:104870006083D6015B960C935B975296ED91FC9109
:104880005397808180620CC0D6015696ED91FC91C1
:10489000579760835096ED91FC9151978081806489
:1048A000808381E090E00F90DF91CF911F910F9175
:1048B000FF90DF90CF900895BF92CF92DF92EF925A
:1048C000FF92CF93DF93EC016A017B01B22EE8895E
:1048D000F98982E08083411581EE580761057105F1
:1048E000A1F060E079E08DE390E0A70196010E94DD
:1048F000DB292150310941095109569547953795D2
:104900002795211580E1380798F0E889F989108208
:1049100060E874E88EE190E0A70196010E94DB292F
:1049200021503109410951095695479537952795E9
:10493000EC85FD853083EE85FF852083188EEC891C
:10494000FD89B082EA89FB89808180618083EA8960
:10495000FB89808188608083EA89FB898081806807
:104960008083EA89FB8980818F7D8083DF91CF916D
:10497000FF90EF90DF90CF90BF9008951F920F921D
:104980000FB60F9211242F938F939F93EF93FF9362
:10499000E0911A03F0911B038081E0912003F091D4
:1049A000210382FD12C09081809123038F5F8F735A
:1049B00020912403821751F0E0912303F0E0E65F99
:1049C000FC4F958F8093230301C08081FF91EF916D
:1049D0009F918F912F910F900FBE0F901F90189560
:1049E0001F920F920FB60F9211242F933F934F9364
:1049F0005F936F937F938F939F93AF93BF93EF9347
:104A0000FF938AE093E00E94B423FF91EF91BF915E
:104A1000AF919F918F917F916F915F914F913F9156
:104A20002F910F900FBE0F901F9018958AE093E082
:104A30000E94792321E0892B09F420E0822F089538
:104A400010920D0310920C0388EE93E0A0E0B0E00A
:104A500080930E0390930F03A0931003B093110360
:104A600080E591E090930B0380930A0385EC90E03E
:104A7000909317038093160384EC90E090931903AE
:104A80008093180380EC90E090931B0380931A03AB
:104A900081EC90E090931D0380931C0382EC90E0E6
:104AA00090931F0380931E0386EC90E09093210364
:104AB0008093200310922303109224031092250365
:104AC00010922603089508950E94A4220E9463254F
:104AD0000E94DA0EC6EAD3E20E94E40C2097E1F3CA
:104AE0000E94A623F9CFCF92DF92EF92FF920F930D
:104AF0001F93CF93DF936C017A01EB01E60EF71E53
:104B000000E010E0CE15DF0561F06991D601ED916E
:104B1000FC910190F081E02DC6010995080F191F45
:104B2000F1CFC801DF91CF911F910F91FF90EF90CE
:104B3000DF90CF9008956115710581F0DB010D9034
:104B40000020E9F7AD0141505109461B570BDC012C
:104B5000ED91FC910280F381E02D099480E090E0DA
:104B60000895EF92FF920F931F93CF93DF938C01E1
:104B7000FB01C0E0D0E064917F018FEFE81AF80AF2
:104B8000662361F0D801ED91FC910190F081E02D58
:104B9000C8010995C80FD91FF701EDCFCE01DF91EC
:104BA000CF911F910F91FF90EF9008956CE571E008
:104BB0000C949B250F931F93CF93DF93EC010E94DE
:104BC000B1258C01CE010E94D625800F911FDF9167
:104BD000CF911F910F9108958F929F92AF92BF92A4
:104BE000CF92DF92EF92FF920F931F93CF93DF93B9
:104BF000CDB7DEB7A1970FB6F894DEBF0FBECDBF1D
:104C00007C01C42EE52FCB01D22E19A221E02D1557
:104C100010F02AE0D22E8E010F5D1F4F8D2C912CAB
:104C2000A12CB12C6C2D7E2FA50194010E94DB29B3
:104C30008C2DD29E80191124015011098A3014F450
:104C4000805D01C0895CF801808321153105410533
:104C5000510521F0C22EE32FCA01E4CFB801C701EC
:104C60000E949B25A1960FB6F894DEBF0FBECDBF64
:104C7000DF91CF911F910F91FF90EF90DF90CF9038
:104C8000BF90AF909F908F9008952115310541F40A
:104C9000DC01ED91FC910190F081E02D642F0994ED
:104CA0000C94EC259A01462F50E060E070E00C94E3
:104CB00045264F925F926F927F92AF92BF92CF92B2
:104CC000DF92EF92FF920F931F93CF93DF93CDB7B5
:104CD000DEB729013A01621B730B840B950B2989FE
:104CE0003A894B895C892A193B094C095D09298B52
:104CF0003A8B4B8B5C8B9B01AC0169897A898B89E0
:104D00009C890E94CB29E418F50806091709A80117
:104D100097010E94FD292A0D3B1D4C1D5D1DCA01F6
:104D2000B901DF91CF911F910F91FF90EF90DF902C
:104D3000CF90BF90AF907F906F905F904F9008950D
:104D400008955058BB27AA270ED010C2D9D130F0F1
:104D5000DED120F031F49F3F11F41EF498C10EF41F
:104D6000E095E7FB8EC1E92F23D280F3BA176207E3
:104D700073078407950718F071F49EF53BC20EF493
:104D8000E0950B2EBA2FA02D0B01B90190010C015B
:104D9000CA01A0011124FF27591B99F0593F50F473
:104DA000503E68F11A16F040A22F232F342F4427CB
:104DB000585FF3CF469537952795A795F0405395C3
:104DC000C9F77EF41F16BA0B620B730B840BBAF093
:104DD0009150A1F0FF0FBB1F661F771F881FC2F7FE
:104DE0000EC0BA0F621F731F841F48F48795779512
:104DF0006795B795F7959E3F08F0B3CF9395880FC9
:104E000008F09927EE0F97958795089579D158F076
:104E100080E891E009F49EEF7AD128F040E851E073
:104E200059F45EEF09C033C1E5C1E92FE078C0D184
:104E300068F3092E052AC1F32617370748075907D3
:104E400038F00E2E07F8E02569F0E025E0640AC08E
:104E5000EF6307F8009407FADB01B9019D01DC015B
:104E6000CA01AD01EF9346D081D10AD05F9155239D
:104E700031F02BED3FE049E450FD49EC63CF08955C
:104E8000DF93DD27B92FBF7740E85FE316161706DB
:104E900048075B0710F4D92FB4D19F938F937F936A
:104EA0006F9361D2E8E6F0E0F5D060D12F913F91A9
:104EB0004F915F91B9D1DD2349F09058A2EA2AEDD4
:104EC0003FE049EC5FE3D0785D274DDFDF914EC1D5
:104ED00026D1E3955CC10CD049C119D140F010D165
:104EE00030F021F45F3F19F0CCC0511184C1CFC024
:104EF0005FD198F39923C9F35523B1F3951B550B53
:104F0000BB27AA2762177307840738F09F5F5F4F9C
:104F1000220F331F441FAA1FA9F333D00E2E3AF0DD
:104F2000E0E830D091505040E695001CCAF729D0F7
:104F3000FE2F27D0660F771F881FBB1F2617370746
:104F40004807AB07B0E809F0BB0B802DBF01FF2776
:104F500093585F4F2AF09E3F510568F092C04BC1B5
:104F60005F3FECF3983EDCF3869577956795B795B0
:104F7000F7959F5FC9F7880F911D9695879597F9CB
:104F80000895E1E0660F771F881FBB1F6217730744
:104F90008407BA0720F0621B730B840BBA0BEE1F59
:104FA00088F7E095089504D06894B11124C108955C
:104FB00007D188F09F5790F0B92F9927B751A0F0EB
:104FC000D1F0660F771F881F991F1AF0BA95C9F79D
:104FD00012C0B13081F00ED1B1E008950BC1672F3E
:104FE000782F8827B85F39F0B93FCCF3869577954D
:104FF0006795B395D9F73EF4909580957095619536
:105000007F4F8F4F9F4F0895E89409C097FB3EF460
:1050100090958095709561957F4F8F4F9F4F992305
:10502000A9F0F92F96E9BB279395F6958795779583
:105030006795B795F111F8CFFAF4BB0F11F460FF43
:105040001BC06F5F7F4F8F4F9F4F16C0882311F09B
:1050500096E911C0772321F09EE8872F762F05C0AF
:10506000662371F096E8862F70E060E02AF09A954A
:10507000660F771F881FDAF7880F9695879597F93F
:10508000089597F99F6780E870E060E008959FEFCA
:1050900080EC0895DF93CF931F930F93FF92EF92CD
:1050A000DF927B018C01689405C0DA2EEF01BCD041
:1050B000FE01E894A5912591359145915591AEF366
:1050C000EF0151DEFE019701A801DA9479F7DF9034
:1050D000EF90FF900F911F91CF91DF9108959F93D3
:1050E0008F937F936F93FF93EF939B01AC0190D0CD
:1050F000EF91FF91CFDF2F913F914F915F9188C04A
:1051000000240A94161617061806090608950024A6
:105110000A9412161306140605060895B8CF50D047
:10512000E8F3E894E0E0BB279F57F0F02AED3FE07A
:1051300049EC06C0EE0FBB0F661F771F881F28F0D3
:10514000B23A62077307840728F0B25A620B730BF6
:10515000840BE3959A9572F7803830F49A95BB0FDB
:10516000661F771F881FD2F7904802C1092E03944B
:10517000000C11F4882352F0BB0F40F4BF2B11F444
:1051800060FF04C06F5F7F4F8F4F9F4F0895EF9375
:10519000E0FF06C0A2EA2AED3FE049EC5FEBE3DD69
:1051A000E5DF0F90039401FC9058E5E9F0E097CF1C
:1051B00057FD9058440F551F59F05F3F71F04795C8
:1051C000880F97FB991F61F09F3F79F087950895AD
:1051D000121613061406551FF2CF4695F1DF08C0CC
:1051E000161617061806991FF1CF869571056105E9
:1051F00008940895E894BB2766277727CB0197F991
:1052000008959B01AC0160E070E080E89FE363CE0D
:105210000BD0ACCF75DF28F07ADF18F0952309F0BA
:1052200030CF35CF1124E7CFC3DFA0F3959FD1F363
:10523000950F50E0551F629FF001729FBB27F00D44
:10524000B11D639FAA27F00DB11DAA1F649F662799
:10525000B00DA11D661F829F2227B00DA11D621FE8
:10526000739FB00DA11D621F839FA00D611D221FA2
:10527000749F3327A00D611D231F849F600D211D86
:10528000822F762F6A2F11249F5750408AF0E1F029
:1052900088234AF0EE0FFF1FBB1F661F771F881F72
:1052A00091505040A9F79E3F510570F0EACEA3CF30
:1052B0005F3FECF3983EDCF3869577956795B7955D
:1052C000F795E7959F5FC1F7FE2B880F911D969587
:1052D000879597F908959F9322DF0F9007FCEE5F63
:1052E00056CF11F40EF4D3CE41C06ADFD0F3992328
:1052F000D9F3CEF39F57550B87FF46D00024A0E685
:1053000040EA900180585695979528F4805C660F86
:10531000771F881F20F026173707480730F4621BD5
:10532000730B840B202931294A2BA69517940794D7
:10533000202531254A2758F7660F771F881F20F050
:1053400026173707480730F4620B730B840B200DC8
:10535000311D411DA09581F7B901842F9158880F07
:105360009695879508959B01AC0152CF9F3F31F0F0
:10537000915020F4879577956795B795880F911D83
:105380009695879597F9089591505040660F771F2D
:10539000881FD2F70895DB018F939F930E941C2AE8
:1053A000BF91AF91A29F800D911DA39F900DB29FC1
:1053B000900D11240895A1E21A2EAA1BBB1BFD011A
:1053C0000DC0AA1FBB1FEE1FFF1FA217B307E407E4
:1053D000F50720F0A21BB30BE40BF50B661F771F3C
:1053E000881F991F1A9469F760957095809590951C
:1053F0009B01AC01BD01CF010895052E97FB1EF462
:1054000000940E94142A57FD07D00E94DB2907FC54
:1054100003D04EF40C94142A509540953095219564
:105420003F4F4F4F5F4F08959095809570956195D0
:105430007F4F8F4F9F4F08950E942D2AA59F900D5B
:10544000B49F900DA49F800D911D11240895EE0F1F
:10545000FF1F0590F491E02D0994A29FB001B39F26
:10546000C001A39F700D811D1124911DB29F700D6D
:10547000811D1124911D0895CF93DF9382309105F2
:1054800010F482E090E0E091A903F091AA0320E0FB
:1054900030E0A0E0B0E0309739F140815181481709
:1054A0005907B8F04817590771F482819381109712
:1054B00029F013969C938E9312972CC09093AA0375
:1054C0008093A90327C02115310531F042175307F6
:1054D00018F0A901DB0101C0EF019A01BD01DF0154
:1054E0000280F381E02DD7CF21153105F9F0281B7B
:1054F000390B2430310580F48A819B816115710557
:1055000021F0FB019383828304C09093AA038093CC
:10551000A903FE01329644C0FE01E20FF31F8193FE
:10552000919322503109398328833AC02091A703EF
:105530003091A803232B41F4209102013091030103
:105540003093A8032093A70320910001309101011B
:105550002115310541F42DB73EB74091040150911A
:105560000501241B350BE091A703F091A803E21776
:10557000F307A0F42E1B3F0B2817390778F0AC0176
:105580004E5F5F4F2417350748F04E0F5F1F509353
:10559000A8034093A7038193919302C0E0E0F0E059
:1055A000CF01DF91CF910895CF93DF93009709F456
:1055B00087C0FC01329713821282C091A903D09157
:1055C000AA03209781F420813181280F391F80910F
:1055D000A7039091A8038217930779F5F093A80386
:1055E000E093A7036DC0DE0120E030E0AE17BF07F7
:1055F00050F412964D915C9113979D014115510500
:1056000009F1DA01F3CFB383A28340815181840F82
:10561000951F8A179B0771F48D919C911197840FA8
:10562000951F02969183808312968D919C9113977A
:10563000938382832115310529F4F093AA03E09323
:10564000A9033EC0D9011396FC93EE9312974D9196
:105650005D91A40FB51FEA17FB0779F48081918152
:10566000840F951F0296D90111969C938E93828187
:10567000938113969C938E931297E0E0F0E08A81D9
:105680009B81009719F0FE01EC01F9CFCE01029643
:1056900028813981820F931F2091A7033091A8039D
:1056A0002817390769F4309729F41092AA03109249
:1056B000A90302C013821282D093A803C093A70348
:1056C000DF91CF910895A0E0B0E0E9E6FBE20C9411
:1056D0004C2CEC01CB01209719F40E943C2AB8C055
:1056E000FE01E60FF71F9E0122503109E217F30772
:1056F00008F4ACC0D9010D911C911197061717073A
:10570000B8F00530110508F49FC0A80144505109B4
:105710004617570708F498C002501109061B170BCB
:10572000019311936D937C93CF010E94D42A8CC076
:105730005B01A01AB10A4E01800E911EA091A9032F
:10574000B091AA03612C712C60E070E0109709F40D
:1057500049C0A815B905C9F5ED90FC9011976701EE
:1057600042E0C40ED11CCA14DB0478F147018A1848
:105770009B08640142E0C40ED11C1296BC901297A3
:105780001396AC91B5E0CB16D10440F0B282A3835E
:1057900091828082D9018D939C9309C00E5F1F4F27
:1057A0000E0D1F1DF90111830083EB2DFA2F6115DA
:1057B000710531F0DB011396FC93EE93129744C010
:1057C000F093AA03E093A9033FC06D917C911197D8
:1057D0006616770608F43B01BD0112960D90BC9148
:1057E000A02DB4CF6091A7037091A8036815790527
:1057F000E9F468167906D0F4409100015091010156
:105800004115510541F44DB75EB7609104017091A7
:105810000501461B570BE417F507C0F4F093A803E6
:10582000E093A703F901918380830EC00E943C2A74
:105830007C01009759F0A801BE010E943F2CCE01C7
:105840000E94D42AC70104C0CE0102C080E090E0CB
:10585000CDB7DEB7EEE00C94682C81E090E0F894D0
:105860000C947F2CFB01DC0104C08D910190801908
:1058700021F441505040C8F7881B990B0895FB0153
:10588000DC0102C001900D9241505040D8F70895BC
:105890002F923F924F925F926F927F928F929F9240
:1058A000AF92BF92CF92DF92EF92FF920F931F932E
:1058B000CF93DF93CDB7DEB7CA1BDB0B0FB6F894DF
:1058C000DEBF0FBECDBF09942A88398848885F841F
:1058D0006E847D848C849B84AA84B984C884DF8090
:1058E000EE80FD800C811B81AA81B981CE0FD11D74
:1058F0000FB6F894DEBF0FBECDBFED010895F8944A
:02590000FFCFD7
:105902000000AB03800001000000E803000000007B
:105912002F1873251413B21597132D146916C31477
:105922008E0F4B10000000002F1873257723B2153D
:10593200B816CF166916E5161A17381700000000B8
:10594200011FD41EA91EB11EC41ED31E00000000DA
:10595200F7237325792392238423D5230D0A006E1E
:0E596200616E00696E66006F7666002E0000B2
:00000001FF
