:100000000C943E070C9439230C9466230C946607D9
:100010000C9466070C9466070C9466070C946607AC
:100020000C9466070C9466070C9466070C9466079C
:100030000C9466070C9466070C9466070C9466078C
:100040000C9493230C9466070C9466070C94660733
:100050000C9466070C9466070C9466070C9466076C
:100060000C94EC210C946607084AD73B3BCE016EFA
:1000700084BCBFFDC12F3D6C74319ABD56833DDAFF
:100080003D00C77F11BED9E4BB4C3E916BAAAABE0E
:10009000000000803F05A84CCDB2D44EB93836A937
:1000A000020C50B9918688083CA6AAAA2ABE000074
:1000B00000803F0001B202FFFF0190040923A13537
:1000C000016A020600016008000000000000000054
:1000D00000600440000000016202000000600400B3
:1000E000400000037B034CCD6C03AB033656760017
:1000F000680402CB47A202180400058BC1010C045E
:1001000000000000037F060CC92C97979703890312
:10011000264666006C022000024004000000000237
:1001200044040000000002480400000000024C04E7
:10013000000000000250040000000002540400000F
:10014000000002580400000000025C0400000000EF
:1001500002BC040000000001EC0400004000037F2A
:10016000060CC92C9797970402030D355D0409040A
:10017000872D353D00A3010000000001078601FE28
:10018000074105F120283038077E01300746019AE3
:10019000074704F1283038076C04F128303802167C
:1001A000020007FB00003E000B00360001000200C9
:1001B00003000000650054FFEF0000FA80000B12FE
:1001C00082000100020000000000000000000000AA
:1001D00000000000280000FFFF4581FFFFFA7200C9
:1001E000000000000003E80000000100017FFFFFA5
:1001F000FE8001001B000000000000000000000065
:10020000000000003E03304000000002CAE3093E47
:10021000800000200000000000000040000000609E
:1002200000000041FF000000000B2A0000165500EE
:10023000002182FD872650FD800000001F00000085
:100240000580000000000000010000000200000026
:10025000030000400000000000046F00026532004F
:10026000005EC04000000000000000000000000030
:10027000000000FB8C6F5DFD5D08D9007C733B00C6
:100280006C12CC3200139D3200D0D63200080040F0
:100290000001F4FFE68079020000000000D0D600E3
:1002A000002710FB000000400000000000000000DC
:1002B000000000000000010000000000000100013B
:1002C0000000000000FA36FFBC308E0005FBF0FF96
:1002D000D95BC8FFD09ABE000010A9FFF41EB2007F
:1002E000CEBBF70000000100000004000200020283
:1002F00000000CFFC280000001800000CF800040A1
:1003000000000000000001000000000000060000E6
:1003100000001400000000000000000000000000C9
:1003200000000000000000000000000000000000CD
:1003300000000000000000000000000000000000BD
:1003400000000000000000033F68B6793528BCC6F5
:100350007ED16C80000000400000000000B26A0006
:10036000000000000000000000000000003FF0005E
:10037000000030000000000000000000000000004D
:10038000000000000000000000000000000000006D
:100390000000000000254D002F706D000005AE002C
:1003A0000C02D00000000000650054FFEF000000C8
:1003B000000000000001000044000000000C0000EC
:1003C000000100000000000065000000540000FF74
:1003D000EF0000000000000000000000000000002E
:1003E00000000040000000000000000000000000CD
:1003F00000000040000000000000000000000000BD
:1004000000000000000001000000020000000000E9
:1004100000000000000000000000000000000000DC
:1004200000000000000000000000000000000000CC
:10043000000000001B0000000000000000000000A1
:1004400000000000000000000000000000000000AC
:10045000000000000000000000000000000000405C
:10046000000000001B000000000000000000000071
:10047000000000000000000000000000000000007C
:10048000000000000000000000000000000000006C
:10049000000000000000000000000000000000005C
:1004A000000000D8DCBAA2F1DEB2B8B4A88191F79E
:1004B0004A907F916AF3F9DBA8F9B0BAA080F2CE36
:1004C00081F3C2F1C1F2C3F3CCA2B280F1C6D880ED
:1004D000BAA7DFDFDFF2A7C3CBC5B6F087A29424AB
:1004E00048703C95406834589B78A2F183922D5512
:1004F0007DD8B1B4B8A1D09180F270F370F27C8055
:10050000A8F101B09887D943D886C988BAA1F20E5C
:10051000B89780F1A9DFDFDFAADFDFDFF2AAC5CD60
:10052000C7A90CC92C97979797F1A989264666B059
:10053000B4BA80ACDEF2CAF1B28C02A9B6980089D6
:100540000E161EB8A9B4992C547CB08AA8963656BB
:1005500076F1B9AFB4B083C0B8A89711B18F98B98C
:10056000AFF0240844106418F1A329557DAF83B57A
:1005700093AFF0002850F1A3869F61A6DADEDFD9A1
:10058000FAA38696DB31A6D9F8DFBAA68FC2C5C713
:10059000B28CC1B8A2DFDFDFA3DFDFDFD8D8F1B8CC
:1005A000A8B286B4980D355DB8AA98B0872D353DB0
:1005B000B2B6BAAF8C96198F9FA70E161EB49AB812
:1005C000AA872C547CB9A3DEDFDFA3B180F2C4CDAF
:1005D000C9F1B8A9B499830D355D89B9A32D557DAD
:1005E000B593A30E161EA92C547CB8B4B0F1978312
:1005F000A81184A50998A383F0DA2408441064188C
:10060000D8F1A529557DA58595021A2E3A565A404E
:1006100048F9F3A3D9F8F098832408441064189794
:1006200082A8F111F098A2240844106418DAF3DECD
:10063000D883A59401D9A302F1A2C3C5C7D8F18478
:1006400092A24DDA2AD84869D92AD86855DA32D820
:100650005071D932D8705DDA3AD85879D93AD87809
:1006600093A34DDA2AD84869D92AD86855DA32D8FE
:100670005071D932D8705DDA3AD85879D93AD878E9
:10068000A88A9AF02850789EF38818F19F1D98A8A0
:10069000D908D8C89F129EF315A8DA1210D8F1AF66
:1006A000C8978734B5B994A421F3D922D8F22DF391
:1006B000D92AD8F235F3D932D881A4606061D961E2
:1006C000D86C6869D969D8747071D971D8B1A384AC
:1006D000193D5DA3831A3E5E931030811011B8B0AE
:1006E000AF8F94F2DA3ED8B49AA88729DAF8D8877F
:1006F0009A35DAF8D8879A3DDAF8D8B1B9A498854E
:10070000022E56A581000C14A397B08AF12DD9288A
:10071000D84DD948D86DD968D8B1840DDA0ED8A390
:100720002983DA2C0ED8A3844983DA2C4C0ED8B84E
:10073000B0A88A9AF520AADADFD8A840AAD0DADED3
:10074000D8A860AADAD0DFD8F19786A8319B06999D
:1007500007AB9728889BF00C201440B8B0B4A88C45
:100760009CF0042851791D301438B282ABD0982CFB
:10077000505078789BF11AB0F08A9CA82951798B57
:100780002951798A2470598B2058718A4469388B91
:100790003940688A6448318B304960A588200971E6
:1007A000584468113964493019F1AC002C547CF07C
:1007B0008CA804285078F1889726A85998AC8C0208
:1007C000264666F0899CA8295179247059446938D5
:1007D000644831A98809205970AB11384069A819BB
:1007E0003148608CA83C415C207C00F187981986D8
:1007F000A86E767EA999882D557D9EB9A38A228AF6
:100800006E8A568A5E9FB183062646660E2E4E6E0F
:100810009DB8AD002C547CF2B18CB499B9A32D5580
:100820007D8191AC38AD3AB58391AC2DD928D84DA6
:10083000D948D86DD968D88C9DAE29D904AED85185
:10084000D904AED879D904D881F39DAD008DAE1905
:1008500081ADD901D8F2AEDA26D88E912983A7D9F5
:10086000ADADADADF32AD8D8F1B0AC89913E5E768E
:10087000F3AC2E2EF1B18C5A9CAC2C2828289CACC1
:100880003018A8988128343C9724A728343C9C240D
:10089000F2B089AC912C4C6C8A9B2DD9D8D851D907
:1008A000D8D879D9D8D8F19E88A331DAD8D8912D63
:1008B000D928D84DD948D86DD968D8B18393353D5A
:1008C0008025DAD8D88569DAD8D8B49381A32834BA
:1008D0003CF3AB8BF8A391B609B4D9ABDEFAB08781
:1008E0009CB9A3DDF1A3A3A3A395F1A3A3A39DF1B9
:1008F000A3A3A3A3F2A3B49080F2A3A3A3A3A3A34F
:10090000A3A3A3A3B2A3A3A3A3A3A3B087B599F161
:10091000A3A3A398F1A3A3A3A397A3A3A3A3F39B28
:10092000A3A3DCB9A7F1262626D8D8FF0000000033
:10093000003E5B4F5B3E3E6B4F6B3E1C3E7C3E1C65
:10094000183C7E3C181C577D571C1C5E7F5E1C00AB
:10095000183C1800FFE7C3E7FF0018241800FFE762
:10096000DBE7FF30483A060E2629792926407F0525
:100970000507407F05253F5A3CE73C5A7F3E1C1C3B
:1009800008081C1C3E7F14227F22145F5F005F5FFB
:1009900006097F017F006689956A606060606094E7
:1009A000A2FFA29408047E040810207E20100808EC
:1009B0002A1C08081C2A08081E101010100C1E0CF7
:1009C0001E0C30383E3830060E3E0E060000000089
:1009D0000000005F00000007000700147F147F1470
:1009E000242A7F2A122313086462364956205000B5
:1009F00008070300001C2241000041221C002A1CA1
:100A00007F1C2A08083E080800807030000808088B
:100A10000808000060600020100804023E514945AB
:100A20003E00427F400072494949462141494D33C9
:100A30001814127F1027454545393C4A4949314130
:100A4000211109073649494936464949291E0000FE
:100A50001400000040340000000814224114141453
:100A60001414004122140802015909063E415D593F
:100A70004E7C1211127C7F494949363E4141412248
:100A80007F4141413E7F494949417F090909013E72
:100A9000414151737F0808087F00417F4100204099
:100AA000413F017F081422417F404040407F021CAB
:100AB000027F7F0408107F3E4141413E7F090909C2
:100AC000063E4151215E7F0919294626494949328E
:100AD00003017F01033F4040403F1F2040201F3F54
:100AE0004038403F631408146303047804036159D9
:100AF000494D43007F41414102040810200041411B
:100B0000417F0402010204404040404000030708C6
:100B10000020545478407F284444383844444428C2
:100B2000384444287F385454541800087E09021869
:100B3000A4A49C787F0804047800447D40002040F1
:100B4000403D007F1028440000417F40007C047835
:100B500004787C080404783844444438FC1824247D
:100B60001818242418FC7C080404084854545424FD
:100B700004043F44243C4040207C1C2040201C3C7A
:100B80004030403C44281028444C9090907C446471
:100B9000544C440008364100000077000000413604
:100BA000080002010204023C2623263C1EA1A1618A
:100BB000123A4040207A38545455592155557941BC
:100BC0002254547842215554784020545579400C91
:100BD0001E52721239555555593954545459395574
:100BE0005454580000457C410002457D42000145B7
:100BF0007C407D1211127DF0282528F07C5455454B
:100C0000002054547C547C0A097F493249494932B6
:100C10003A4444443A324A4848303A4141217A3AC7
:100C200042402078009DA0A07D3D4242423D3D4093
:100C300040403D3C24FF2424487E4943662B2FFC42
:100C40002F2BFF0929F620C0887E090320545479F0
:100C5000410000447D413048484A32384040227AC1
:100C6000007A0A0A727D0D19317D2629292F28263E
:100C70002929292630484D40203808080808080846
:100C80000808382F10C8ACBA2F102834FA00007B9F
:100C9000000008142A142222142A1408AA0055005D
:100CA000AAAA55AA55AA000000FF00101010FF00C4
:100CB000141414FF001010FF00FF1010F010F014B7
:100CC0001414FC001414F700FF0000FF00FF1414BC
:100CD000F404FC141417101F10101F101F14141408
:100CE0001F00101010F0000000001F101010101F47
:100CF00010101010F010000000FF10101010101055
:100D0000101010FF10000000FF140000FF00FF0093
:100D1000001F10170000FC04F4141417101714140B
:100D2000F404F40000FF00F714141414141414F75E
:100D300000F7141414171410101F101F141414F4B7
:100D4000141010F010F000001F101F0000001F14FE
:100D5000000000FC140000F010F01010FF10FF1451
:100D60001414FF141010101F00000000F010FFFFFB
:100D7000FFFFFFF0F0F0F0F0FFFFFF0000000000C9
:100D8000FFFF0F0F0F0F0F3844443844FC4A4A4A04
:100D9000347E02020606027E027E026355494163EA
:100DA0003844443C04407E201E2006027E02029904
:100DB000A5E7A5991C2A492A1C4C7201724C304A9D
:100DC0004D4D303048784830BC625A463D3E494926
:100DD00049007E0101017E2A2A2A2A2A44445F44CE
:100DE0004440514A444040444A51400000FF0103FE
:100DF000E080FF000008086B6B08361236243606C8
:100E00000F090F06000018180000001010003040F5
:100E1000FF0101001F01011E00191D1712003C3CBB
:100E20003C3C00000000000000000800020100003F
:100E30000304070000000000000000010204081085
:100E40002040800102040810200102040810200440
:100E50000404040404040402020202020203030361
:100E600003030300000000250028002B0000000001
:100E700000240027002A00004B0C0A2111241FBE69
:100E8000CFEFD8E0DEBFCDBF11E0A0E0B1E0EAEBEC
:100E9000F8E502C005900D92AE34B107D9F722E013
:100EA000AEE4B1E001C01D92A03FB207E1F71EE041
:100EB000CCE7DEE004C02297FE010E94052AC83775
:100EC000D107C9F70E940A250C945B2C0C940000F2
:100ED00081E080934E0108958F929F92AF92BF92CE
:100EE000CF92EF920F931F93CF93DF93CDB7DEB7DF
:100EF000C059D1090FB6F894DEBF0FBECDBF5C015B
:100F00000E94CB1C6EE170E080E090E00E940C2417
:100F100060E0C5010E94D21C21E041E060E1C50112
:100F20000E94CA1D66E0C5010E94D51D20E040E078
:100F300060E0C5010E94CA1DC5010E942F1D182F27
:100F4000C5010E94561D882EC5010E947D1D982E48
:100F50004FE760E0C5010E948B1C60E0C5010E9464
:100F6000B61C48E660E0C5010E948B1CC5010E94CA
:100F7000C41C64E170E080E090E00E940C24EE2448
:100F8000E39400E020E049E857E063EA71E0C5013E
:100F90000E94291F882309F408C240EC50E063EE48
:100FA00070E0C5010E94F41F882309F400C263E0C9
:100FB000C5010E94D91C62E1C5010E94971C64E032
:100FC000C5010E94411C61E0C5010E94471C63E00D
:100FD000C5010E94521C63E0C5010E945D1C63E0D4
:100FE000C5010E94F71F60E0C5010E94FD1F60E07F
:100FF000C5010E94281D612FC5010E944B1D682D4F
:10100000C5010E94721D692DC5010E94991D812C88
:10101000912CF401EC54FF4FE491A1E8B0E0AC0F47
:10102000BD1FA80DB11DEC9381E0880D9FEF891ABB
:10103000990AE3E0E81568F7CD57DF4F4881C358B8
:10104000D04050E09A012E5F3F4F90E028173907BB
:1010500004F7C12CEE24E394CE57DF4F0881C25829
:10106000D040CF57DF4F2881C158D04061E870E0B1
:101070006C0F7D1F6D5F7F4FC5010E94451E60E0B4
:10108000F401EC54FF4FE491A1E8B0E0AC0FBD1FB8
:10109000A60FB11DEC936F5FFFEF8F1A9F0A6430AC
:1010A00078F3CD57DF4F4881C358D04050E09A01C4
:1010B0002E5F3F4F862F90E0281739070CF7C12C81
:1010C000EE24E394CE57DF4F0881C258D040CF576B
:1010D000DF4F2881C158D04061E870E06C0F7D1F60
:1010E0006D5F7F4FC5010E94451EC5010E94BD1C5A
:1010F000C5010E94F81C482FBE016F5F7F4FC501DC
:101100000E94141D62E0C5010E94731C6CE9C501B8
:101110000E947F1C60E5C5010E94791C60E0C5014A
:101120000E94851CC5010E94BD1C61E0C5010E9492
:10113000AF1C61E0C5010E94BC1DC5010E94C31D1A
:1011400060E0F401EC54FF4FE491A1E8B0E0AC0F93
:10115000BD1FA60FB11DEC936F5F8FEF881A980A21
:10116000643078F3CD57DF4F4881C358D04050E00A
:101170009A012E5F3F4F862F90E0281739070CF712
:10118000C12CEE24E394CE57DF4F0881C258D040E3
:10119000CF57DF4F2881C158D04061E870E06C0F15
:1011A0007D1F6D5F7F4FC5010E94451E60E0F40109
:1011B000EC54FF4FE491A1E8B0E0AC0FBD1FA60FC7
:1011C000B11DEC936F5F9FEF891A990A643078F331
:1011D000CD57DF4F4881C358D04050E09A012E5F71
:1011E0003F4F862F90E0281739070CF7C12CEE24CB
:1011F000E394CE57DF4F0881C258D040CF57DF4F1E
:101200002881C158D04061E870E06C0F7D1F6D5F90
:101210007F4FC5010E94451E60E0F401EC54FF4F72
:10122000E491A1E8B0E0AC0FBD1FA60FB11DEC9397
:101230006F5FEFEF8E1A9E0A643078F3CD57DF4F61
:101240004881C358D04050E09A012E5F3F4F862F0F
:1012500090E0281739070CF7C12CEE24E394CE5701
:10126000DF4F0881C258D040CF57DF4F2881C15887
:10127000D04061E870E06C0F7D1F6D5F7F4FC5014E
:101280000E94451EC5010E94F81C83309105D0F3D1
:10129000482FBE016F5F7F4FC5010E94141D60E0A3
:1012A000F401EC54FF4FE491A1E8B0E0AC0FBD1F96
:1012B000A60FB11DEC936F5FFFEF8F1A9F0A64308A
:1012C00078F3CD57DF4F4881C358D04050E09A01A2
:1012D0002E5F3F4F862F90E0281739070CF7CE5727
:1012E000DF4F0881C258D040CF57DF4F2881C15807
:1012F000D04061E870E06C0F7D1F6D5F7F4FC501CE
:101300000E94DB1DC5010E94F81C83309105D0F3BB
:10131000482FBE016F5F7F4FC5010E94141DF4016D
:10132000EC54FF4F60E08491A1E8B0E0AC0FBD1F2A
:10133000A60FB11D8C936F5F643010F43196F3CF1C
:10134000CD57DF4F4881C358D04050E09A012E5FFF
:101350003F4F862F90E02817390784F761E870E047
:101360006C0F7D1F6D5F7F4FC12CEE24E394CE5731
:10137000DF4F0881C258D040CF57DF4F2881C15876
:10138000D040C5010E94451E60E0C5010E94BC1D01
:101390008AE290E0F50193838283C5010E94BD1C1F
:1013A000C5010E949D1C80E003C081E001C082E075
:1013B000C057DF4F0FB6F894DEBF0FBECDBFDF9131
:1013C000CF911F910F91EF90CF90BF90AF909F90D2
:1013D0008F900895CF93DF93DB01FA01309719F4D2
:1013E000EC01E881F981808190E0982F88272181A4
:1013F000822B11969C938E93848190E0982F88275E
:101400002581822B13969C938E931297808590E072
:10141000982F88272185822B15969C938E9314975D
:10142000848590E0982F88272585822B17969C939A
:101430008E93169780E0DF91CF910895FF920F93DE
:101440001F93CF93DF93CDB7DEB728970FB6F894ED
:10145000DEBF0FBECDBF8B01BE016F5F7F4F0E940D
:10146000EA09F82E81114CC069817A81882777FDBD
:101470008095982F0E94BA2720E030E040E858E39A
:101480000E94E428F80160837183828393836B81D7
:101490007C81882777FD8095982F0E94BA2720E0CD
:1014A00030E040E858E30E94E428F8016483758343
:1014B000868397836D817E81882777FD8095982F1D
:1014C0000E94BA2720E030E040E858E30E94E42878
:1014D000F80160877187828793876F817885882775
:1014E00077FD8095982F0E94BA2720E030E040E8F1
:1014F00058E30E94E428F8016487758786879787F8
:101500008F2D28960FB6F894DEBF0FBECDBFDF91AA
:10151000CF911F910F91FF9008954F925F926F921C
:101520007F928F929F92AF92BF92CF92DF92EF9273
:10153000FF920F931F93CF93DF93CDB7DEB728971A
:101540000FB6F894DEBF0FBECDBF8B01DA01149643
:10155000CD90DD90ED90FC9017971C964D905D908E
:101560006D907C901F978D909D90AD90BC9013973F
:1015700018968D919D910D90BC91A02D89839A8391
:10158000AB83BC83A3019201C701B6010E94E4288A
:101590006D837E838F83988729813A814B815C811B
:1015A000C501B4010E94E4289B01AC016D817E81DC
:1015B0008F8198850E9451269B01AC010E94522682
:1015C000F8016083718382839383A7019601C5012B
:1015D000B4010E94E4286D837E838F839887A301E2
:1015E000920169817A818B819C810E94E4289B0110
:1015F000AC016D817E818F8198850E9452269B016E
:10160000AC010E945226D80114966D937D938D9360
:101610009C931797A5019401C501B4010E94E42889
:101620004B015C01A7019601C701B6010E94E428A5
:101630009B01AC01C501B4010E9451266B017C01E4
:1016400029813A814B815C81CA01B9010E94E42859
:101650009B01AC01C701B6010E9451266B017C01C0
:10166000A3019201C301B2010E94E4289B01AC01D5
:10167000C701B6010E945226F801608771878287F0
:10168000938780E028960FB6F894DEBF0FBECDBFDB
:10169000DF91CF911F910F91FF90EF90DF90CF904E
:1016A000BF90AF909F908F907F906F905F904F9082
:1016B00008952F923F924F925F926F927F928F92F6
:1016C0009F92AF92BF92CF92DF92EF92FF920F93D1
:1016D0001F93CF93DF9300D000D000D0CDB7DEB7FB
:1016E0001B018A013E832D83FA01C080D180E280F4
:1016F000F380A7019601C701B6010E9452266983B3
:101700007A838B839C83F80184809580A680B78040
:10171000A5019401C501B4010E9452262B013C0190
:10172000A701960169817A818B819C810E94E428BE
:101730006B017C01A5019401C301B2010E94E42860
:101740009B01AC01C701B6010E94522620E030E0A7
:1017500040E85FE30E9451266B017C01F80120857F
:10176000318542855385C301B2010E94E4282B01D3
:101770003C01F801248535854685578569817A8144
:101780008B819C810E94E4289B01AC01C301B201C2
:101790000E945126A70196010E94C526F10160838F
:1017A000718382839383ED81FE816481758186815B
:1017B0009781C084D184E284F3849B01AC010E94B0
:1017C000E4284B015C01A7019601C701B6010E9404
:1017D000E4289B01AC01C501B4010E9452260E947D
:1017E00051299B01AC01ED81FE8160817181828173
:1017F00093810E941F270E94F026F1016483758364
:1018000086839783ED81FE816081718182819381DE
:10181000C084D184E284F3849B01AC010E94E4285B
:101820004B015C01A7019601C701B6010E94E428A3
:101830009B01AC01C501B4010E9452260E945129AE
:101840009B01AC01ED81FE81648175818681978168
:101850000E941F270E94F026F1016087718782870E
:10186000938780E026960FB6F894DEBF0FBECDBFFB
:10187000DF91CF911F910F91FF90EF90DF90CF906C
:10188000BF90AF909F908F907F906F905F904F90A0
:101890003F902F90089588E092E00E943D1C2FEF2A
:1018A00049E06AE08AED91E00E94221080E090E039
:1018B000A0E8BFE38093830190938401A093850106
:1018C000B0938601109287011092880110928901CD
:1018D00010928A0110928B0110928C0110928D014E
:1018E00010928E0110928F0110929001109291012E
:1018F0001092920110927E0110927D01109280014F
:1019000010927F0110928201109281011092780151
:101910001092770110927A011092790110927C0155
:1019200010927B0110927201109271011092740159
:101930001092730110927601109275011092650158
:10194000109266011092670110926801109269016D
:1019500010926A0110926B0110926C0110926D014D
:1019600010926E0110926F01109270010895CF9243
:10197000DF92EF92FF920F931F93CF93DF938AED45
:1019800091E00E94DD108FE192E00E94D02088E17A
:101990008093B80088E092E00E94E41C60ED77E05C
:1019A00080E090E00E940C2488E092E00E946C07A6
:1019B0008093D7016CED70E088E092E00E94AA1D50
:1019C0006CE470E088E092E00E94B01D6BEA7FEF6B
:1019D00088E092E00E94B61D6CEF76E088E092E02D
:1019E0000E94A41D8091D70181111DC061E088E093
:1019F00092E00E94BC1D43E050E068E677E080E0A2
:101A00000E94192388E092E00E949D1C8093D801D7
:101A100081E08093D90180910A0290910B0290930A
:101A2000D6018093D50161E08AED91E00E94CD1549
:101A30006FEF7FEF8AED91E00E94D90F20E84FEF22
:101A40006FEF8AED91E00E94BD156C0154E1E52E27
:101A5000F12C00EF10E02CED30E040E050E062E3CC
:101A600070E08AED91E00E9487180FE010E02CED05
:101A700030E048E750E062E370E08AED91E00E94D8
:101A8000781440E050E060E070E08AED91E00E9460
:101A9000251A6FE070E08AED91E00E94311A62E051
:101AA0008AED91E00E942B1A03E710E0C0E0D0E03D
:101AB000A80161E070E08AED91E00E94251A4AE0F9
:101AC00050E0BE018AED91E00E9401262A96045161
:101AD0001109CC33D10561F7C6EFDFEF07E810E05D
:101AE000A80161E070E08AED91E00E94251A4AE0C9
:101AF00050E0BE018AED91E00E9401260C5E1F4F6E
:101B00002A97C43C8FEFD80759F703E710E0C0E0ED
:101B1000D0E0A80168E171E08AED91E00E94251A09
:101B20004AE050E0BE018AED91E00E9401262A962B
:101B300004511109CC33D10561F7C6EFDFEF07E897
:101B400010E0A80168E171E08AED91E00E94251A99
:101B50004AE050E0BE018AED91E00E9401260C5E51
:101B60001F4F2A97C43C8FEFD80759F7DF91CF91C9
:101B70001F910F91FF90EF90DF90CF9008954F92BB
:101B80005F926F927F928F929F92AF92BF92CF920D
:101B9000DF92EF92FF920F931F93CF93DF93809189
:101BA000D901882309F4F4C18091D3019091D40123
:101BB0002091D5013091D60140914E01411103C0D1
:101BC00082179307C8F310924E0188E092E00E94BA
:101BD0009D1C8093D80188E092E00E94F81C9093AD
:101BE000D4018093D3012091D80124FD03C0811535
:101BF0009440A1F488E092E0DF91CF911F910F9182
:101C0000FF90EF90DF90CF90BF90AF909F908F901C
:101C10007F906F905F904F900C94BD1C21FFB8C1D6
:101C20004091D5015091D6018091D3019091D4017A
:101C30008417950748F488E092E00E94F81C90937E
:101C4000D4018093D301ECCF63E971E088E092E0A6
:101C50000E94141D88E092E00E94BD1C8091D30177
:101C60009091D4012091D5013091D601821B930B24
:101C70009093D4018093D30143E951E063E871E08C
:101C800088E092E00E941E0A43E851E065E671E0B8
:101C900088E092E00E948D0A25E631E043E851E0B9
:101CA00069E571E088E092E00E94590B20E030E0A5
:101CB00044E353E460915D0170915E0180915F01A6
:101CC000909160010E94E4282BED3FE049E450E44C
:101CD0000E941F274B015C0160935D0170935E01C0
:101CE00080935F019093600120E030E044E353E48F
:101CF0006091610170916201809163019091640132
:101D00000E94E4282BED3FE049E450E40E941F27A5
:101D10002BE734E14EEA5FE30E94E4286B017C018B
:101D200060936101709362018093630190936401F9
:101D300020E030E0A9010E94182787FF0AC020E0B8
:101D400030E048E452ECC701B6010E94D92887FF71
:101D500013C020E030E0A901C701B6010E94D928D4
:101D600087FD1CC020E030E048E452E4C701B60122
:101D70000E941827181694F0A7019601C701B60112
:101D80000E94522620E030E040EF52E40E945226AA
:101D90000E94872770930B0160930A01C501B4016B
:101DA0000E9487271F921F9221E02F9328E62F93EE
:101DB000A12CB12C65011CE8E12EF12C00E010E013
:101DC00024E73FEF4FEF5FEF0E940926882777FD5A
:101DD0008095982F0E94BA272CED3FE049E450E40B
:101DE0000E94E42820E030E044E353E40E941F27EF
:101DF0006B017C010E941C2720E030E044EB52E4A0
:101E00000E94E4289B01AC0160E070E080E293E472
:101E10000E9451260E9487274B01709358016093BE
:101E20005701A0900A01B0900B01C701B6010E94B2
:101E300047292B013C01B501882777FD8095982F14
:101E40000E94BA276B017C0120E030E044EB52E4B1
:101E5000C301B2010E94E4289B01AC01C701B60195
:101E60000E9451260E9487279B0170935601609320
:101E700055010F900F900F900F908091530190910A
:101E800054018815990579F480915101909152017E
:101E90008217930741F480914F01909150018A1568
:101EA0009B0509F475C0E091DA01F091DB01C68071
:101EB000D78020E84FEF6FEF8AED91E00E94BD15CB
:101EC0004091510150915201609153017091540120
:101ED00000914F0110915001000F111F041B150BB1
:101EE000C0E4D1E09E01261B370B7C018AED91E016
:101EF000F6010995409155015091560160915701A5
:101F000070915801E091DA01F091DB0100910A0132
:101F100010910B01000F111F041B150B9E01261BB6
:101F2000370B0680F781E02DE12CB8EFFB2E8AED10
:101F300091E009950FE010E02CED30E048E750E02B
:101F400062E370E08AED91E00E94781426EE30E0C2
:101F500045E050E060EA70E08AED91E00E94E21313
:101F600080915701909158019093540180935301AF
:101F700080915501909156019093520180935101A7
:101F800080910A0190910B019093500180934F0131
:101F9000DF91CF911F910F91FF90EF90DF90CF9045
:101FA000BF90AF909F908F907F906F905F904F9079
:101FB0000895EF92FF920F931F93DC01ED91FC9136
:101FC00011971A960D911C911B9718962D913C9183
:101FD00019970684F785E02D7B0140E050E060E032
:101FE00070E009951F910F91FF90EF900895209157
:101FF0001D02222399F03FB7F89420911D02213051
:1020000059F42DB320931B024DB320911C0220954F
:1020100024232DBB3FBF02C030931B028CBD9DBD4E
:10202000089580911D02882361F09FB7F894209154
:102030001D0280911B02213019F48DBB9FBF0895B2
:102040008FBF0895EF92FF920F931F93CF93DF936B
:102050001F92CDB7DEB77C01062F142F40E451E06C
:1020600060EF70E029830E94941782E191E0F7010C
:102070009183808304A315A3298126A381E0808F07
:1020800011A617A20F90DF91CF911F910F91FF9092
:10209000EF900895FC01808D811122C088E090E0CE
:1020A00030E8A28DB38D22A5432F462321F04C9119
:1020B000422B4C9304C04C91209524232C93A48D47
:1020C000B58D2C9143A5242B2C93A48DB58D4C91CB
:1020D00023A5209524232C933695019711F7089575
:1020E0008CB5918D9CBD6EBD0DB407FEFDCF8CBD32
:1020F0000895CF93DF93EC01EE8DFF8D90818DA538
:10210000809589238083EAA1FBA190818CA580958D
:1021100089238083CE010E944A10EAA1FBA180811D
:102120009CA5892B8083DF91CF9108950F931F93F6
:10213000CF93DF931F92CDB7DEB78C01FC01808D6A
:10214000882331F080E591E069830E94F70F69816F
:10215000662311F061E201C060E2C8010E947910BB
:10216000F801808D882339F00F90DF91CF911F9176
:102170000F910C9411100F90DF91CF911F910F913F
:102180000895CF93DF93EC01EE8DFF8D80819DA5A7
:10219000892B8083EAA1FBA190818CA5809589235E
:1021A0008083CE010E944A10EAA1FBA180819CA5F8
:1021B000892B8083DF91CF910895CF93DF93EC013A
:1021C0008EA118163CF461E00E94982460E08EA174
:1021D0000E94D12461E08DA10E94982461E08CA12D
:1021E0000E9498248CA1992787FD9095FC01E15BC2
:1021F000F14FE491F0E0EE0FFF1FED59F14F259103
:1022000034913BA32AA3FC01E55CF14F84918CA798
:102210008DA1992787FD9095FC01E15BF14FE49139
:10222000F0E0EE0FFF1FED59F14F259134913F8FF4
:102230002E8FFC01E55CF14F84918DA7888D88235A
:1022400089F00E9403208CB58C7F8CBD8DB5816098
:102250008DBD8CB58F7D8CBD8CB5837F8CBD8CB5D1
:10226000898F44C061E089A50E94982461E08FA114
:102270000E94982460E088A50E94982489A5992747
:1022800087FD9095FC01E15BF14FE491F0E0EE0FEA
:10229000FF1FED59F14FA591B491BD8FAC8FFC019B
:1022A000E55CF14F84918BA78FA1992787FD9095CD
:1022B000FC01E15BF14FE491F0E0EE0FFF1FED59FF
:1022C000F14F259134913B8F2A8FFC01E55CF14F52
:1022D00084918AA78C919BA5909589238C93EA8DF4
:1022E000FB8D90818AA58095892380838EA1181605
:1022F000ECF461E00E94D12465E070E080E090E0C1
:102300000E940C2460E08EA10E94D12464E170E060
:1023100080E090E00E940C2461E08EA10E94D12414
:1023200066E970E080E090E00E940C24888D8823AC
:1023300021F080E591E00E94F70F6FEECE010E9440
:10234000791063E0CE010E94C11060E8CE010E94C6
:10235000C11062E0CE010E94C1106FECCE010E945C
:10236000791060E0CE010E94C11061ECCE010E94A4
:10237000C11060E3CE010E94C1106DEECE010E943B
:10238000791064E6CE010E94C11063E0CE010E9484
:10239000C11062E1CE010E94C11061E8CE010E942D
:1023A000C11068EECE010E94791065E8CE010E944E
:1023B000C11060E0CE010E94C11068E7CE010E940A
:1023C000C1106BECCE010E94791069E3CE010E942E
:1023D000C1106CE2CE010E94C11060E0CE010E94EB
:1023E000C11064E3CE010E94C11062E0CE010E94E0
:1023F000C11067EFCE010E94791060E2CE010E9409
:10240000C1106AEECE010E94791060E0CE010E94F8
:10241000C11060E0CE010E94C11060ECCE010E94AC
:10242000791063E2CE010E94C11061ECCE010E94DE
:10243000791060E1CE010E94C11065ECCE010E94CE
:1024400079106EE3CE010E94C11068E2CE010E94B5
:10245000C11067ECCE010E94791066E8CE010E949F
:10246000C11066E3CE010E94791068E4CE010E949B
:10247000C1106AE3CE010E94791065E5CE010E9489
:10248000C11061EBCE010E94791060E0CE010E9484
:10249000C11068E1CE010E94C11066EBCE010E941E
:1024A000791068E0CE010E94C11062E8CE010E945E
:1024B000C11067E2CE010E94C11062EFCE010E94FE
:1024C000791060E0CE010E94C11066E2CE010E9448
:1024D000791061E0CE010E94C11060EECE010E9431
:1024E00079106FE0CE010E94C11061E3CE010E941D
:1024F000C1106BE2CE010E94C1106CE0CE010E94BF
:10250000C1106EE0CE010E94C11068E0CE010E94B1
:10251000C1106EE4CE010E94C11061EFCE010E9495
:10252000C11067E3CE010E94C11067E0CE010E9496
:10253000C11060E1CE010E94C11063E0CE010E9493
:10254000C1106EE0CE010E94C11069E0CE010E9470
:10255000C11060E0CE010E94C11061EECE010E9468
:10256000791060E0CE010E94C1106EE0CE010E94A1
:10257000C11064E1CE010E94C11063E0CE010E944F
:10258000C11061E1CE010E94C11067E0CE010E943E
:10259000C11061E3CE010E94C11061ECCE010E9426
:1025A000C11068E4CE010E94C11068E0CE010E9413
:1025B000C1106FE0CE010E94C1106CE0CE010E94FC
:1025C000C11061E3CE010E94C11066E3CE010E94FA
:1025D000C1106FE0CE010E94C11061E1CE010E94E6
:1025E0007910888D81110E94111068E770E080E0F9
:1025F00090E00E940C24888D882321F080E591E0F2
:102600000E94F70F69E2CE010E947910888D88231D
:1026100021F0DF91CF910C941110DF91CF910895AB
:10262000CF92DF92FF920F931F93CF93DF9300D04F
:1026300000D01F92CDB7DEB76C01F62E6AE22B8375
:102640003A834D835C8379830E9479107981672F67
:10265000C6010E94C1106F2DC6010E94C1103A81AF
:10266000632FC6010E94C1102B81622FC6010E94F8
:10267000C1106BE2C6010E9479105C81652FC60112
:102680000E94C1104D81642FC6010E94C110612FAC
:10269000C6010E94C110602FC6010E94C1106CE2E9
:1026A000C6010F900F900F900F900F90DF91CF9178
:1026B0001F910F91FF90DF90CF900C947910AF9203
:1026C000BF92CF92DF92EF92FF920F931F93CF931F
:1026D000DF9300D0CDB7DEB75C017B01D22EC32ED5
:1026E00077FD63C0DC0118968D919C91199768174E
:1026F00079070CF05AC057FD58C01A968D919C91DD
:102700001B97481759070CF050C058968C91882396
:1027100041F080E591E049835A830E94F70F5A8186
:1027200049818A010F5F1F4F97012F5F3F4FB7010C
:10273000C5010E941013D5015E96ED91FC915F9743
:1027400080819D969C919D97892B80839296ED9197
:10275000FC91939790819C968C918095892380839E
:102760006C2DC5010E944A106D2DC5010E944A10B2
:10277000D5019296ED91FC91939780819C969C91C6
:102780009C97892B808358968C91882371F00F90A9
:102790000F90DF91CF911F910F91FF90EF90DF90FD
:1027A000CF90BF90AF900C9411100F900F90DF91CD
:1027B000CF911F910F91FF90EF90DF90CF90BF903E
:1027C000AF9008958F929F92AF92BF92CF92DF9277
:1027D000EF92FF920F931F93CF93DF9300D0CDB76B
:1027E000DEB74C016B017901B02EA12EDC011896E9
:1027F0008D919C911997681779070CF06AC01A9609
:102800008D919C911B97481759070CF062C09A0153
:102810002E0D3F1D821793071CF47C01E41AF50A64
:10282000F401808D882341F080E591E049835A834B
:102830000E94F70F5A8149818A010E0D1F1D015018
:1028400011099601B601C4010E941013D4015E96CD
:10285000ED91FC915F9780819D969C919D97892B2E
:1028600080839296ED91FC91939790819C968C91A8
:10287000809589238083E114F10461F06A2DC401FD
:102880000E944A106B2DC4010E944A10B1E0EB1A5D
:10289000F108F1CFD4019296ED91FC91939780814C
:1028A0009C969C919C97892B808358968C91882329
:1028B00081F00F900F90DF91CF911F910F91FF90BA
:1028C000EF90DF90CF90BF90AF909F908F900C943F
:1028D00011100F900F90DF91CF911F910F91FF90EA
:1028E000EF90DF90CF90BF90AF909F908F90089522
:1028F0008F929F92AF92BF92CF92DF92EF92FF9210
:102900000F931F93CF93DF9300D0CDB7DEB74C0169
:102910007B016901B02EA12EDC0118968D919C914E
:102920001997681779070CF06AC01A962D913C9197
:102930001B97421753070CF062C09B012C0D3D1DE5
:10294000821793071CF46C01C61AD70AF401808D14
:10295000882341F080E591E049835A830E94F70F74
:102960005A81498197012C0D3D1D215031098A0161
:10297000B701C4010E941013D4015E96ED91FC9141
:102980005F9780819D969C919D97892B80839296DD
:10299000ED91FC91939790819C968C9180958923E1
:1029A0008083C114D10461F06A2DC4010E944A10D1
:1029B0006B2DC4010E944A10B1E0CB1AD108F1CFAF
:1029C000D4019296ED91FC91939780819C969C9175
:1029D0009C97892B808358968C91882381F00F9047
:1029E0000F90DF91CF911F910F91FF90EF90DF90AB
:1029F000CF90BF90AF909F908F900C9411100F903C
:102A00000F90DF91CF911F910F91FF90EF90DF908A
:102A1000CF90BF90AF909F908F9008956F927F92CC
:102A20008F929F92AF92BF92CF92DF92EF92FF92DE
:102A30000F931F93CF93DF9300D0CDB7DEB73C0148
:102A40006B0159014801DC0118962D913C911997B1
:102A5000621773070CF080C01A968D919C911B979A
:102A6000481759070CF078C06A0D7B1D26173707E9
:102A70001CF45901AC18BD089A01280D391D8217A4
:102A800093071CF44C01841A950AF301808D882366
:102A900041F080E591E049835A830E94F70F5A8103
:102AA00049818A01080D191D0150110996012A0D4D
:102AB0003B1D21503109B601C3010E941013D301FF
:102AC0005E96ED91FC915F9780819D969C919D977C
:102AD000892B80839296ED91FC91939790819C969F
:102AE0008C9180958923808318141904A4F46501BE
:102AF0001C141D0464F46F2DC3010E944A106E2D36
:102B0000C3010E944A10B1E0CB1AD108F1CFE1E035
:102B10008E1A9108E9CFD3019296ED91FC9193978B
:102B200080819C969C919C97892B808358968C9150
:102B3000882391F00F900F90DF91CF911F910F910B
:102B4000FF90EF90DF90CF90BF90AF909F908F90CD
:102B50007F906F900C9411100F900F90DF91CF9198
:102B60001F910F91FF90EF90DF90CF90BF90AF90AB
:102B70009F908F907F906F9008954C7F38E0439F97
:102B8000C001112430E053E0359527955A95E1F7BF
:102B9000822B932B687F962B08951F93CF93DF93FF
:102BA000EC01162F888D882321F080E591E00E94AA
:102BB000F70F66E3CE010E947910612F63706D8B71
:102BC000623041F0633089F0613011F068E403C095
:102BD00068E20CC068E8CE010E94C11080EF90E06E
:102BE0009987888780E491E00AC068EECE010E9450
:102BF000C11080E491E09987888780EF90E09B87FF
:102C00008A87888D882329F0DF91CF911F910C94BA
:102C10001110DF91CF911F9108952F923F924F9203
:102C20005F926F927F928F929F92AF92BF92CF925C
:102C3000DF92EF92FF920F931F93CF93DF9300D019
:102C400000D0CDB7DEB74C017C836B836A0159019C
:102C5000C8018701AC014C195D0957FF03C05195AC
:102C60004195510995016B817C81261B370B37FFFC
:102C700003C031952195310922242394312C241746
:102C8000350714F0212C312C2114310459F03A2D40
:102C90002B2D5C01832F922F3B812C81DC82CB82F8
:102CA000C32ED22EAB81BC81AA16BB065CF43C2D90
:102CB0002D2D6C01832F922F3B812C81BC82AB8206
:102CC000A32EB22E2501EB81FC814E1A5F0A3C0136
:102CD0006C187D0877FE03C07194619471087201CD
:102CE00057FE03C0FFEFEF1AFF0AF594E794C816EA
:102CF000D9062CF421E030E03A83298324C06FEF19
:102D00007FEF7A8369831FC0D401ED91FC91048029
:102D1000F581E02D980121143104D9F04B815C81BB
:102D2000B601C4010995E618F708F7FE06C0E98167
:102D3000FA81CE0EDF1EE40CF51C2B813C812F5F47
:102D40003F4F3C832B836B817C81A616B706E4F64C
:102D500004C0A6016B817C81E4CF0F900F900F908F
:102D60000F90DF91CF911F910F91FF90EF90DF9027
:102D7000CF90BF90AF909F908F907F906F905F901B
:102D80004F903F902F9008956F927F928F929F92D5
:102D9000AF92BF92CF92DF92EF92FF920F931F9369
:102DA000CF93DF93EC015B016A0139014801E881AF
:102DB000F9810284F385E02D87010995E881F98185
:102DC000A601480D591D415051090284F385E02D9B
:102DD0009301B501CE010995E881F9810084F1855F
:102DE000E02D9401A601B501CE010995E881F98194
:102DF000B501660D771D615071090084F185E02DE4
:102E00009401A601CE010995DF91CF911F910F91F9
:102E1000FF90EF90DF90CF90BF90AF909F908F90FA
:102E20007F906F900895EF92FF920F931F93DC01B4
:102E3000ED91FC91240F351F215031090680F78157
:102E4000E02D780189019B0109951F910F91FF9059
:102E5000EF900895EF92FF920F931F93DC01ED9195
:102E6000FC91260F371F215031090680F781E02D94
:102E700078018A0109951F910F91FF90EF900895B5
:102E80006F927F928F929F92AF92BF92CF92DF927A
:102E9000EF92FF920F931F93CF93DF935C014A0150
:102EA00069013801EB01C60ED71ECC15DD0574F49F
:102EB000D501ED91FC910084F185E02D870193010E
:102EC000A401BE01C50109952196EFCFDF91CF91F5
:102ED0001F910F91FF90EF90DF90CF90BF90AF9038
:102EE0009F908F907F906F900895EF92FF920F9335
:102EF0001F93DC01ED91FC9111971A960D911C9195
:102F00001B9718962D913C9119970684F785E02D13
:102F10007B0140E050E060E070E009951F910F9167
:102F2000FF90EF9008950895FC01138212828AE2C7
:102F300091E091838083758364835783468371878F
:102F4000608753874287158A1586148617861686EA
:102F500021E0248B8FEF9FEF938B828B918B808B63
:102F6000268B08952F923F924F925F926F927F929D
:102F70008F929F92AF92BF92CF92DF92EF92FF9289
:102F80000F931F93CF93DF93CDB7DEB728970FB67C
:102F9000F894DEBF0FBECDBF5C011B015A8349838D
:102FA00038872F83FC82EB8288248394912C821AA9
:102FB000930A3901719461947108660C771C27019A
:102FC00023E0420E511CEE24E394F12C302F31709B
:102FD0003D8302700E83C7010197EF81F8858E173C
:102FE0009F070CF07BC097FC0AC08F8198850197E2
:102FF00098878F8392E0690E711C860C971CC20122
:10300000AB81BC818A1B9B0B880E991EBD81BB23A3
:1030100069F1D501ED91FC912F813885220F331F85
:103020002F5F3F4F8B819C81280F391F0084F185D2
:10303000E02D860149815A81AF81B8854A1B5B0B1F
:10304000B701620D731DC5010995D501ED91FC9184
:103050000084F185E02D920149815A814E195F0962
:103060006F817885620D731DC5010995BE81BB23F3
:1030700071F1D501ED91FC912F813885220F331F1D
:103080002F5F3F4F8B819C81280F391F0084F18572
:10309000E02D860149815A81AF81B8854A1B5B0BBF
:1030A000B1016E197F09C5010995D501ED91FC911A
:1030B0000084F185E02D920149815A814E195F0902
:1030C000B1018F819885681B790BC50109959FEF28
:1030D000E91AF90AA2E04A0E511C7DCF28960FB6D4
:1030E000F894DEBF0FBECDBFDF91CF911F910F913E
:1030F000FF90EF90DF90CF90BF90AF909F908F9018
:103100007F906F905F904F903F902F9008952F92F7
:103110003F924F925F926F927F928F929F92AF9267
:10312000BF92CF92DF92EF92FF920F931F93CF93B4
:10313000DF9300D000D000D0CDB7DEB75C017A833A
:1031400069833A013C832B834801FE82ED8226018C
:103150006701D194C194D108CC0CDD1C1B012E0C4D
:103160003F1CD501ED91FC912C0D3D1D0684F7858A
:10317000E02D7201B101C50109958C0C9D1CB1E0D7
:103180008B1A9108ED81FE816E0E7F1E69817A8116
:103190008B819C81680F791F6E1B7F0B61507109B9
:1031A0006201740101E09F01A301C5010E94B217F1
:1031B00002E02D813E81A301B101C5010E94B21739
:1031C00026960FB6F894DEBF0FBECDBFDF91CF912C
:1031D0001F910F91FF90EF90DF90CF90BF90AF9035
:1031E0009F908F907F906F905F904F903F902F9027
:1031F00008952F923F924F925F926F927F928F929B
:103200009F92AF92BF92CF92DF92EF92FF920F9375
:103210001F93CF93DF93CDB7DEB72C970FB6F894FB
:10322000DEBF0FBECDBF9C878B873A0118870F8307
:10323000FA86E986CD82DC0118968D919C911997CA
:10324000681779070CF094C01A968D919C911B9782
:10325000481759070CF08CC08C2C912CCB01B6E090
:10326000CB9E800D911D1124181619060CF080C0FC
:10327000C40153E0880F991F5A95E1F7860D971DF9
:10328000181619060CF074C0F5E02F9F20011124C8
:103290005B016B011C829201245D364F2901461AA5
:1032A000570A3C81353031F0F201EA0DFB1D4491A3
:1032B0004B8301C01B827A82698213011E828B813B
:1032C00080FF13C0AB85BC85ED91FC91BD81B13011
:1032D00031F40480F581E02D2F81388519C00684F2
:1032E000F785E02DEF80F8841EC0E985FA852F81EF
:1032F0003885E217F307F9F0AB85BC85ED91FC91B9
:10330000BD81B13059F40480F581E02D29853A85DD
:10331000A101B5018B859C8509950DC00684F785B3
:10332000E02DE984FA848401940149815A81B6012F
:103330008B859C850995EB81E695EB83FE81FF5F8C
:10334000FE8329813A81280D391D3A8329833FEF75
:10335000231A330AF83009F0B2CF4C814F5F4C8307
:10336000C80CD91C8FEFA81AB80A463009F099CFBB
:103370002C960FB6F894DEBF0FBECDBFDF91CF9174
:103380001F910F91FF90EF90DF90CF90BF90AF9083
:103390009F908F907F906F905F904F903F902F9075
:1033A0000895CF92EF92FF920F931F93CF93DF93E5
:1033B000EC01262F6A3049F42C898E859F8538E0F0
:1033C000239F800D911D112432C06D30A1F1EA8838
:1033D000FB88088919894E855F856C857D85CC8839
:1033E0000E94F9182C89422F50E08C859D8536E08B
:1033F000239F800D911D11249D878C872E89222368
:10340000D1F06AEF64039001659F300D1124688547
:103410007985260F371F281739076CF463E0440FAE
:10342000551F6A95E1F78E859F85840F951F9F87AD
:103430008E871D861C8681E090E0DF91CF911F91E1
:103440000F91FF90EF90CF900895FC0175876487EE
:10345000578746870895611101C061E0FC01648BC4
:103460000895FC01738B628B718B608B0895EF92D2
:10347000FF920F931F93CF93DF9300D0CDB7DEB7AA
:10348000062F142F682F8FE192E029833A830E9440
:10349000EA20602F8FE192E00E9491202981022F83
:1034A000E22E3A81F32E8E2D801B811740F4F70116
:1034B00061917F018FE192E00E949120F4CF8FE132
:1034C00092E00E94072191E0811190E0892F0F90F6
:1034D0000F90DF91CF911F910F91FF90EF90089582
:1034E000CF93DF931F92CDB7DEB749839E012F5F45
:1034F0003F4F41E00E94371A0F90DF91CF9108951E
:10350000DF92EF92FF920F931F93CF93DF93C62F1B
:10351000042F7901682F8FE192E00E94EA206C2F3E
:103520008FE192E00E94912010E0000F111FD12C3A
:10353000CD2DD0E0C017D1078CF4CC0FDD1FCE0D00
:10354000DF1D69818FE192E00E94912068818FE107
:1035500092E00E949120D394D394EACF8FE192E03D
:103560000E94072191E0811190E0892FDF91CF9196
:103570001F910F91FF90EF90DF900895CF93DF930D
:1035800000D0CDB7DEB75A8349839E012F5F3F4FEE
:1035900041E00E94801A0F900F90DF91CF91089523
:1035A0003F924F925F926F927F928F929F92AF92D3
:1035B000BF92CF92DF92EF92FF920F931F93CF9320
:1035C000DF9300D000D000D0CDB7DEB7682E562EE6
:1035D000742E3A8329830E94DD236B017C01312CF8
:1035E000412C872D90E09C838B834801A12CB12C2A
:1035F0003714B0F5662D8FE192E00E94EA20652D28
:103600008FE192E00E9491208FE192E00E940721D9
:10361000662D8FE192E00E94EA204B815C81431984
:1036200051094132510514F040E250E0662D8FE11E
:1036300092E00E94E7208FE192E00E943920892BDE
:1036400059F10115110579F10E94DD236C197D09ED
:103650008E099F09681579058A059B0520F11CC014
:103660000115110589F10E94DD236C197D098E0970
:103670009F0920E030E0601771078207930720F16F
:10368000872D90E0242D332727FD30952817390703
:10369000DCF444244A9418C0872D90E2971508F46E
:1036A00080E2380EA5CFE981FA81E40DF11D47FCD7
:1036B000FA95FE83ED838FE192E00E944120ED8137
:1036C000FE8180834394B7CF842D26960FB6F8945D
:1036D000DEBF0FBECDBFDF91CF911F910F91FF9045
:1036E000EF90DF90CF90BF90AF909F908F907F90A2
:1036F0006F905F904F903F9008950F931F938901B3
:103700009A0141E00E94D01A1F910F910895CF9223
:10371000DF92EF92FF920F931F93CF93DF931F924D
:10372000CDB7DEB7C42ED22E9701AE014F5F5F4FEB
:103730000E947D1B8823F1F04C2D50E04D1951095A
:103740004F5F5F4F61E070E002C0660F771FDA9451
:10375000E2F761507109042E01C0660F0A94EAF77E
:103760002981262330E002C0359527954A95E2F756
:10377000F80120830F90DF91CF911F910F91FF905F
:10378000EF90DF90CF900895EF92FF920F931F93E9
:10379000CF93DF931F92CDB7DEB7182F062FF42EED
:1037A000E22E20910C0130910D01AE014F5F5F4F71
:1037B0000E947D1B898121E030E00F2C01C0220F87
:1037C0000A94EAF7EE2019F0482F422B03C0422F4B
:1037D000409548234983602F812F0E94701A0F90D3
:1037E000DF91CF911F910F91FF90EF900895DF929D
:1037F000EF92FF920F931F93CF93DF931F92CDB75A
:10380000DEB7F82EE62ED42E122F20910C01309127
:103810000D01AE014F5F5F4F0E947D1B882319F1A0
:103820004D2D50E0411B51094F5F5F4FE1E0F0E04B
:1038300002C0EE0FFF1F1A95E2F73197042E01C068
:10384000EE0F0A94EAF701C0000F4A95EAF74E2FEF
:10385000409589814823E0234E2B49836E2D8F2D7F
:103860000E94701A01C080E00F90DF91CF911F91EC
:103870000F91FF90EF90DF90089528E6FC012083E0
:103880000895462F69E1FC0180810C94701A0F9312
:10389000062F23E045E06AE1FC0180810E94F71BCE
:1038A0000F9108950F93062F23E042E06AE1FC0197
:1038B00080810E94F71B0F9108950F93062F22E03D
:1038C00044E06BE1FC0180810E94F71B0F91089599
:1038D0000F93062F22E044E06CE1FC0180810E94FE
:1038E000F71B0F910895462F6FE1FC0180810C9426
:1038F000701A462F60E2FC0180810C94701A462FEA
:1039000061E2FC0180810C94701A462F62E2FC0196
:1039100080810C94701A643048F4262F220F260FF1
:103920002B5D622FFC0180810C94701A0895462F44
:1039300068E3FC0180810C94701ACF93DF93EC0153
:1039400020910C0130910D01AC014F5F5F4F6AE394
:1039500088810E947D1B8981DF91CF910895262F58
:1039600046E06AE6FC0180810C94C41B262F45E0EA
:103970006AE6FC0180810C94C41B21E042E06AE607
:10398000FC0180810C94C41B21E041E06AE6FC014B
:1039900080810C94C41B21E047E06BE6FC01808130
:1039A0000C94C41B262F46E06BE6FC0180810C942E
:1039B000C41B0F93062F23E042E06BE6FC018081DD
:1039C0000E94F71B0F910895CF93DF93EC0161E004
:1039D0000E94D91C60E0CE010E945D1C60E0CE0117
:1039E0000E94681C60E0CE01DF91CF910C94D21C44
:1039F0000F931F93CF93DF93EC0100910C01109173
:103A00000D019C012F5F3F4F42E062E788810E94D9
:103A1000D01A898190E0982F88272A81822BDF9104
:103A2000CF911F910F9108950F931F939B014423F2
:103A300051F000910C0110910D0164E7FC018081AF
:103A40000E94D01A02C0FB0110821F910F910895AD
:103A5000262F40E060E0FC0180810C94C41BEF92B3
:103A6000FF920F931F93CF93DF93EC01E0900C0133
:103A7000F0900D018C010F5F1F4F26E046E060E0E3
:103A800088810E94871B8981DF91CF911F910F91BF
:103A9000FF90EF9008950F93062F26E046E060E038
:103AA000FC0180810E94F71B0F910895EF92FF9215
:103AB0000F931F93CF93DF93EC01E0900C01F090F4
:103AC0000D018C010F5F1F4F26E046E061E0888109
:103AD0000E94871B8981DF91CF911F910F91FF90E9
:103AE000EF9008950F93062F26E046E061E0FC0179
:103AF00080810E94F71B0F910895EF92FF920F9320
:103B00001F93CF93DF93EC01E0900C01F0900D0137
:103B10008C010F5F1F4F26E046E062E088810E9423
:103B2000871B8981DF91CF911F910F91FF90EF90BB
:103B300008950F93062F26E046E062E0FC018081A5
:103B40000E94F71B0F910895AB016AE0FC01808190
:103B50000C94BE1AAB0163E1FC0180810C94BE1A87
:103B6000AB0165E1FC0180810C94BE1AAB0167E1F9
:103B7000FC0180810C94BE1A262F47E06AE6FC0106
:103B800080810C94C41B21E043E06AE6FC01808143
:103B90000C94C41B6F712111606241116064462F47
:103BA0006DE6FC0180810C94701A462F6EE6FC01D4
:103BB00080810C94701A5F926F927F928F929F9285
:103BC000AF92BF92CF92DF92EF92FF920F931F932B
:103BD000CF93DF937C015B016A01622E702E20E09F
:103BE00040E0662D0E94CA1D602FC7010E94D51DAE
:103BF000C0E0D0E0812C99249394CC15DD05A8F584
:103C0000CE014096C816D90618F45C2C5C1A02C086
:103C1000A0E15A2E252D30E0C401871991098217A1
:103C2000930714F4572C519400910C0110910D013D
:103C300095012C0F3D1F452D6FE6F70180810E94F5
:103C4000D01AC50DD11D750CCC15DD05B0F671105F
:103C500001C0639420E040E0662DC7010E94CA1DA8
:103C6000672DC7010E94D51DC8CFDF91CF911F914D
:103C70000F91FF90EF90DF90CF90BF90AF909F900B
:103C80008F907F906F905F9008952F923F924F9208
:103C90005F926F927F928F929F92AF92BF92CF92DC
:103CA000DF92EF92FF920F931F93CF93DF9300D099
:103CB00000D01F92CDB7DEB79D838C837B836A8350
:103CC0004A01322ED02EE98220E040E0632D0E948E
:103CD000CA1D602F8C819D810E94D51DE980EE2038
:103CE00029F080E190E00E94182A5C01CC2039F094
:103CF00080E190E00E94182A582E292E02C0512CF3
:103D0000212CE12CF12CE814F90408F07AC0C70149
:103D100040968816990618F4482C4E1802C010E1F7
:103D2000412E242D30E080E091E08D199109821719
:103D3000930714F44D2C4194EA81FB81EE0DFF1D95
:103D4000CC2059F0852DA52DB22D9A2F981B9415B6
:103D500030F494919D933196F8CF5E2E2F2E252D21
:103D6000322D442D6FE6AC81BD818C910E94371AB3
:103D7000642C712CB981BB2369F1A114B10451F1F8
:103D800020E040E0632D8C819D810E94CA1D6D2D35
:103D90008C819D810E94D51D00910C0110910D0117
:103DA0009501442D6FE6EC81FD8180810E94D01A3F
:103DB000A301B501852D922D0E940E2C892B51F067
:103DC000C5010E94B02ACC2049F1852D922D0E9478
:103DD000B02A24C0E60CF71CD40CE814F90408F04F
:103DE00092CFD11001C0339420E040E0632D8C814C
:103DF0009D810E94CA1D6D2D8C819D810E94D51DC3
:103E000082CFF981FF2319F0C5010E94B02ACC208E
:103E100039F0852D922D0E94B02A02C080E001C0A9
:103E200081E00F900F900F900F900F90DF91CF9146
:103E30001F910F91FF90EF90DF90CF90BF90AF90C8
:103E40009F908F907F906F905F904F903F902F90BA
:103E50000895CF92EF920F93CC24C3940E94451EF5
:103E60000F91EF90CF9008952F923F924F925F92D3
:103E70006F927F928F929F92AF92BF92CF92DF927A
:103E8000EF92FF920F931F93CF93DF9300D01F9277
:103E9000CDB7DEB74C017B836A833A01D22E222351
:103EA00039F088E090E00E94182A182FF92E02C0FD
:103EB00010E0F12C212C312C2614370408F051C0CD
:103EC000EA81FB81E20DF31DC10103965C01DD2057
:103ED000C1F04491F10131968A819B81E80FF91F6D
:103EE0000491F1013296E80FF91F5490511044C02B
:103EF000F4E02F0E311CEA81FB81EA0DFB1D849159
:103F00000DC0408101815280EA81FB81E80FF91FD9
:103F100051100DC084E0280E311C80818130D1F415
:103F200042E368E3F40180810E94701AC5CF1E2F1E
:103F3000FF2E452C512CC12CEE24E394242FA201FA
:103F4000612F7F2DC4010E94451E12012A0C3B1CCB
:103F50008111B2CFDD2061F0812F9F2D0E94B02A08
:103F600007C0DD2039F0812F9F2D0E94B02A02C0AA
:103F700080E024C081E022C0252C312CF2E0F51530
:103F800048F4B101812F9F2D49830E943F2B182FA8
:103F9000F92E4981812F9F2DA0E0B0E02A813B813D
:103FA0002A0D3B1DA215B30520F6F901EA0FFB1FF0
:103FB0005491FC015193CF011196F4CF0F900F90C3
:103FC0000F90DF91CF911F910F91FF90EF90DF90B5
:103FD000CF90BF90AF909F908F907F906F905F90A9
:103FE0004F903F902F90089521E00C94341F462F5E
:103FF00060E7FC0180810C94701A462F61E7FC0198
:1040000080810C94701ACF93CFB7F89480911E02E0
:10401000811127C0E9E5FEE08491E5E4FEE094919A
:10402000E82FF0E0EE0FFF1FE359F14FA591B49197
:104030008C91892321F461E08AE00E94D12461E01F
:104040008AE00E9498248CB580618CBD8CB5806418
:104050008CBD61E08DE00E94982461E08BE00E94BD
:10406000982480911E028F5F80931E02CFBFCF9154
:10407000089580914F0290E020915002821B910997
:1040800008952091500280914F02281750F4E22F9A
:10409000F0E0EF5AFD4F808190E02F5F20935002B7
:1040A00008958FEF9FEF0895E091500280914F02A5
:1040B000E81730F4F0E0EF5AFD4F808190E008956A
:1040C0008FEF9FEF08950895CF92DF92EF92FF92C6
:1040D0000F931F93CF93DF937C01CB018A01209133
:1040E0002B02222389F0EB016B01C40ED51ECC15E7
:1040F000DD0569F06991D701ED91FC910190F081A6
:10410000E02DC7010995F3CF642F0E94C321C80198
:10411000DF91CF911F910F91FF90EF90DF90CF90A3
:104120000895CF93DF931F92CDB7DEB769832091B7
:104130002B022223D1F020912C02203240F021E0EA
:1041400030E0FC013383228380E090E015C0809151
:104150002D02E82FF0E0E25DFD4F998190838F5FA3
:1041600080932D0280932C0205C061E0CE01019660
:104170000E94C32181E090E00F90DF91CF910895DC
:10418000FC011382128248EE53E060E070E0448349
:1041900055836683778382E491E0918380830895D9
:1041A0001092500210924F0210922D0210922C0287
:1041B0000C940E21862F413208F040E261E572E056
:1041C0000E942C211092500280934F02089521E00A
:1041D0000C94DA2081E080932B0260934E021092BF
:1041E0002D0210922C0208950F93062F21E040918A
:1041F0002C026EE272E080914E020E9470211092B9
:104200002D0210922C0210922B020F91089561E062
:104210000C94F4208FE192E00C94C0201092DE0206
:1042200081E08093DC021092DB0261E082E10E9477
:10423000D12461E083E10E94D124E9EBF0E08081A8
:104240008E7F808380818D7F808388E48093B80017
:1042500085E48093BC000895413208F03FC09091FE
:10426000DE029111FCCF91E09093DE022093DC02FC
:104270002FEF209371021092B602240F2093B50203
:104280009093DD029091DD02880F892B8093DD02EF
:104290008091DB02813041F41092DB028091DD02DB
:1042A0008093BB0085EC01C085EE8093BC008091BB
:1042B000DE028130E1F38091B602841710F4409160
:1042C000B60227EB32E0FB01D9018A2F821B84174B
:1042D00018F48D918193F9CF842F089580E008958B
:1042E0000F93413208F046C09091DE029111FCCF4D
:1042F00092E09093DE020093DC029FEF90937102B4
:104300001092B6024093B502FB0167EB72E0DB014D
:104310009A2F961B941718F491919D93F9CF1092B0
:10432000DD029091DD02880F892B8093DD02809160
:10433000DB02813041F41092DB028091DD02809338
:10434000BB0085EC01C085EE8093BC00222321F0E8
:104350008091DE028230E1F3809171028F3F61F043
:1043600080917102803251F080917102803341F46A
:1043700083E007C081E005C080E003C082E001C0A7
:1043800084E00F910895613298F42091DE02243088
:1043900089F460939302FC0185E992E0DC012A2F05
:1043A000281B261718F421912D93F9CF80E008954A
:1043B00081E0089582E0089585ED8093BC008091AE
:1043C000BC0084FDFCCF1092DE02089585EC809342
:1043D000BC001092DE0208951F920F920FB60F924A
:1043E00011242F933F934F935F936F937F938F93FA
:1043F0009F93AF93BF93EF93FF938091B900887F12
:10440000803609F49CC068F5883209F45BC090F4EA
:10441000803109F454C038F4882309F4F5C0883099
:1044200009F44DC0F5C0883109F44CC0803209F45C
:104430005DC0EEC0803409F468C048F4803309F4EC
:1044400055C0883309F0E4C080937102A8C080355C
:1044500009F44FC0883509F45DC0883409F0D8C02C
:10446000D5C0883909F4C6C0A8F4883709F467C0F4
:1044700038F4883609F463C0803709F460C0C8C0D6
:10448000883809F4B7C0803909F45FC0803809F072
:10449000BFC05BC0803B09F485C038F4803A09F4A2
:1044A00066C0883A09F47EC0B3C0803C09F4A6C057
:1044B000883C09F4A3C0883B09F489C0A9C0809155
:1044C000DD0210C09091B6028091B502981770F588
:1044D000E091B60281E08E0F8093B602F0E0E954DD
:1044E000FD4F80818093BB0085EC85C08093710275
:1044F0008DC0E091B60281E08E0F8093B60280916C
:10450000BB00F0E0E954FD4F80839091B6028091AA
:10451000B5026DC0E091B60281E08E0F8093B602C5
:104520008091BB00F0E0E954FD4F80838091DC0274
:1045300081116CC081E08093DB0284EA60C083E07B
:104540008093DE0210927202CFCF8091720280328D
:1045500008F050C0E091720281E08E0F80937202E9
:104560008091BB00F0E0ED58FD4F8083BDCF80917E
:104570007202803230F4E0917202F0E0ED58FD4FAB
:1045800010820E94DC216091720270E0E091D702FB
:10459000F091D80283E792E00995109272020E948E
:1045A000E62136C084E08093DE02109294021092DD
:1045B0009302E091D902F091DA0209958091930279
:1045C000811105C081E08093930210929502E091E1
:1045D000940281E08E0F80939402F0E0EB56FD4F41
:1045E00080818093BB0090919402809193029817F0
:1045F00008F47ACF85E88093BC000AC085EC8093EC
:10460000BC001092DE0204C0109271020E94DC21F4
:10461000FF91EF91BF91AF919F918F917F916F919A
:104620005F914F913F912F910F900FBE0F901F9070
:1046300018958230E8F4E82FF0E0EE0FFF1FE1520A
:10464000FD4F71836083813041F0809169008C7FE0
:10465000842B80936900E89A089580916900440F43
:10466000551F440F551F837F842B80936900E99A5F
:1046700008951F920F920FB60F9211242F933F931C
:104680004F935F936F937F938F939F93AF93BF935A
:10469000EF93FF938091DF029091E002892B29F044
:1046A000E091DF02F091E0020995FF91EF91BF9157
:1046B000AF919F918F917F916F915F914F913F91BA
:1046C0002F910F900FBE0F901F9018951F920F9271
:1046D0000FB60F9211242F933F934F935F936F93D5
:1046E0007F938F939F93AF93BF93EF93FF938091AB
:1046F000E1029091E202892B29F0E091E102F09130
:10470000E2020995FF91EF91BF91AF919F918F9137
:104710007F916F915F914F913F912F910F900FBEBD
:104720000F901F9018951F920F920FB60F921124A1
:104730002F933F938F939F93AF93BF938091E40206
:104740009091E502A091E602B091E7023091E30278
:1047500023E0230F2D3720F40196A11DB11D05C0C4
:1047600026E8230F0296A11DB11D2093E30280933A
:10477000E4029093E502A093E602B093E7028091F1
:10478000E8029091E902A091EA02B091EB02019651
:10479000A11DB11D8093E8029093E902A093EA0263
:1047A000B093EB02BF91AF919F918F913F912F9169
:1047B0000F900FBE0F901F9018952FB7F89460912F
:1047C000E4027091E5028091E6029091E7022FBF2A
:1047D00008953FB7F8948091E8029091E902A09182
:1047E000EA02B091EB0226B5A89B05C02F3F19F055
:1047F0000196A11DB11D3FBF6627782F892F9A2FE3
:10480000620F711D811D911D42E0660F771F881F89
:10481000991F4A95D1F70895CF92DF92EF92FF92B8
:10482000CF93DF936B017C010E94E923EB01C1145C
:10483000D104E104F10489F00E9450260E94E9238A
:104840006C1B7D0B683E734090F381E0C81AD10861
:10485000E108F108C851DC4FEACFDF91CF91FF901A
:10486000EF90DF90CF900895789484B5826084BDF6
:1048700084B5816084BD85B5826085BD85B5816064
:1048800085BDEEE6F0E0808181608083E1E8F0E0C4
:104890001082808182608083808181608083E0E8F3
:1048A000F0E0808181608083E1EBF0E080818460D2
:1048B0008083E0EBF0E0808181608083EAE7F0E0D4
:1048C0008081846080838081826080838081816038
:1048D00080838081806880831092C1000895833036
:1048E00081F028F4813099F08230A1F0089587306A
:1048F000A9F08830B9F08430D1F4809180008F7DA8
:1049000003C0809180008F7780938000089584B5E4
:104910008F7702C084B58F7D84BD08958091B000EB
:104920008F7703C08091B0008F7D8093B000089591
:10493000CF93DF9390E0FC01E55CF14F2491FC0103
:10494000E15BF14F8491882349F190E0880F991F32
:10495000FC01E359F14FA591B4918D59914FFC01A0
:10496000C591D4919FB7611108C0F8948C9120959E
:1049700082238C93888182230AC0623051F4F89498
:104980008C91322F309583238C938881822B88835E
:1049900004C0F8948C91822B8C939FBFDF91CF91B0
:1049A00008950F931F93CF93DF931F92CDB7DEB778
:1049B000282F30E0F901E95DF14F8491F901E55CC0
:1049C000F14F1491F901E15BF14F04910023C9F01B
:1049D000882321F069830E946F246981E02FF0E031
:1049E000EE0FFF1FED59F14FA591B4919FB7F894C9
:1049F0008C91611103C01095812301C0812B8C9390
:104A00009FBF0F90DF91CF911F910F9108950E944A
:104A1000092C08950E9434240E9409250E94B70C95
:104A2000C0E0D0E00E94BF0D2097E1F30E9400009B
:104A3000F9CFCF92DF92EF92FF920F931F93CF9314
:104A4000DF936C017A01EB01E60EF71E00E010E047
:104A5000CE15DF0561F06991D601ED91FC910190D1
:104A6000F081E02DC6010995080F191FF1CFC8018B
:104A7000DF91CF911F910F91FF90EF90DF90CF903A
:104A800008956115710581F0DB010D900020E9F7B3
:104A9000AD0141505109461B570BDC01ED91FC91D2
:104AA0000280F381E02D099480E090E00895DC011C
:104AB000ED91FC910190F081E02D09948F929F92ED
:104AC000AF92BF92CF92DF92EF92FF920F931F931C
:104AD000CF93DF93CDB7DEB7A1970FB6F894DEBFC3
:104AE0000FBECDBF7C01C42EE52FCB01D22E19A263
:104AF00021E02D1510F02AE0D22E8E010F5D1F4F00
:104B00008D2C912CA12CB12C6C2D7E2FA501940104
:104B10000E94B7298C2DD29E8019112401501109B1
:104B20008A3014F4805D01C0895CF801808321150E
:104B300031054105510521F0C22EE32FCA01E4CF12
:104B4000B801C7010E944125A1960FB6F894DEBFB7
:104B50000FBECDBFDF91CF911F910F91FF90EF90CE
:104B6000DF90CF90BF90AF909F908F900895CF929D
:104B7000DF92EF92FF920F931F93CF93DF93EC019D
:104B80006A017B012115310579F4E881F9810190F1
:104B9000F081E02D642FDF91CF911F910F91FF9055
:104BA000EF90DF90CF9009942A303105E9F477FF38
:104BB0001AC06DE20E9457258C0144275527BA017F
:104BC0004C195D096E097F092AE0CE010E945E251D
:104BD000800F911FDF91CF911F910F91FF90EF9068
:104BE000DF90CF9008952AE0B701A601CE01DF91B2
:104BF000CF911F910F91FF90EF90DF90CF900C9489
:104C00005E259A01AB01662757FD6095762F0C94BF
:104C1000B7254F925F926F927F92AF92BF92CF92E1
:104C2000DF92EF92FF920F931F93CF93DF93CDB755
:104C3000DEB729013A01621B730B840B950B29899E
:104C40003A894B895C892A193B094C095D09298BF2
:104C50003A8B4B8B5C8B9B01AC0169897A898B8980
:104C60009C890E94A729E418F50806091709A801DC
:104C700097010E94D9292A0D3B1D4C1D5D1DCA01BB
:104C8000B901DF91CF911F910F91FF90EF90DF90CD
:104C9000CF90BF90AF907F906F905F904F900895AE
:104CA00008955058BB27AA270ED038C201D230F041
:104CB00006D220F031F49F3F11F41EF4C0C10EF46F
:104CC000E095E7FBB6C1E92F4BD280F3BA17620734
:104CD00073078407950718F071F49EF563C20EF40C
:104CE000E0950B2EBA2FA02D0B01B90190010C01FC
:104CF000CA01A0011124FF27591B99F0593F50F414
:104D0000503E68F11A16F040A22F232F342F44276B
:104D1000585FF3CF469537952795A795F040539563
:104D2000C9F77EF41F16BA0B620B730B840BBAF033
:104D30009150A1F0FF0FBB1F661F771F881FC2F79E
:104D40000EC0BA0F621F731F841F48F487957795B2
:104D50006795B795F7959E3F08F0B3CF9395880F69
:104D600008F09927EE0F979587950895A1D158F0EF
:104D700080E891E009F49EEFA2D128F040E851E0EC
:104D800059F45EEF09C05BC10DC2E92FE078E8D1AC
:104D900068F3092E052AC1F3261737074807590774
:104DA00038F00E2E07F8E02569F0E025E0640AC02F
:104DB000EF6307F8009407FADB01B9019D01DC01FC
:104DC000CA01AD01EF934AD0A9D10AD05F91552312
:104DD00031F02BED3FE049E450FD49EC63CF0895FD
:104DE000DF93DD27B92FBF7740E85FE3161617067C
:104DF00048075B0710F4D92FE0D19F938F937F93DF
:104E00006F938DD2E8E6F0E01DD188D12F913F91CC
:104E10004F915F91E5D1DD2349F09058A2EA2AED48
:104E20003FE049EC5FE3D0785D274DDFDF9176C14D
:104E3000DCD008F481E008954AD1E39580C10CD01C
:104E40006DC13DD140F034D130F021F45F3F19F015
:104E5000F0C05111A8C1F3C083D198F39923C9F3CD
:104E60005523B1F3951B550BBB27AA276217730770
:104E7000840738F09F5F5F4F220F331F441FAA1F24
:104E8000A9F333D00E2E3AF0E0E830D091505040E4
:104E9000E695001CCAF729D0FE2F27D0660F771F92
:104EA000881FBB1F261737074807AB07B0E809F074
:104EB000BB0B802DBF01FF2793585F4F2AF09E3F09
:104EC000510568F0B6C06FC15F3FECF3983EDCF36C
:104ED000869577956795B795F7959F5FC9F7880F82
:104EE000911D9695879597F90895E1E0660F771FD4
:104EF000881FBB1F621773078407BA0720F0621B65
:104F0000730B840BBA0BEE1F88F7E095089504D05D
:104F10006894B11148C108952BD188F09F5790F043
:104F2000B92F9927B751A0F0D1F0660F771F881FCE
:104F3000991F1AF0BA95C9F712C0B13081F032D179
:104F4000B1E008952FC1672F782F8827B85F39F017
:104F5000B93FCCF3869577956795B395D9F73EF42D
:104F600090958095709561957F4F8F4F9F4F0895D5
:104F7000E89409C097FB3EF49095809570956195F3
:104F80007F4F8F4F9F4F9923A9F0F92F96E9BB27A9
:104F90009395F695879577956795B795F111F8CF25
:104FA000FAF4BB0F11F460FF1BC06F5F7F4F8F4F90
:104FB0009F4F16C0882311F096E911C0772321F086
:104FC0009EE8872F762F05C0662371F096E8862F1E
:104FD00070E060E02AF09A95660F771F881FDAF775
:104FE000880F9695879597F90895990F0008550FA2
:104FF000AA0BE0E8FEEF16161706E807F907C0F05F
:1050000012161306E407F50798F0621B730B840B66
:10501000950B39F40A2661F0232B242B252B21F440
:1050200008950A2609F4A140A6958FEF811D811DE0
:10503000089597F99F6780E870E060E008959FEF1A
:1050400080EC0895DF93CF931F930F93FF92EF921D
:10505000DF927B018C01689405C0DA2EEF01C0D08D
:10506000FE01E894A5912591359145915591AEF3B6
:10507000EF0129DEFE019701A801DA9479F7DF90AC
:10508000EF90FF900F911F91CF91DF9108959F9323
:105090008F937F936F93FF93EF939B01AC0194D019
:1050A000EF91FF91CFDF2F913F914F915F918CC096
:1050B00000240A94161617061806090608950024F7
:1050C0000A9412161306140605060895B8CF50D098
:1050D000E8F3E894E0E0BB279F57F0F02AED3FE0CB
:1050E00049EC06C0EE0FBB0F661F771F881F28F024
:1050F000B23A62077307840728F0B25A620B730B47
:10510000840BE3959A9572F7803830F49A95BB0F2B
:10511000661F771F881FD2F7904806C1092E039497
:10512000000C11F4882352F0BB0F40F4BF2B11F494
:1051300060FF04C06F5F7F4F8F4F9F4F0895EF93C5
:10514000E0FF06C0A2EA2AED3FE049EC5FEBBBDDE1
:10515000E5DF0F90039401FC9058E5E9F0E097CF6C
:1051600057FD9058440F551F59F05F3F71F0479518
:10517000880F97FB991F61F09F3F79F087950895FD
:10518000121613061406551FF2CF4695F1DF08C01C
:10519000161617061806991FF1CF86957105610539
:1051A00008940895E894BB2766277727CB0197F9E1
:1051B00008951BDF08F48FEF08959B01AC0160E0B8
:1051C00070E080E89FE33BCE0BD0A8CF71DF28F0E2
:1051D00076DF18F0952309F02CCF31CF1124E3CFDF
:1051E000BFDFA0F3959FD1F3950F50E0551F629F4D
:1051F000F001729FBB27F00DB11D639FAA27F00D30
:10520000B11DAA1F649F6627B00DA11D661F829F56
:105210002227B00DA11D621F739FB00DA11D621F3B
:10522000839FA00D611D221F749F3327A00D611D58
:10523000231F849F600D211D822F762F6A2F11243A
:105240009F5750408AF0E1F088234AF0EE0FFF1F8D
:10525000BB1F661F771F881F91505040A9F79E3FC4
:10526000510570F0E6CE9FCF5F3FECF3983EDCF344
:10527000869577956795B795F795E7959F5FC1F701
:10528000FE2B880F911D9695879597F908959F930A
:105290001EDF0F9007FCEE5F52CF11F40EF4CFCE5D
:1052A00041C066DFD0F39923D9F3CEF39F57550B56
:1052B00087FF46D00024A0E640EA9001805856952A
:1052C000979528F4805C660F771F881F20F02617BB
:1052D0003707480730F4621B730B840B20293129F0
:1052E0004A2BA69517940794202531254A2758F76D
:1052F000660F771F881F20F026173707480730F4FE
:10530000620B730B840B200D311D411DA09581F79D
:10531000B901842F9158880F9695879508959B0120
:10532000AC0152CF9F3F31F0915020F48795779593
:105330006795B795880F911D9695879597F908956C
:1053400091505040660F771F881FD2F70895DB01F8
:105350008F939F930E94F829BF91AF91A29F800DD8
:10536000911DA39F900DB29F900D11240895A1E26D
:105370001A2EAA1BBB1BFD010DC0AA1FBB1FEE1FCF
:10538000FF1FA217B307E407F50720F0A21BB30B1A
:10539000E40BF50B661F771F881F991F1A9469F796
:1053A00060957095809590959B01AC01BD01CF01F2
:1053B0000895052E97FB1EF400940E94F02957FDD6
:1053C00007D00E94B72907FC03D04EF40C94F029B3
:1053D00050954095309521953F4F4F4F5F4F089521
:1053E00090958095709561957F4F8F4F9F4F089551
:1053F0000E94092AA59F900DB49F900DA49F800D37
:10540000911D11240895EE0FFF1F0590F491E02DDA
:105410000994A29FB001B39FC001A39F700D811D8D
:105420001124911DB29F700D811D1124911D0895AD
:10543000CF93DF938230910510F482E090E0E09109
:10544000EE02F091EF0220E030E0A0E0B0E0309713
:1054500039F14081518148175907B8F04817590769
:1054600071F482819381109729F013969C938E9307
:1054700012972CC09093EF028093EE0227C0211563
:10548000310531F04217530718F0A901DB0101C0C3
:10549000EF019A01BD01DF010280F381E02DD7CF3A
:1054A00021153105F9F0281B390B2430310580F422
:1054B0008A819B816115710521F0FB0193838283B1
:1054C00004C09093EF028093EE02FE01329644C036
:1054D000FE01E20FF31F819391932250310939832A
:1054E00028833AC02091EC023091ED02232B41F445
:1054F00020910201309103013093ED022093EC02E0
:1055000020910001309101012115310541F42DB7A1
:105510003EB74091040150910501241B350BE091E9
:10552000EC02F091ED02E217F307A0F42E1B3F0B03
:105530002817390778F0AC014E5F5F4F2417350705
:1055400048F04E0F5F1F5093ED024093EC028193A1
:10555000919302C0E0E0F0E0CF01DF91CF91089598
:10556000CF93DF93009709F487C0FC013297138231
:105570001282C091EE02D091EF02209781F4208137
:105580003181280F391F8091EC029091ED02821732
:10559000930779F5F093ED02E093EC026DC0DE0124
:1055A00020E030E0AE17BF0750F412964D915C91A9
:1055B00013979D014115510509F1DA01F3CFB3832A
:1055C000A28340815181840F951F8A179B0771F434
:1055D0008D919C911197840F951F029691838083E2
:1055E00012968D919C911397938382832115310597
:1055F00029F4F093EF02E093EE023EC0D901139636
:10560000FC93EE9312974D915D91A40FB51FEA178D
:10561000FB0779F480819181840F951F0296D9014F
:1056200011969C938E938281938113969C938E9373
:105630001297E0E0F0E08A819B81009719F0FE016B
:10564000EC01F9CFCE01029628813981820F931F98
:105650002091EC023091ED022817390769F4309758
:1056600029F41092EF021092EE0202C0138212820D
:10567000D093ED02C093EC02DF91CF910895A0E0AA
:10568000B0E0E5E4FBE20C94282CEC01CB01209780
:1056900019F40E94182AB8C0FE01E60FF71F9E01F8
:1056A00022503109E217F30708F4ACC0D9010D917B
:1056B0001C91119706171707B8F00530110508F46B
:1056C0009FC0A801445051094617570708F498C0D5
:1056D00002501109061B170B019311936D937C93D4
:1056E000CF010E94B02A8CC05B01A01AB10A4E0102
:1056F000800E911EA091EE02B091EF02612C712CF0
:1057000060E070E0109709F449C0A815B905C9F523
:10571000ED90FC901197670142E0C40ED11CCA14B1
:10572000DB0478F147018A189B08640142E0C40E4B
:10573000D11C1296BC9012971396AC91B5E0CB1683
:10574000D10440F0B282A38391828082D9018D93EB
:105750009C9309C00E5F1F4F0E0D1F1DF901118391
:105760000083EB2DFA2F6115710531F0DB011396E3
:10577000FC93EE93129744C0F093EF02E093EE0295
:105780003FC06D917C9111976616770608F43B0136
:10579000BD0112960D90BC91A02DB4CF6091EC028A
:1057A0007091ED0268157905E9F468167906D0F470
:1057B00040910001509101014115510541F44DB74F
:1057C0005EB76091040170910501461B570BE41709
:1057D000F507C0F4F093ED02E093EC02F901918338
:1057E00080830EC00E94182A7C01009759F0A801FE
:1057F000BE010E941B2CCE010E94B02AC70104C02A
:10580000CE0102C080E090E0CDB7DEB7EEE00C94B0
:10581000442C81E090E0F8940C945B2CFB01DC01BB
:1058200004C08D910190801921F441505040C8F777
:10583000881B990B0895FB01DC0102C001900D92B9
:1058400041505040D8F708952F923F924F925F9267
:105850006F927F928F929F92AF92BF92CF92DF9280
:10586000EF92FF920F931F93CF93DF93CDB7DEB7E5
:10587000CA1BDB0B0FB6F894DEBF0FBECDBF099479
:105880002A88398848885F846E847D848C849B84D0
:10589000AA84B984C884DF80EE80FD800C811B81DE
:1058A000AA81B981CE0FD11D0FB6F894DEBF0FBE0D
:0A58B000CDBFED010895F894FFCF7D
:1058BA000000F0028000010000007800E803000008
:1058CA000000D11919255F130D16E2137814C416B6
:1058DA000E15D90F961000000000D11919250725B9
:1058EA000D1613172A17C4164017751793170000B9
:0E58FA000000912064203920412054206320BA
:00000001FF
