:100000000C9467050C9475150C94A2150C948F052F
:100010000C948F050C948F050C948F050C948F0510
:100020000C948F050C948F050C948F050C948F0500
:100030000C948F050C948F050C948F050C948F05F0
:100040000C94CF150C948F050C9488180C94BA1846
:100050000C948F050C948F050C948F050C948F05D0
:100060000C9428140C948F05084AD73B3BCE016EA4
:1000700084BCBFFDC12F3D6C74319ABD56833DDAFF
:100080003D00C77F11BED9E4BB4C3E916BAAAABE0E
:10009000000000803F004649464F206F766572663B
:1000A0006C6F7721002900444D5020496E697469B6
:1000B000616C697A6174696F6E206661696C6564F0
:1000C0002028636F64652000444D50207265616490
:1000D00079212057616974696E6720666F722066A6
:1000E0006972737420696E746572727570742E2EE5
:1000F0002E00456E61626C696E6720696E74657270
:100100007275707420646574656374696F6E2028FD
:1001100041726475696E6F2065787465726E616C8A
:1001200020696E746572727570742030292E2E2EBF
:1001300000456E61626C696E6720444D502E2E2E14
:1001400000496E697469616C697A696E6720444D13
:10015000502E2E2E000A53656E6420616E79206346
:10016000686172616374657220746F20626567698B
:100170006E20444D502070726F6772616D6D696EB4
:100180006720616E642064656D6F3A20004D5055A4
:100190003630353020636F6E6E656374696F6E2024
:1001A0006661696C6564004D5055363035302063AA
:1001B0006F6E6E656374696F6E20737563636573CC
:1001C0007366756C0054657374696E672064657638
:1001D00069636520636F6E6E656374696F6E732EFD
:1001E0002E2E00496E697469616C697A696E6720A8
:1001F00049324320646576696365732E2E2E0001B3
:10020000B202FFFF0190040923A135016A02060032
:1002100001600800000000000000000060044000D1
:100220000000016202000000600400400000037B47
:10023000034CCD6C03AB0336567600680402CB4703
:10024000A202180400058BC1010C04000000000389
:100250007F060CC92C979797038903264666006C86
:1002600002200002400400000000024404000000DC
:100270000002480400000000024C040000000002DC
:100280005004000000000254040000000002580462
:1002900000000000025C040000000002BC0400003A
:1002A000000001EC0400004000037F060CC92C97FD
:1002B00097970402030D355D040904872D353D0031
:1002C000A3010000000001078601FE074105F1209F
:1002D000283038077E01300746019A074704F12885
:1002E0003038076C04F12830380216020005FB0094
:1002F000003E000B00360001000200030000006514
:100300000054FFEF0000FA80000B1282000100028F
:1003100000000000000000000000000000000028B5
:100320000000FFFF4581FFFFFA720000000000009F
:1003300003E80000000100017FFFFFFE8001001BB9
:100340000000000000000000000000000000003E6F
:1003500003304000000002CAE3093E800000200094
:10036000000000000000400000006000000041FFAD
:10037000000000000B2A0000165500002182FD87B6
:100380002650FD800000001F0000000580000000D6
:100390000000000100000002000000030000400017
:1003A00000000000046F0002653200005EC04000E3
:1003B0000000000000000000000000000000FB8CB6
:1003C0006F5DFD5D08D9007C733B006C12CC320080
:1003D000139D3200D0D632000800400001F4FFE641
:1003E0008079020000000000D0D600002710FB003A
:1003F00000004000000000000000000000000000BD
:1004000000010000000000000100010000000000E9
:10041000FA36FFBC308E0005FBF0FFD95BC8FFD079
:100420009ABE000010A9FFF41EB200CEBBF7000078
:10043000000100000004000200020200000CFFC2E4
:1004400080000001800000CF80004000000000001C
:100450000001000000000000060000000014000081
:10046000000000000000000000000000000000008C
:10047000000000000000000000000000000000007C
:10048000000000000000000000000000000000006C
:100490000000033F68B6793528BCC67ED16C800069
:1004A0000000400000000000B26A000000000000F0
:1004B00000000000000000003FF0000000300000DD
:1004C000000000000000000000000000000000002C
:1004D000000000000000000000000000000000001C
:1004E000254D002F706D000005AE000C02D00000FD
:1004F000000000650054FFEF000000000000000055
:1005000001000044000000000C0000000100000099
:1005100000000065000000540000FFEF0000000034
:10052000000000000000000000000000000040008B
:10053000000000000000000000000000000040007B
:1005400000000000000000000000000000000000AB
:100550000001000000020000000000000000000098
:10056000000000000000000000000000000000008B
:100570000000000000000000000000000000001B60
:10058000000000000000000000000000000000006B
:10059000000000000000000000000000000000005B
:1005A0000000000000000000000040000000001BF0
:1005B000000000000000000000000000000000003B
:1005C000000000000000000000000000000000002B
:1005D000000000000000000000000000000000001B
:1005E0000000000000000000000000000000D8DC57
:1005F000BAA2F1DEB2B8B4A88191F74A907F916AAD
:10060000F3F9DBA8F9B0BAA080F2CE81F3C2F1C150
:10061000F2C3F3CCA2B280F1C6D880BAA7DFDFDF85
:10062000F2A7C3CBC5B6F087A2942448703C95408E
:100630006834589B78A2F183922D557DD8B1B4B817
:10064000A1D09180F270F370F27C80A8F101B09893
:1006500087D943D886C988BAA1F20EB89780F1A984
:10066000DFDFDFAADFDFDFF2AAC5CDC7A90CC92C07
:1006700097979797F1A989264666B0B4BA80ACDE01
:10068000F2CAF1B28C02A9B69800890E161EB8A95A
:10069000B4992C547CB08AA896365676F1B9AFB48A
:1006A000B083C0B8A89711B18F98B9AFF0240844AF
:1006B000106418F1A329557DAF83B593AFF00028DE
:1006C00050F1A3869F61A6DADEDFD9FAA38696DB16
:1006D00031A6D9F8DFBAA68FC2C5C7B28CC1B8A2FD
:1006E000DFDFDFA3DFDFDFD8D8F1B8A8B286B498A8
:1006F0000D355DB8AA98B0872D353DB2B6BAAF8C2E
:1007000096198F9FA70E161EB49AB8AA872C547CF0
:10071000B9A3DEDFDFA3B180F2C4CDC9F1B8A9B4BB
:1007200099830D355D89B9A32D557DB593A30E161B
:100730001EA92C547CB8B4B0F19783A81184A509E4
:1007400098A383F0DA240844106418D8F1A5295539
:100750007DA58595021A2E3A565A4048F9F3A3D939
:10076000F8F098832408441064189782A8F111F0D7
:1007700098A2240844106418DAF3DED883A5940103
:10078000D9A302F1A2C3C5C7D8F18492A24DDA2A37
:10079000D84869D92AD86855DA32D85071D932D8B0
:1007A000705DDA3AD85879D93AD87893A34DDA2AD5
:1007B000D84869D92AD86855DA32D85071D932D890
:1007C000705DDA3AD85879D93AD878A88A9AF02858
:1007D00050789EF38818F19F1D98A8D908D8C89F13
:1007E000129EF315A8DA1210D8F1AFC8978734B566
:1007F000B994A421F3D922D8F22DF3D92AD8F2350D
:10080000F3D932D881A4606061D961D86C6869D9A4
:1008100069D8747071D971D8B1A384193D5DA3836F
:100820001A3E5E931030811011B8B0AF8F94F2DA97
:100830003ED8B49AA88729DAF8D8879A35DAF8D852
:10084000879A3DDAF8D8B1B9A49885022E56A581C9
:10085000000C14A397B08AF12DD928D84DD948D8C7
:100860006DD968D8B1840DDA0ED8A32983DA2C0E9D
:10087000D8A3844983DA2C4C0ED8B8B0A88A9AF54C
:1008800020AADADFD8A840AAD0DADED8A860AADA8F
:10089000D0DFD8F19786A8319B069907AB972888B7
:1008A0009BF00C201440B8B0B4A88C9CF0042851E4
:1008B000791D301438B282ABD0982C505078789B88
:1008C000F11AB0F08A9CA82951798B2951798A2490
:1008D00070598B2058718A4469388B3940688A6412
:1008E00048318B304960A588200971584468113916
:1008F00064493019F1AC002C547CF08CA8042850C9
:1009000078F1889726A85998AC8C02264666F0891B
:100910009CA8295179247059446938644831A988C0
:1009200009205970AB11384069A8193148608CA86A
:100930003C415C207C00F187981986A86E767EA9E0
:1009400099882D557D9EB9A38A228A6E8A568A5E21
:100950009FB183062646660E2E4E6E9DB8AD002CC6
:10096000547CF2B18CB499B9A32D557D8191AC38EA
:10097000AD3AB58391AC2DD928D84DD948D86DD989
:1009800068D88C9DAE29D904AED851D904AED87997
:10099000D904D881F39DAD008DAE1981ADD901D8B0
:1009A000F2AEDA26D88E912983A7D9ADADADADF3DD
:1009B0002AD8D8F1B0AC89913E5E76F3AC2E2EF1F8
:1009C000B18C5A9CAC2C2828289CAC3018A8988153
:1009D00028343C9724A728343C9C24F2B089AC915D
:1009E0002C4C6C8A9B2DD9D8D851D9D8D879D9D844
:1009F000D8F19E88A331DAD8D8912DD928D84DD9ED
:100A000048D86DD968D8B18393353D8025DAD8D8D8
:100A10008569DAD8D8B49381A328343CF3AB8BF83A
:100A2000A391B609B4D9ABDEFAB0879CB9A3DDF1C6
:100A3000A3A3A3A395F1A3A3A39DF1A3A3A3A3F2AF
:100A4000A3B49080F2A3A3A3A3A3A3A3A3A3A3B23D
:100A5000A3A3A3A3A3A3B087B599F1A3A3A398F1DC
:100A6000A3A3A3A397A3A3A3A3F39BA3A3DCB9A7C7
:100A7000F1262626D8D8FF00000008000201000059
:100A80000304070000000000000000010204081039
:100A900020408001020408102001020408102004F4
:100AA0000404040404040402020202020203030315
:100AB00003030300000000250028002B00000000B5
:100AC00000240027002A00005D0B4613EA181124B9
:100AD0001FBECFEFD8E0DEBFCDBF11E0A0E0B1E098
:100AE000EAECF1E402C005900D92AE33B107D9F7FC
:100AF00023E0AEE3B1E001C01D92A234B207E1F7FA
:100B00001AE0CEECDAE004C02297FE010E94A11E9A
:100B1000C83CD107C9F70E942E190C94E3200C940D
:100B2000000081E080933E0108958F929F92AF92E2
:100B3000BF92CF92EF920F931F93CF93DF93CDB7D6
:100B4000DEB7C059D1090FB6F894DEBF0FBECDBFD6
:100B50005C010E94190F6EE170E080E090E00E945D
:100B6000481660E0C5010E94200F21E041E060E1ED
:100B7000C5010E943C1066E0C5010E94471020E0BC
:100B800040E060E0C5010E943C10C5010E94A10F39
:100B9000182FC5010E94C80F882EC5010E94EF0FB3
:100BA000982E4FE760E0C5010E94D90E60E0C501B4
:100BB0000E94040F48E660E0C5010E94D90EC501FD
:100BC0000E94120F64E170E080E090E00E944816FD
:100BD000EE24E39400E020E049E857E06EEE72E096
:100BE000C5010E949B11882309F408C240EC50E023
:100BF0006EE272E0C5010E946612882309F400C209
:100C000063E0C5010E94270F62E1C5010E94E50E65
:100C100064E0C5010E948F0E61E0C5010E94950E3F
:100C200063E0C5010E94A00E63E0C5010E94AB0E07
:100C300063E0C5010E94691260E0C5010E946F1265
:100C400060E0C5010E949A0F612FC5010E94BD0F8F
:100C5000682DC5010E94E40F692DC5010E940B108B
:100C6000812C912CF401E150FE4FE491A1E8B0E019
:100C7000AC0FBD1FA80DB11DEC9381E0880D9FEF57
:100C8000891A990AE3E0E81568F7CD57DF4F4881E4
:100C9000C358D04050E09A012E5F3F4F90E0281794
:100CA000390704F7C12CEE24E394CE57DF4F0881B7
:100CB000C258D040CF57DF4F2881C158D04061E89B
:100CC00070E06C0F7D1F6D5F7F4FC5010E94B710F4
:100CD00060E0F401E150FE4FE491A1E8B0E0AC0F18
:100CE000BD1FA60FB11DEC936F5FFFEF8F1A9F0A18
:100CF000643078F3CD57DF4F4881C358D04050E07F
:100D00009A012E5F3F4F862F90E0281739070CF786
:100D1000C12CEE24E394CE57DF4F0881C258D04057
:100D2000CF57DF4F2881C158D04061E870E06C0F89
:100D30007D1F6D5F7F4FC5010E94B710C5010E94E6
:100D40000B0FC5010E94460F482FBE016F5F7F4FFA
:100D5000C5010E94620F62E0C5010E94C10E6CE9EC
:100D6000C5010E94CD0E60E5C5010E94C70E60E07E
:100D7000C5010E94D30EC5010E940B0F61E0C501A1
:100D80000E94FD0E61E0C5010E942E10C5010E9467
:100D9000351060E0F401E150FE4FE491A1E8B0E0CD
:100DA000AC0FBD1FA60FB11DEC936F5F8FEF881ABC
:100DB000980A643078F3CD57DF4F4881C358D0404C
:100DC00050E09A012E5F3F4F862F90E02817390799
:100DD0000CF7C12CEE24E394CE57DF4F0881C258A4
:100DE000D040CF57DF4F2881C158D04061E870E034
:100DF0006C0F7D1F6D5F7F4FC5010E94B71060E0D3
:100E0000F401E150FE4FE491A1E8B0E0AC0FBD1F4A
:100E1000A60FB11DEC936F5F9FEF891A990A64309A
:100E200078F3CD57DF4F4881C358D04050E09A0146
:100E30002E5F3F4F862F90E0281739070CF7C12C03
:100E4000EE24E394CE57DF4F0881C258D040CF57ED
:100E5000DF4F2881C158D04061E870E06C0F7D1FE2
:100E60006D5F7F4FC5010E94B71060E0F401E15053
:100E7000FE4FE491A1E8B0E0AC0FBD1FA60FB11D7D
:100E8000EC936F5FEFEF8E1A9E0A643078F3CD57C4
:100E9000DF4F4881C358D04050E09A012E5F3F4F4A
:100EA000862F90E0281739070CF7C12CEE24E39425
:100EB000CE57DF4F0881C258D040CF57DF4F28812F
:100EC000C158D04061E870E06C0F7D1F6D5F7F4FAF
:100ED000C5010E94B710C5010E94460F83309105DD
:100EE000D0F3482FBE016F5F7F4FC5010E94620F94
:100EF00060E0F401E150FE4FE491A1E8B0E0AC0FF6
:100F0000BD1FA60FB11DEC936F5FFFEF8F1A9F0AF5
:100F1000643078F3CD57DF4F4881C358D04050E05C
:100F20009A012E5F3F4F862F90E0281739070CF764
:100F3000CE57DF4F0881C258D040CF57DF4F2881AE
:100F4000C158D04061E870E06C0F7D1F6D5F7F4F2E
:100F5000C5010E944D10C5010E94460F83309105C6
:100F6000D0F3482FBE016F5F7F4FC5010E94620F13
:100F7000F401E150FE4F60E08491A1E8B0E0AC0FD5
:100F8000BD1FA60FB11D8C936F5F643010F43196B6
:100F9000F3CFCD57DF4F4881C358D04050E09A017E
:100FA0002E5F3F4F862F90E02817390784F761E8BE
:100FB00070E06C0F7D1F6D5F7F4FC12CEE24E394BA
:100FC000CE57DF4F0881C258D040CF57DF4F28811E
:100FD000C158D040C5010E94B71060E0C5010E9411
:100FE0002E108AE290E0F50193838283C5010E946E
:100FF0000B0FC5010E94EB0E80E003C081E001C031
:1010000082E0C057DF4F0FB6F894DEBF0FBECDBFF2
:10101000DF91CF911F910F91EF90CF90BF90AF9044
:101020009F908F900895CF93DF93DB01FA01309763
:1010300019F4EC01E881F981808190E0982F8827EC
:101040002181822B11969C938E93848190E0982F1E
:1010500088272581822B13969C938E9312978085E7
:1010600090E0982F88272185822B15969C938E934C
:101070001497848590E0982F88272585822B1796D2
:101080009C938E93169780E0DF91CF910895FF9205
:101090000F931F93CF93DF93CDB7DEB728970FB68B
:1010A000F894DEBF0FBECDBF8B01BE016F5F7F4FD7
:1010B0000E941308F82E81114CC069817A8188271B
:1010C00077FD8095982F0E94DC1C20E030E040E8FE
:1010D00058E30E94BC1DF80160837183828393836F
:1010E0006B817C81882777FD8095982F0E94DC1C7E
:1010F00020E030E040E858E30E94BC1DF801648322
:101100007583868397836D817E81882777FD80959F
:10111000982F0E94DC1C20E030E040E858E30E9459
:10112000BC1DF80160877187828793876F817885FE
:10113000882777FD8095982F0E94DC1C20E030E006
:1011400040E858E30E94BC1DF801648775878687D4
:1011500097878F2D28960FB6F894DEBF0FBECDBFB0
:10116000DF91CF911F910F91FF9008954F925F9261
:101170006F927F928F929F92AF92BF92CF92DF92A7
:10118000EF92FF920F931F93CF93DF93CDB7DEB70C
:1011900028970FB6F894DEBF0FBECDBF8B01DA01E2
:1011A0001496CD90DD90ED90FC9017971C964D9085
:1011B0005D906D907C901F978D909D90AD90BC90B0
:1011C000139718968D919D910D90BC91A02D8983B8
:1011D0009A83AB83BC83A3019201C701B6010E942D
:1011E000BC1D6D837E838F83988729813A814B81D3
:1011F0005C81C501B4010E94BC1D9B01AC016D81E5
:101200007E818F8198850E94761B9B01AC010E9494
:10121000771BF8016083718382839383A701960112
:10122000C501B4010E94BC1D6D837E838F839887A6
:10123000A301920169817A818B819C810E94BC1DEE
:101240009B01AC016D817E818F8198850E94771B07
:101250009B01AC010E94771BD80114966D937D937E
:101260008D939C931797A5019401C501B4010E9429
:10127000BC1D4B015C01A7019601C701B6010E948C
:10128000BC1D9B01AC01C501B4010E94761B6B0122
:101290007C0129813A814B815C81CA01B9010E949C
:1012A000BC1D9B01AC01C701B6010E94761B6B01FE
:1012B0007C01A3019201C301B2010E94BC1D9B01EC
:1012C000AC01C701B6010E94771BF80160877187E6
:1012D0008287938780E028960FB6F894DEBF0FBE12
:1012E000CDBFDF91CF911F910F91FF90EF90DF90D5
:1012F000CF90BF90AF909F908F907F906F905F90B6
:101300004F9008952F923F924F925F926F927F92EB
:101310008F929F92AF92BF92CF92DF92EF92FF9205
:101320000F931F93CF93DF9300D000D000D0CDB7A1
:10133000DEB71B018A013E832D83FA01C080D18074
:10134000E280F380A7019601C701B6010E94771BD6
:1013500069837A838B839C83F80184809580A6803F
:10136000B780A5019401C501B4010E94771B2B0130
:101370003C01A701960169817A818B819C810E9441
:10138000BC1D6B017C01A5019401C301B2010E9447
:10139000BC1D9B01AC01C701B6010E94771B20E078
:1013A00030E040E85FE30E94761B6B017C01F801AE
:1013B0002085318542855385C301B2010E94BC1D41
:1013C0002B013C01F80124853585468557856981C7
:1013D0007A818B819C810E94BC1D9B01AC01C30161
:1013E000B2010E94761BA70196010E94EA1BF1013F
:1013F0006083718382839383ED81FE816481758133
:1014000086819781C084D184E284F3849B01AC01FE
:101410000E94BC1D4B015C01A7019601C701B601EA
:101420000E94BC1D9B01AC01C501B4010E94771B49
:101430000E94231E9B01AC01ED81FE8160817181C0
:10144000828193810E94411C0E94151CF1016483DA
:10145000758386839783ED81FE81608171818281AE
:101460009381C084D184E284F3849B01AC010E9407
:10147000BC1D4B015C01A7019601C701B6010E948A
:10148000BC1D9B01AC01C501B4010E94771B0E94E9
:10149000231E9B01AC01ED81FE81648175818681F3
:1014A00097810E94411C0E94151CF1016087718781
:1014B0008287938780E026960FB6F894DEBF0FBE32
:1014C000CDBFDF91CF911F910F91FF90EF90DF90F3
:1014D000CF90BF90AF909F908F907F906F905F90D4
:1014E0004F903F902F9008958091BF01882309F479
:1014F000E3C08091B9019091BA012091BB01309174
:10150000BC0140913E01411103C082179307C8F30B
:1015100010923E0181EC91E00E94EB0E8093BE019F
:1015200081EC91E00E94460F9093BA018093B9013B
:101530002091BE0124FD03C08115944051F481EC3B
:1015400091E00E940B0F66E970E081EA92E00C9452
:10155000AD1921FF08954091BB015091BC018091CC
:10156000B9019091BA018417950748F481EC91E094
:101570000E94460F9093BA018093B901ECCF69E7BE
:1015800071E081EC91E00E94620F8091B90190912D
:10159000BA012091BB013091BC01821B930B909347
:1015A000BA018093B90149E751E069E671E081EC45
:1015B00091E00E94470849E651E06BE471E081EC5C
:1015C00091E00E94B6082BE431E049E651E06FE378
:1015D00071E081EC91E00E94820968E071E081EAAB
:1015E00092E00E94A01920E030E044E353E46091CF
:1015F0003F017091400180914101909142010E9410
:10160000BC1D2BED3FE049E450E40E94411CAB01BE
:10161000BC0122E030E081EA92E00E94611B6BE0B5
:1016200071E081EA92E00E94A01920E030E044E3FA
:1016300053E4609143017091440180914501909180
:1016400046010E94BC1D2BED3FE049E450E40E949E
:10165000411CAB01BC0122E030E081EA92E00E9433
:10166000611B6BE071E081EA92E00E94A01920E02A
:1016700030E044E353E46091470170914801809168
:10168000490190914A010E94BC1D2BED3FE049E4C5
:1016900050E40E94411CAB01BC0122E030E081EA31
:1016A00092E00E94631B6091C00181E06827609313
:1016B000C0018DE00C940D17089581EC91E00E941B
:1016C0008B0E80E090E0A0E8BFE3809369019093E7
:1016D0006A01A0936B01B0936C0110926D0110929E
:1016E0006E0110926F0110927001109271011092B0
:1016F0007201109273011092740110927501109290
:101700007601109277011092780110926401109284
:1017100063011092660110926501109268011092A7
:10172000670110925E0110925D01109260011092AB
:101730005F011092620110926101109258011092A3
:10174000570110925A011092590110925C011092A7
:101750005B0110924B0110924C0110924D011092BE
:101760004E0110924F0110925001109251011092AF
:10177000520110925301109254011092550110928F
:101780005601089584ED91E00E940C1388E1809346
:10179000B80026E040E052EC61E070E081EA92E0BF
:1017A0000E94261863EE71E081EA92E00E94AD1972
:1017B00081EC91E00E94320F65EC71E081EA92E0E9
:1017C0000E94AD1981EC91E00E94920F882319F0DC
:1017D00067EA71E002C06DE871E081EA92E00E9480
:1017E000AD1965E571E081EA92E00E94AD1981EAE8
:1017F00092E00E944317892B31F081EA92E00E9427
:101800005C17892BA1F781EA92E00E944317892B8C
:10181000D1F381EA92E00E944317892B31F081EAEB
:1018200092E00E945C17892BA1F761E471E081EAE4
:1018300092E00E94AD1981EC91E00E9495058093A1
:10184000BD016CED70E081EC91E00E941C106CE435
:1018500070E081EC91E00E9422106BEA7FEF81EC56
:1018600091E00E9428106CEF76E081EC91E00E94FC
:1018700016108091BD01811130C061E371E081EAF1
:1018800092E00E94AD1961E081EC91E00E942E107F
:1018900062EF70E081EA92E00E94AD1943E050E00F
:1018A00061E975E080E00E94551581EC91E00E94AD
:1018B000EB0E8093BE0168EC70E081EA92E00E943A
:1018C000AD1981E08093BF018091C3019091C40163
:1018D0009093BC018093BB0114C067EA70E081EA79
:1018E00092E00E947B194AE050E06091BD0181EADC
:1018F00092E00E946F1A65EA70E081EA92E00E942D
:10190000AD1961E08DE00C94D416EF92FF920F9325
:101910001F93CF93DF9300D0CDB7DEB7062F142FE0
:10192000682F84ED91E029833A830E942613602F6B
:1019300084ED91E00E94CD122981022FE22E3A819E
:10194000F32E8E2D801B811740F4F70161917F01EA
:1019500084ED91E00E94CD12F4CF84ED91E00E94DD
:10196000431391E0811190E0892F0F900F90DF9148
:10197000CF911F910F91FF90EF900895CF93DF9338
:101980001F92CDB7DEB749839E012F5F3F4F41E0E5
:101990000E94850C0F90DF91CF910895DF92EF9216
:1019A000FF920F931F93CF93DF93C62F042F7901DC
:1019B000682F84ED91E00E9426136C2F84ED91E056
:1019C0000E94CD1210E0000F111FD12CCD2DD0E0C0
:1019D000C017D1078CF4CC0FDD1FCE0DDF1D698140
:1019E00084ED91E00E94CD12688184ED91E00E9427
:1019F000CD12D394D394EACF84ED91E00E944313A7
:101A000091E0811190E0892FDF91CF911F910F918B
:101A1000FF90EF90DF900895CF93DF9300D0CDB784
:101A2000DEB75A8349839E012F5F3F4F41E00E94FA
:101A3000CE0C0F900F90DF91CF9108953F924F926F
:101A40005F926F927F928F929F92AF92BF92CF924E
:101A5000DF92EF92FF920F931F93CF93DF9300D00B
:101A600000D000D0CDB7DEB7682E562E742E3A8344
:101A700029830E9419166B017C01312C412C872D82
:101A800090E09C838B834801A12CB12C3714B0F5D6
:101A9000662D84ED91E00E942613652D84ED91E082
:101AA0000E94CD1284ED91E00E944313662D84EDD7
:101AB00091E00E9426134B815C8143195109413208
:101AC000510514F040E250E0662D84ED91E00E9453
:101AD000231384ED91E00E947512892B59F10115B1
:101AE000110579F10E9419166C197D098E099F095B
:101AF000681579058A059B0520F11CC001151105A3
:101B000089F10E9419166C197D098E099F0920E040
:101B100030E0601771078207930720F1872D90E06E
:101B2000242D332727FD309528173907DCF444246A
:101B30004A9418C0872D90E2971508F480E2380E79
:101B4000A5CFE981FA81E40DF11D47FCFA95FE83EA
:101B5000ED8384ED91E00E947D12ED81FE81808312
:101B60004394B7CF842D26960FB6F894DEBF0FBEF0
:101B7000CDBFDF91CF911F910F91FF90EF90DF903C
:101B8000CF90BF90AF909F908F907F906F905F901D
:101B90004F903F9008950F931F9389019A0141E060
:101BA0000E941E0D1F910F910895CF92DF92EF9228
:101BB000FF920F931F93CF93DF931F92CDB7DEB7A2
:101BC000C42ED22E9701AE014F5F5F4F0E94CB0D06
:101BD0008823F1F04C2D50E04D1951094F5F5F4FB4
:101BE00061E070E002C0660F771FDA94E2F761509F
:101BF0007109042E01C0660F0A94EAF72981262391
:101C000030E002C0359527954A95E2F7F801208328
:101C10000F90DF91CF911F910F91FF90EF90DF9088
:101C2000CF900895EF92FF920F931F93CF93DF937E
:101C30001F92CDB7DEB7182F062FF42EE22E20917B
:101C4000060130910701AE014F5F5F4F0E94CB0D3F
:101C5000898121E030E00F2C01C0220F0A94EAF7BD
:101C6000EE2019F0482F422B03C0422F4095482305
:101C70004983602F812F0E94BE0C0F90DF91CF917E
:101C80001F910F91FF90EF900895DF92EF92FF92D6
:101C90000F931F93CF93DF931F92CDB7DEB7F82E2C
:101CA000E62ED42E122F2091060130910701AE01AD
:101CB0004F5F5F4F0E94CB0D882319F14D2D50E0EF
:101CC000411B51094F5F5F4FE1E0F0E002C0EE0FB2
:101CD000FF1F1A95E2F73197042E01C0EE0F0A9408
:101CE000EAF701C0000F4A95EAF74E2F4095898127
:101CF0004823E0234E2B49836E2D8F2D0E94BE0C6E
:101D000001C080E00F90DF91CF911F910F91FF9064
:101D1000EF90DF90089528E6FC0120830895462F78
:101D200069E1FC0180810C94BE0C0F93062F23E027
:101D300045E06AE1FC0180810E94450E0F91089503
:101D40000F93062F23E042E06AE1FC0180810E94AC
:101D5000450E0F9108950F93062F22E044E06BE1AA
:101D6000FC0180810E94450E0F9108950F93062F6C
:101D700022E044E06CE1FC0180810E94450E0F915D
:101D80000895462F6FE1FC0180810C94BE0C462F14
:101D900060E2FC0180810C94BE0C462F61E2FC01E4
:101DA00080810C94BE0C462F62E2FC0180810C9471
:101DB000BE0C643048F4262F220F260F2B5D622FB5
:101DC000FC0180810C94BE0C0895462F68E3FC0151
:101DD00080810C94BE0CCF93DF93EC01209106011F
:101DE00030910701AC014F5F5F4F6AE388810E9429
:101DF000CB0D8981DF91CF910895262F46E06AE6C9
:101E0000FC0180810C94120E262F45E06AE6FC014D
:101E100080810C94120E21E042E06AE6FC01808190
:101E20000C94120E21E041E06AE6FC0180810C94E2
:101E3000120E21E047E06BE6FC0180810C94120E4B
:101E4000262F46E06BE6FC0180810C94120E0F9366
:101E5000062F23E042E06BE6FC0180810E94450EE4
:101E60000F910895CF93DF93EC0161E00E94270F5B
:101E700060E0CE010E94AB0E60E0CE010E94B60E83
:101E800060E0CE01DF91CF910C94200F0F931F9350
:101E9000CF93DF93EC0100910601109107019C01A3
:101EA0002F5F3F4F42E062E788810E941E0D8981CB
:101EB00090E0982F88272A81822BDF91CF911F9164
:101EC0000F9108950F931F939B01442351F00091AC
:101ED00006011091070164E7FC0180810E941E0D3C
:101EE00002C0FB0110821F910F910895EF92FF92A3
:101EF0000F931F93CF93DF93EC01E0900601F090D6
:101F000007018C010F5F1F4F26E046E065E78881DF
:101F10000E94D50D8981DF91CF911F910F91FF9084
:101F2000EF9008950E94760F91E0843309F090E0DD
:101F3000892F0895262F40E060E0FC0180810C94F9
:101F4000120EEF92FF920F931F93CF93DF93EC014A
:101F5000E0900601F09007018C010F5F1F4F26E013
:101F600046E060E088810E94D50D8981DF91CF91A4
:101F70001F910F91FF90EF9008950F93062F26E089
:101F800046E060E0FC0180810E94450E0F910895BB
:101F9000EF92FF920F931F93CF93DF93EC01E090AA
:101FA0000601F09007018C010F5F1F4F26E046E00D
:101FB00061E088810E94D50D8981DF91CF911F91C9
:101FC0000F91FF90EF9008950F93062F26E046E0C3
:101FD00061E0FC0180810E94450E0F910895EF920F
:101FE000FF920F931F93CF93DF93EC01E0900601D4
:101FF000F09007018C010F5F1F4F26E046E062E082
:1020000088810E94D50D8981DF91CF911F910F9119
:10201000FF90EF9008950F93062F26E046E062E0D0
:10202000FC0180810E94450E0F910895AB016AE08A
:10203000FC0180810C940C0DAB0163E1FC018081FB
:102040000C940C0DAB0165E1FC0180810C940C0D2E
:10205000AB0167E1FC0180810C940C0D262F47E059
:102060006AE6FC0180810C94120E21E043E06AE6EE
:10207000FC0180810C94120E6F712111606241117C
:102080006064462F6DE6FC0180810C94BE0C462FE7
:102090006EE6FC0180810C94BE0C5F926F927F9281
:1020A0008F929F92AF92BF92CF92DF92EF92FF9268
:1020B0000F931F93CF93DF937C015B016A01622E24
:1020C000702E20E040E0662D0E943C10602FC7017A
:1020D0000E944710C0E0D0E0812C99249394CC1545
:1020E000DD05A8F5CE014096C816D90618F45C2C7B
:1020F0005C1A02C0A0E15A2E252D30E0C4018719D8
:1021000091098217930714F4572C519400910601FA
:102110001091070195012C0F3D1F452D6FE6F7012A
:1021200080810E941E0DC50DD11D750CCC15DD05DD
:10213000B0F6711001C0639420E040E0662DC70145
:102140000E943C10672DC7010E944710C8CFDF9145
:10215000CF911F910F91FF90EF90DF90CF90BF90A4
:10216000AF909F908F907F906F905F9008952F9287
:102170003F924F925F926F927F928F929F92AF9217
:10218000BF92CF92DF92EF92FF920F931F93CF9364
:10219000DF9300D000D01F92CDB7DEB79D838C8334
:1021A0007B836A834A01322ED02EE98220E040E010
:1021B000632D0E943C10602F8C819D810E944710EE
:1021C000E980EE2029F080E190E00E94A51E5C01EC
:1021D000CC2039F080E190E00E94A51E582E292ED7
:1021E00002C0512C212CE12CF12CE814F90408F048
:1021F0007AC0C70140968816990618F4482C4E18E4
:1022000002C010E1412E242D30E080E091E08D19D4
:1022100091098217930714F44D2C4194EA81FB81B4
:10222000EE0DFF1DCC2059F0852DA52DB22D9A2F36
:10223000981B941530F494919D933196F8CF5E2EAF
:102240002F2E252D322D442D6FE6AC81BD818C9132
:102250000E94850C642C712CB981BB2369F1A114F7
:10226000B10451F120E040E0632D8C819D810E94FA
:102270003C106D2D8C819D810E94471000910601BC
:10228000109107019501442D6FE6EC81FD8180815D
:102290000E941E0DA301B501852D922D0E9496204E
:1022A000892B51F0C5010E943D1FCC2049F1852D9D
:1022B000922D0E943D1F24C0E60CF71CD40CE8149C
:1022C000F90408F092CFD11001C0339420E040E02F
:1022D000632D8C819D810E943C106D2D8C819D8190
:1022E0000E94471082CFF981FF2319F0C5010E9497
:1022F0003D1FCC2039F0852D922D0E943D1F02C03C
:1023000080E001C081E00F900F900F900F900F9030
:10231000DF91CF911F910F91FF90EF90DF90CF90C1
:10232000BF90AF909F908F907F906F905F904F90F5
:102330003F902F900895CF92EF920F93CC24C394A7
:102340000E94B7100F91EF90CF9008952F923F9277
:102350004F925F926F927F928F929F92AF92BF92B5
:10236000CF92DF92EF92FF920F931F93CF93DF9361
:1023700000D01F92CDB7DEB74C017B836A833A0150
:10238000D22E222339F088E090E00E94A51E182F5B
:10239000F92E02C010E0F12C212C312C2614370428
:1023A00008F051C0EA81FB81E20DF31DC1010396E3
:1023B0005C01DD20C1F04491F10131968A819B815D
:1023C000E80FF91F0491F1013296E80FF91F5490BC
:1023D000511044C0F4E02F0E311CEA81FB81EA0D5C
:1023E000FB1D84910DC0408101815280EA81FB81F7
:1023F000E80FF91F51100DC084E0280E311C8081B8
:102400008130D1F442E368E3F40180810E94BE0C84
:10241000C5CF1E2FFF2E452C512CC12CEE24E3944A
:10242000242FA201612F7F2DC4010E94B710120139
:102430002A0C3B1C8111B2CFDD2061F0812F9F2D32
:102440000E943D1F07C0DD2039F0812F9F2D0E9483
:102450003D1F02C080E024C081E022C0252C312C29
:10246000F2E0F51548F4B101812F9F2D49830E94B8
:10247000CC1F182FF92E4981812F9F2DA0E0B0E0AD
:102480002A813B812A0D3B1DA215B30520F6F901D7
:10249000EA0FFB1F5491FC015193CF011196F4CF29
:1024A0000F900F900F90DF91CF911F910F91FF90A0
:1024B000EF90DF90CF90BF90AF909F908F907F90E4
:1024C0006F905F904F903F902F90089521E00C9473
:1024D000A611462F60E7FC0180810C94BE0C462FAC
:1024E00061E7FC0180810C94BE0C8091040290E0B5
:1024F00020910502821B9109089520910502809187
:102500000402281750F4E22FF0E0EA5FFD4F8081CB
:1025100090E02F5F2093050208958FEF9FEF0895BD
:10252000E091050280910402E81730F4F0E0EA5FE0
:10253000FD4F808190E008958FEF9FEF08950895FB
:10254000CF92DF92EF92FF920F931F93CF93DF937F
:102550007C01CB018A012091E001222389F0EB016B
:102560006B01C40ED51ECC15DD0569F06991D7014C
:10257000ED91FC910190F081E02DC7010995F3CF19
:10258000642F0E94FF13C801DF91CF911F910F911B
:10259000FF90EF90DF90CF900895CF93DF931F923D
:1025A000CDB7DEB769832091E0012223D1F02091DD
:1025B000E101203240F021E030E0FC01338322834E
:1025C00080E090E015C08091E201E82FF0E0ED514D
:1025D000FE4F998190838F5F8093E2018093E101A8
:1025E00005C061E0CE0101960E94FF1381E090E0FA
:1025F0000F90DF91CF910895FC011382128248EE73
:1026000053E060E070E0448355836683778381E123
:1026100091E0918380830895109205021092040244
:102620001092E2011092E1010C944A13862F41327C
:1026300008F040E266E072E00E9468131092050222
:1026400080930402089521E00C94161381E0809396
:10265000E001609303021092E2011092E1010895FB
:102660000F93062F21E04091E10163EE71E080912C
:1026700003020E94AC131092E2011092E101109249
:10268000E0010F91089561E00C94301384ED91E026
:102690000C94FC121092930281E0809391021092AC
:1026A000900261E082E10E940D1761E083E10E94E7
:1026B0000D17E9EBF0E080818E7F808380818D7F34
:1026C000808388E48093B80085E48093BC000895FB
:1026D000413208F03FC0909193029111FCCF91E0FC
:1026E00090939302209391022FEF20932602109251
:1026F0006B02240F20936A029093920290919202AF
:10270000880F892B8093920280919002813041F44E
:1027100010929002809192028093BB0085EC01C0E0
:1027200085EE8093BC00809193028130E1F380912B
:102730006B02841710F440916B022CE632E0FB012F
:10274000D9018A2F821B841718F48D918193F9CFB8
:10275000842F089580E008950F93413208F046C019
:10276000909193029111FCCF92E090939302009389
:1027700091029FEF9093260210926B0240936A029F
:10278000FB016CE672E0DB019A2F961B941718F49C
:1027900091919D93F9CF1092920290919202880F9D
:1027A000892B8093920280919002813041F41092A3
:1027B0009002809192028093BB0085EC01C085EE6F
:1027C0008093BC00222321F0809193028230E1F3B8
:1027D000809126028F3F61F080912602803251F075
:1027E00080912602803341F483E007C081E005C078
:1027F00080E003C082E001C084E00F91089561325F
:1028000098F420919302243089F460934802FC01EB
:102810008AE492E0DC012A2F281B261718F4219164
:102820002D93F9CF80E0089581E0089582E0089526
:1028300085ED8093BC008091BC0084FDFCCF10929C
:102840009302089585EC8093BC0010929302089542
:102850001F920F920FB60F9211242F933F934F9315
:102860005F936F937F938F939F93AF93BF93EF93F8
:10287000FF938091B900887F803609F49CC068F589
:10288000883209F45BC090F4803109F454C038F404
:10289000882309F4F5C0883009F44DC0F5C08831AB
:1028A00009F44CC0803209F45DC0EEC0803409F4F4
:1028B00068C048F4803309F455C0883309F0E4C097
:1028C00080932602A8C0803509F44FC0883509F4EA
:1028D0005DC0883409F0D8C0D5C0883909F4C6C0B5
:1028E000A8F4883709F467C038F4883609F463C05F
:1028F000803709F460C0C8C0883809F4B7C080398F
:1029000009F45FC0803809F0BFC05BC0803B09F4A8
:1029100085C038F4803A09F466C0883A09F47EC06C
:10292000B3C0803C09F4A6C0883C09F4A3C0883B2E
:1029300009F489C0A9C08091920210C090916B02E5
:1029400080916A02981770F5E0916B0281E08E0F1A
:1029500080936B02F0E0E459FD4F80818093BB00CF
:1029600085EC85C0809326028DC0E0916B0281E0EA
:102970008E0F80936B028091BB00F0E0E459FD4F15
:10298000808390916B0280916A026DC0E0916B022E
:1029900081E08E0F80936B028091BB00F0E0E459E0
:1029A000FD4F80838091910281116CC081E0809302
:1029B000900284EA60C083E0809393021092270221
:1029C000CFCF80912702803208F050C0E0912702DB
:1029D00081E08E0F809327028091BB00F0E0E85DDC
:1029E000FD4F8083BDCF80912702803230F4E0918B
:1029F0002702F0E0E85DFD4F10820E9418146091FC
:102A0000270270E0E0918C02F0918D0288E292E062
:102A10000995109227020E94221436C084E0809308
:102A200093021092490210924802E0918E02F091B6
:102A30008F02099580914802811105C081E0809341
:102A4000480210924A02E091490281E08E0F809381
:102A50004902F0E0E65BFD4F80818093BB009091DE
:102A6000490280914802981708F47ACF85E880934C
:102A7000BC000AC085EC8093BC001092930204C095
:102A8000109226020E941814FF91EF91BF91AF910E
:102A90009F918F917F916F915F914F913F912F9176
:102AA0000F900FBE0F901F9018958230E8F4E82F1A
:102AB000F0E0EE0FFF1FEC56FD4F71836083813015
:102AC00041F0809169008C7F842B80936900E89AA3
:102AD000089580916900440F551F440F551F837F4F
:102AE000842B80936900E99A08951F920F920FB684
:102AF0000F9211242F933F934F935F936F937F9384
:102B00008F939F93AF93BF93EF93FF938091940222
:102B100090919502892B29F0E0919402F091950211
:102B20000995FF91EF91BF91AF919F918F917F9107
:102B30006F915F914F913F912F910F900FBE0F902A
:102B40001F9018951F920F920FB60F9211242F937A
:102B50003F934F935F936F937F938F939F93AF9325
:102B6000BF93EF93FF938091960290919702892BE8
:102B700029F0E0919602F09197020995FF91EF916B
:102B8000BF91AF919F918F917F916F915F914F9185
:102B90003F912F910F900FBE0F901F9018951F928D
:102BA0000F920FB60F9211242F933F938F939F9301
:102BB000AF93BF938091990290919A02A0919B024A
:102BC000B0919C023091980223E0230F2D3720F41E
:102BD0000196A11DB11D05C026E8230F0296A11D77
:102BE000B11D209398028093990290939A02A0932A
:102BF0009B02B0939C0280919D0290919E02A091B5
:102C00009F02B091A0020196A11DB11D80939D026B
:102C100090939E02A0939F02B093A002BF91AF91A8
:102C20009F918F913F912F910F900FBE0F901F900A
:102C300018952FB7F8946091990270919A0280913B
:102C40009B0290919C022FBF08953FB7F89480910A
:102C50009D0290919E02A0919F02B091A00226B584
:102C6000A89B05C02F3F19F00196A11DB11D3FBFC4
:102C70006627782F892F9A2F620F711D811D911D54
:102C800042E0660F771F881F991F4A95D1F7089574
:102C9000CF92DF92EF92FF92CF93DF936B017C0193
:102CA0000E942516EB01C114D104E104F10489F05E
:102CB0000E94751B0E9425166C1B7D0B683E73409D
:102CC00090F381E0C81AD108E108F108C851DC4F3F
:102CD000EACFDF91CF91FF90EF90DF90CF900895F2
:102CE000789484B5826084BD84B5816084BD85B5E7
:102CF000826085BD85B5816085BDEEE6F0E08081AE
:102D000081608083E1E8F0E01082808182608083CE
:102D1000808181608083E0E8F0E080818160808351
:102D2000E1EBF0E0808184608083E0EBF0E0808183
:102D300081608083EAE7F0E0808184608083808125
:102D400082608083808181608083808180688083CD
:102D50001092C1000895833081F028F4813099F0F9
:102D60008230A1F008958730A9F08830B9F084301E
:102D7000D1F4809180008F7D03C0809180008F7797
:102D800080938000089584B58F7702C084B58F7DCD
:102D900084BD08958091B0008F7703C08091B0000A
:102DA0008F7D8093B0000895CF93DF9390E0FC0176
:102DB000E557F54F2491FC01E156F54F84918823A6
:102DC00049F190E0880F991FFC01E354F54FA5915C
:102DD000B4918D54954FFC01C591D4919FB7611169
:102DE00008C0F8948C91209582238C93888182234B
:102DF0000AC0623051F4F8948C91322F30958323BD
:102E00008C938881822B888304C0F8948C91822BC8
:102E10008C939FBFDF91CF9108950F931F93CF9312
:102E2000DF931F92CDB7DEB7282F30E0F901E958C4
:102E3000F54F8491F901E557F54F1491F901E156E9
:102E4000F54F04910023C9F0882321F069830E9483
:102E5000AB166981E02FF0E0EE0FFF1FED54F54F48
:102E6000A591B4919FB7F8948C91611103C010950E
:102E7000812301C0812B8C939FBF0F90DF91CF9155
:102E80001F910F910895FC01818D228D90E0805C4F
:102E90009F4F821B91098F7399270895FC01918D93
:102EA000828D981731F0828DE80FF11D858D90E0AD
:102EB00008958FEF9FEF0895FC01918D828D9817F3
:102EC00061F0828DDF01A80FB11D5D968C91928D0E
:102ED0009F5F9F73928F90E008958FEF9FEF08950B
:102EE00080EE98E1892B49F080E090E0892B29F071
:102EF0000E94E01881110C9400000895FC01848D5B
:102F0000DF01A80FB11DA35ABF4F2C91848D90E013
:102F100001968F739927848FA689B7892C93A089EE
:102F2000B1898C9180648C93938D848D981306C0A5
:102F30000288F389E02D80818F7D80830895CF936F
:102F4000DF93EC01888D8823C9F0EA89FB898081B1
:102F500085FD05C0A889B9898C9186FD0FC00FB683
:102F600007FCF5CF808185FFF2CFA889B9898C91C4
:102F700085FFEDCFCE010E947E17E7CFDF91CF9185
:102F80000895CF92DF92FF920F931F93CF93DF9319
:102F90001F92CDB7DEB76C0181E0D60158968C93B5
:102FA00058975B969C915B975C968C915C97981375
:102FB00007C05096ED91FC915197808185FD2EC000
:102FC000F601038D10E00F5F1F4F0F731127F02ED6
:102FD000F601848DF81211C00FB607FCF9CFD601A7
:102FE0005096ED91FC915197808185FFF1CFC601FC
:102FF00069830E947E176981EBCF838DE80FF11DF5
:10300000E35AFF4F6083D6015B960C935B97529611
:10301000ED91FC915397808180620CC0D601569649
:10302000ED91FC91579760835096ED91FC915197EB
:1030300080818064808381E090E00F90DF91CF9168
:103040001F910F91FF90DF90CF900895BF92CF9284
:10305000DF92EF92FF92CF93DF93EC016A017B0145
:10306000B22EE889F98982E08083411581EE580704
:1030700061057105A1F060E079E08DE390E0A701C2
:1030800096010E947D1E2150310941095109569532
:10309000479537952795211580E1380798F0E889FD
:1030A000F989108260E874E88EE190E0A70196014A
:1030B0000E947D1E215031094109510956954795BD
:1030C00037952795EC85FD853083EE85FF85208338
:1030D000188EEC89FD89B082EA89FB898081806144
:1030E0008083EA89FB89808188608083EA89FB8903
:1030F000808180688083EA89FB8980818F7D8083DD
:10310000DF91CF91FF90EF90DF90CF90BF90089527
:103110001F920F920FB60F9211242F938F939F93AC
:10312000EF93FF93E091B102F091B2028081E091C0
:10313000B702F091B80282FD12C090818091BA026C
:103140008F5F8F732091BB02821751F0E091BA021A
:10315000F0E0EF55FD4F958F8093BA0201C080815A
:10316000FF91EF919F918F912F910F900FBE0F9034
:103170001F9018951F920F920FB60F9211242F9344
:103180003F934F935F936F937F938F939F93AF93EF
:10319000BF93EF93FF9381EA92E00E947E17FF9125
:1031A000EF91BF91AF919F918F917F916F915F91BF
:1031B0004F913F912F910F900FBE0F901F90189538
:1031C00081EA92E00E94431721E0892B09F420E074
:1031D000822F08951092A4021092A30288EE93E029
:1031E000A0E0B0E08093A5029093A602A093A7026E
:1031F000B093A80281E291E09093A2028093A10291
:1032000085EC90E09093AE028093AD0284EC90E068
:103210009093B0028093AF0280EC90E09093B20262
:103220008093B10281EC90E09093B4028093B3025A
:1032300082EC90E09093B6028093B50286EC90E029
:103240009093B8028093B7021092BA021092BB0218
:103250001092BC021092BD02089508950E9470164B
:103260000E942D190E94C20BC0E7D7E10E94740A88
:103270002097E1F30E947017F9CFCF92DF92EF927F
:10328000FF920F931F93CF93DF936C017A01EB01B1
:10329000E60EF71E00E010E0CE15DF0561F0699143
:1032A000D601ED91FC910190F081E02DC6010995C8
:1032B000080F191FF1CFC801DF91CF911F910F9116
:1032C000FF90EF90DF90CF9008956115710581F028
:1032D000DB010D900020E9F7AD0141505109461B7B
:1032E000570BDC01ED91FC910280F381E02D0994F4
:1032F00080E090E00895EF92FF920F931F93CF9399
:10330000DF938C01FB01C0E0D0E064917F018FEF7F
:10331000E81AF80A662361F0D801ED91FC9101905A
:10332000F081E02DC8010995C80FD91FF701EDCF35
:10333000CE01DF91CF911F910F91FF90EF900895F3
:103340000C946519DC01ED91FC910190F081E02D68
:1033500009946DE271E00C9465190F931F93CF935C
:10336000DF93EC010E947B198C01CE010E94A91908
:10337000800F911FDF91CF911F910F9108958F9230
:103380009F92AF92BF92CF92DF92EF92FF920F93F4
:103390001F93CF93DF93CDB7DEB7A1970FB6F89405
:1033A000DEBF0FBECDBF7C01C42EE52FCB01D22ED8
:1033B00019A221E02D1510F02AE0D22E8E010F5D0A
:1033C0001F4F8D2C912CA12CB12C6C2D7E2FA50183
:1033D00094010E947D1E8C2DD29E801911240150D3
:1033E00011098A3014F4805D01C0895CF801808382
:1033F000211531054105510521F0C22EE32FCA01E7
:10340000E4CFB801C7010E946519A1960FB6F894E0
:10341000DEBF0FBECDBFDF91CF911F910F91FF9007
:10342000EF90DF90CF90BF90AF909F908F900895D6
:10343000CF92DF92EF92FF920F931F93CF93DF9380
:10344000EC016A017B012115310579F4E881F981EC
:103450000190F081E02D642FDF91CF911F910F91AA
:10346000FF90EF90DF90CF9009942A303105E9F476
:1034700077FF1AC06DE20E94A2198C0144275527DC
:10348000BA014C195D096E097F092AE0CE010E943C
:10349000BF19800F911FDF91CF911F910F91FF9066
:1034A000EF90DF90CF9008952AE0B701A601CE01FA
:1034B000DF91CF911F910F91FF90EF90DF90CF9010
:1034C0000C94BF192115310541F4DC01ED91FC91FB
:1034D0000190F081E02D642F09940C94BF199A019A
:1034E000462F50E060E070E00C94621A4F925F92B9
:1034F0006F927F928F929F92AF92BF92CF92DF9204
:10350000EF92FF920F931F93CF93DF93EC016A0129
:103510007B01B22E9A01AB01C701B6010E94641E65
:10352000882319F060E371E027C026013701E89491
:1035300077F82FEF3FEF4FE75FE7C301B2010E943B
:10354000641E81110DC02FEF3FEF4FE75FE7C3010E
:10355000B2010E943D1C18161CF464E371E00CC01B
:103560002FEF3FEF4FE75FE4C701B6010E94B11DA7
:103570001816ACF468E371E0CE01DF91CF911F9192
:103580000F91FF90EF90DF90CF90BF90AF909F9002
:103590008F907F906F905F904F900C9465192FEFF4
:1035A0003FEF4FE75FECC701B6010E943D1C87FD6E
:1035B000E1CF20E030E0A901C701B6010E943D1C27
:1035C00087FF0AC06DE2CE010E94A2198C01F7FAB2
:1035D000F094F7F8F09402C000E010E0A12C60E055
:1035E00070E080E09FE3AB1441F020E030E040E287
:1035F00051E40E94411CA394F6CF9B01AC01C7018A
:10360000B6010E94771B6B017C010E94AE1C2B014E
:103610003C010E94DA1C9B01AC01C701B6010E946B
:10362000761B6B017C012AE0B301A201CE010E944E
:10363000BF19080F191FBB2039F06CE371E0CE01F0
:103640000E946519080F191F7B2C772041F120E09B
:1036500030E040E251E4C701B6010E94BC1D6B019D
:103660007C010E94A91C4B01AA2497FCA094BA2CAF
:103670002AE030E0B501A401CE010E94181A080F1B
:10368000191FC501B4010E94DC1C9B01AC01C701DC
:10369000B6010E94761B6B017C017A94D6CFC801DB
:1036A000DF91CF911F910F91FF90EF90DF90CF901E
:1036B000BF90AF909F908F907F906F905F904F9052
:1036C00008950C94761A0F931F93CF93DF93EC0118
:1036D0000E94761A8C01CE010E94A919800F911FB9
:1036E000DF91CF911F910F91089508955058BB27F6
:1036F000AA270ED0FCC1EDD130F0F2D120F031F488
:103700009F3F11F41EF4BDC10EF4E095E7FBB3C179
:10371000E92FFED180F3BA17620773078407950774
:1037200018F071F49EF516C20EF4E0950B2EBA2F28
:10373000A02D0B01B90190010C01CA01A0011124B7
:10374000FF27591B99F0593F50F4503E68F11A1663
:10375000F040A22F232F342F4427585FF3CF4695F4
:1037600037952795A795F0405395C9F77EF41F1616
:10377000BA0B620B730B840BBAF09150A1F0FF0FE0
:10378000BB1F661F771F881FC2F70EC0BA0F621FCC
:10379000731F841F48F4879577956795B795F795BC
:1037A0009E3F08F0B3CF9395880F08F09927EE0F4E
:1037B0009795879508958DD158F080E891E009F4A8
:1037C0009EEF8ED128F040E851E059F45EEF09C039
:1037D00058C1C0C1E92FE0789BD168F3092E052AB2
:1037E000C1F3261737074807590738F00E2E07F898
:1037F000E02569F0E025E0640AC0EF6307F8009473
:1038000007FADB01B9019D01DC01CA01AD01EF93AB
:1038100047D06DD10AD05F91552331F02BED3FE0B9
:1038200049E450FD49EC63CF0895DF93DD27B92FBC
:10383000BF7740E85FE31616170648075B0710F4EA
:10384000D92F93D19F938F937F936F933AD2E8E6CA
:10385000F0E01AD14CD12F913F914F915F9198D1C7
:10386000DD2349F09058A2EA2AED3FE049EC5FE3FE
:10387000D0785D274DDFDF913AC1D9D008F481E0DF
:1038800008950CD034C12CD140F023D130F021F474
:103890005F3F19F0F0C051115EC1F3C039D198F308
:1038A0009923C9F35523B1F3951B550BBB27AA27C1
:1038B00062177307840738F09F5F5F4F220F331F33
:1038C000441FAA1FA9F333D00E2E3AF0E0E830D0FF
:1038D00091505040E695001CCAF729D0FE2F27D002
:1038E000660F771F881FBB1F261737074807AB07D0
:1038F000B0E809F0BB0B802DBF01FF2793585F4F45
:103900002AF09E3F510568F0B6C025C15F3FECF339
:10391000983EDCF3869577956795B795F7959F5F09
:10392000C9F7880F911D9695879597F90895E1E05D
:10393000660F771F881FBB1F621773078407BA07BC
:1039400020F0621B730B840BBA0BEE1F88F7E09517
:10395000089504D06894B111FEC00895E1D088F0B4
:103960009F5790F0B92F9927B751A0F0D1F0660F6B
:10397000771F881F991F1AF0BA95C9F712C0B13086
:1039800081F0E8D0B1E00895E5C0672F782F88274F
:10399000B85F39F0B93FCCF3869577956795B395C5
:1039A000D9F73EF490958095709561957F4F8F4F34
:1039B0009F4F0895E89409C097FB3EF49095809539
:1039C000709561957F4F8F4F9F4F9923A9F0F92FE5
:1039D00096E9BB279395F695879577956795B79563
:1039E000F111F8CFFAF4BB0F11F460FF1BC06F5F49
:1039F0007F4F8F4F9F4F16C0882311F096E911C05B
:103A0000772321F09EE8872F762F05C0662371F07B
:103A100096E8862F70E060E02AF09A95660F771F8F
:103A2000881FDAF7880F9695879597F90895990F6B
:103A30000008550FAA0BE0E8FEEF16161706E80778
:103A4000F907C0F012161306E407F50798F0621B99
:103A5000730B840B950B39F40A2661F0232B242B6E
:103A6000252B21F408950A2609F4A140A6958FEF8D
:103A7000811D811D089597F99F6780E870E060E0DF
:103A800008959FEF80EC0895DF93CF931F930F93DA
:103A9000FF92EF92DF927B018C01689405C0DA2ED1
:103AA000EF0176D0FE01E894A591259135914591DD
:103AB0005591AEF3EF012CDEFE019701A801DA94D7
:103AC00079F7DF90EF90FF900F911F91CF91DF91E9
:103AD000089500240A941616170618060906089574
:103AE00000240A9412161306140605060895092EDA
:103AF0000394000C11F4882352F0BB0F40F4BF2B49
:103B000011F460FF04C06F5F7F4F8F4F9F4F089588
:103B100057FD9058440F551F59F05F3F71F047957E
:103B2000880F97FB991F61F09F3F79F08795089563
:103B3000121613061406551FF2CF4695F1DF08C082
:103B4000161617061806991FF1CF8695710561059F
:103B500008940895E894BB2766277727CB0197F947
:103B6000089565DF08F48FEF08959B01AC0160E0D4
:103B700070E080E89FE385CE0BD0B9CFAADF28F0B4
:103B8000AFDF18F0952309F076CF7BCF1124E3CF78
:103B9000BFDFA0F3959FD1F3950F50E0551F629FB3
:103BA000F001729FBB27F00DB11D639FAA27F00D96
:103BB000B11DAA1F649F6627B00DA11D661F829FBD
:103BC0002227B00DA11D621F739FB00DA11D621FA2
:103BD000839FA00D611D221F749F3327A00D611DBF
:103BE000231F849F600D211D822F762F6A2F1124A1
:103BF0009F5750408AF0E1F088234AF0EE0FFF1FF4
:103C0000BB1F661F771F881F91505040A9F79E3F2A
:103C1000510570F030CF9FCF5F3FECF3983EDCF35F
:103C2000869577956795B795F795E7959F5FC1F767
:103C3000FE2B880F911D9695879597F9089511F49D
:103C40000EF41FCF45C06CDFD0F39923D9F3CEF328
:103C50009F57550B87FF4AD00024A0E640EA900109
:103C600080585695979528F4805C660F771F881FBB
:103C700020F026173707480730F4621B730B840BBC
:103C8000202931294A2BA695179407942025312500
:103C90004A2758F7660F771F881F20F02617370727
:103CA000480730F4620B730B840B200D311D411D4E
:103CB000A09581F7B901842F9158880F9695879523
:103CC00008959B01AC0158CFB2DE880B990B089583
:103CD0009F3F31F0915020F4879577956795B79580
:103CE000880F911D9695879597F9089591505040AA
:103CF000660F771F881FD2F70895A1E21A2EAA1B1C
:103D0000BB1BFD010DC0AA1FBB1FEE1FFF1FA2178B
:103D1000B307E407F50720F0A21BB30BE40BF50B88
:103D2000661F771F881F991F1A9469F76095709511
:103D3000809590959B01AC01BD01CF010895EE0FD8
:103D4000FF1F0590F491E02D0994CF93DF9382300B
:103D5000910510F482E090E0E0914003F09141037E
:103D600020E030E0A0E0B0E0309739F140815181AF
:103D700048175907B8F04817590771F482819381A1
:103D8000109729F013969C938E9312972CC09093C2
:103D900041038093400327C02115310531F04217BC
:103DA000530718F0A901DB0101C0EF019A01BD0121
:103DB000DF010280F381E02DD7CF21153105F9F025
:103DC000281B390B2430310580F48A819B816115D1
:103DD000710521F0FB019383828304C0909341031A
:103DE00080934003FE01329644C0FE01E20FF31FB0
:103DF0008193919322503109398328833AC02091CD
:103E00003E0330913F03232B41F420910201309176
:103E1000030130933F0320933E0320910001309132
:103E200001012115310541F42DB73EB74091040140
:103E300050910501241B350BE0913E03F0913F03A7
:103E4000E217F307A0F42E1B3F0B2817390778F071
:103E5000AC014E5F5F4F2417350748F04E0F5F1FD0
:103E600050933F0340933E038193919302C0E0E05F
:103E7000F0E0CF01DF91CF910895CF93DF930097CA
:103E800009F487C0FC01329713821282C09140036B
:103E9000D0914103209781F420813181280F391F6F
:103EA00080913E0390913F038217930779F5F09339
:103EB0003F03E0933E036DC0DE0120E030E0AE172B
:103EC000BF0750F412964D915C9113979D014115D7
:103ED000510509F1DA01F3CFB383A2834081518107
:103EE000840F951F8A179B0771F48D919C911197F0
:103EF000840F951F02969183808312968D919C91D9
:103F00001397938382832115310529F4F09341039C
:103F1000E09340033EC0D9011396FC93EE931297B1
:103F20004D915D91A40FB51FEA17FB0779F48081CD
:103F30009181840F951F0296D90111969C938E93BF
:103F40008281938113969C938E931297E0E0F0E028
:103F50008A819B81009719F0FE01EC01F9CFCE0117
:103F6000029628813981820F931F20913E03309160
:103F70003F032817390769F4309729F41092410359
:103F80001092400302C013821282D0933F03C09369
:103F90003E03DF91CF910895A0E0B0E0E2EDFFE1B4
:103FA0000C94B020EC01CB01209719F40E94A51EBF
:103FB000B8C0FE01E60FF71F9E0122503109E2173B
:103FC000F30708F4ACC0D9010D911C9111970617A5
:103FD0001707B8F00530110508F49FC0A801445038
:103FE00051094617570708F498C002501109061BDB
:103FF000170B019311936D937C93CF010E943D1F8A
:104000008CC05B01A01AB10A4E01800E911EA091D6
:104010004003B0914103612C712C60E070E0109777
:1040200009F449C0A815B905C9F5ED90FC901197A0
:10403000670142E0C40ED11CCA14DB0478F14701C9
:104040008A189B08640142E0C40ED11C1296BC90F1
:1040500012971396AC91B5E0CB16D10440F0B28222
:10406000A38391828082D9018D939C9309C00E5FB6
:104070001F4F0E0D1F1DF90111830083EB2DFA2F29
:104080006115710531F0DB011396FC93EE931297E5
:1040900044C0F0934103E09340033FC06D917C9195
:1040A00011976616770608F43B01BD0112960D9034
:1040B000BC91A02DB4CF60913E0370913F03681571
:1040C0007905E9F468167906D0F440910001509121
:1040D00001014115510541F44DB75EB760910401EE
:1040E00070910501461B570BE417F507C0F4F093D8
:1040F0003F03E0933E03F901918380830EC00E9449
:10410000A51E7C01009759F0A801BE010E94A320C2
:10411000CE010E943D1FC70104C0CE0102C080E055
:1041200090E0CDB7DEB7EEE00C94CC20FB01DC01D3
:1041300004C08D910190801921F441505040C8F77E
:10414000881B990B0895FB01DC0102C001900D92C0
:1041500041505040D8F708952F923F924F925F926E
:104160006F927F928F929F92AF92BF92CF92DF9287
:10417000EF92FF920F931F93CF93DF93CDB7DEB7EC
:10418000CA1BDB0B0FB6F894DEBF0FBECDBF099480
:104190002A88398848885F846E847D848C849B84D7
:1041A000AA84B984C884DF80EE80FD800C811B81E5
:1041B000AA81B981CE0FD11D0FB6F894DEBF0FBE14
:0A41C000CDBFED010895F894FFCF84
:1041CA00000042038000E8037970720900000000D1
:1041DA0000CD12A01275127D1290129F12000000DB
:1041EA0000C1173D1943175C174E179F170D0A0098
:0E41FA006E616E00696E66006F7666002E00C4
:00000001FF
